{
  "contractName": "PuppyVote",
  "abi": [
    {
      "inputs": [],
      "stateMutability": "nonpayable",
      "type": "constructor"
    },
    {
      "anonymous": false,
      "inputs": [
        {
          "indexed": true,
          "internalType": "address",
          "name": "_owner",
          "type": "address"
        },
        {
          "indexed": true,
          "internalType": "address",
          "name": "_dogOwner",
          "type": "address"
        }
      ],
      "name": "Approval",
      "type": "event"
    },
    {
      "inputs": [
        {
          "internalType": "address",
          "name": "",
          "type": "address"
        }
      ],
      "name": "adopt",
      "outputs": [
        {
          "internalType": "address",
          "name": "ownerAddress",
          "type": "address"
        },
        {
          "internalType": "uint256",
          "name": "numVote",
          "type": "uint256"
        },
        {
          "internalType": "string",
          "name": "puppyName",
          "type": "string"
        },
        {
          "internalType": "string",
          "name": "gender",
          "type": "string"
        },
        {
          "internalType": "string",
          "name": "dateOfBirth",
          "type": "string"
        },
        {
          "internalType": "string",
          "name": "description",
          "type": "string"
        },
        {
          "internalType": "string",
          "name": "dogPicture",
          "type": "string"
        }
      ],
      "stateMutability": "view",
      "type": "function",
      "constant": true
    },
    {
      "inputs": [
        {
          "internalType": "address",
          "name": "",
          "type": "address"
        }
      ],
      "name": "userVoteBalance",
      "outputs": [
        {
          "internalType": "uint256",
          "name": "",
          "type": "uint256"
        }
      ],
      "stateMutability": "view",
      "type": "function",
      "constant": true
    },
    {
      "inputs": [
        {
          "internalType": "uint256",
          "name": "",
          "type": "uint256"
        }
      ],
      "name": "users",
      "outputs": [
        {
          "internalType": "address",
          "name": "userAddress",
          "type": "address"
        }
      ],
      "stateMutability": "view",
      "type": "function",
      "constant": true
    },
    {
      "inputs": [],
      "name": "votePrice",
      "outputs": [
        {
          "internalType": "uint256",
          "name": "",
          "type": "uint256"
        }
      ],
      "stateMutability": "view",
      "type": "function",
      "constant": true
    },
    {
      "inputs": [
        {
          "internalType": "string",
          "name": "_name",
          "type": "string"
        },
        {
          "internalType": "string",
          "name": "_gender",
          "type": "string"
        },
        {
          "internalType": "string",
          "name": "_birthday",
          "type": "string"
        },
        {
          "internalType": "string[]",
          "name": "_tags",
          "type": "string[]"
        },
        {
          "internalType": "string",
          "name": "_description",
          "type": "string"
        },
        {
          "internalType": "string",
          "name": "_dogPicture",
          "type": "string"
        }
      ],
      "name": "createDogProfile",
      "outputs": [],
      "stateMutability": "payable",
      "type": "function",
      "payable": true
    },
    {
      "inputs": [
        {
          "internalType": "uint256",
          "name": "_buyVoteNum",
          "type": "uint256"
        }
      ],
      "name": "buyVote",
      "outputs": [],
      "stateMutability": "payable",
      "type": "function",
      "payable": true
    },
    {
      "inputs": [
        {
          "internalType": "uint256",
          "name": "_cancelVoteNum",
          "type": "uint256"
        }
      ],
      "name": "cancelOrder",
      "outputs": [],
      "stateMutability": "payable",
      "type": "function",
      "payable": true
    },
    {
      "inputs": [
        {
          "internalType": "uint256",
          "name": "_voteNum",
          "type": "uint256"
        },
        {
          "internalType": "address",
          "name": "dogOwner",
          "type": "address"
        }
      ],
      "name": "vote",
      "outputs": [],
      "stateMutability": "nonpayable",
      "type": "function"
    },
    {
      "inputs": [],
      "name": "endVote",
      "outputs": [],
      "stateMutability": "payable",
      "type": "function",
      "payable": true
    },
    {
      "inputs": [],
      "name": "rank",
      "outputs": [
        {
          "components": [
            {
              "internalType": "address",
              "name": "ownerAddress",
              "type": "address"
            },
            {
              "internalType": "uint256",
              "name": "numVote",
              "type": "uint256"
            },
            {
              "internalType": "string",
              "name": "puppyName",
              "type": "string"
            },
            {
              "internalType": "string",
              "name": "gender",
              "type": "string"
            },
            {
              "internalType": "string",
              "name": "dateOfBirth",
              "type": "string"
            },
            {
              "internalType": "string[]",
              "name": "tags",
              "type": "string[]"
            },
            {
              "internalType": "string",
              "name": "description",
              "type": "string"
            },
            {
              "internalType": "string",
              "name": "dogPicture",
              "type": "string"
            }
          ],
          "internalType": "struct PuppyVote.Dog[]",
          "name": "",
          "type": "tuple[]"
        }
      ],
      "stateMutability": "nonpayable",
      "type": "function"
    },
    {
      "inputs": [],
      "name": "reset",
      "outputs": [],
      "stateMutability": "nonpayable",
      "type": "function"
    },
    {
      "inputs": [],
      "name": "getDogs",
      "outputs": [
        {
          "components": [
            {
              "internalType": "address",
              "name": "ownerAddress",
              "type": "address"
            },
            {
              "internalType": "uint256",
              "name": "numVote",
              "type": "uint256"
            },
            {
              "internalType": "string",
              "name": "puppyName",
              "type": "string"
            },
            {
              "internalType": "string",
              "name": "gender",
              "type": "string"
            },
            {
              "internalType": "string",
              "name": "dateOfBirth",
              "type": "string"
            },
            {
              "internalType": "string[]",
              "name": "tags",
              "type": "string[]"
            },
            {
              "internalType": "string",
              "name": "description",
              "type": "string"
            },
            {
              "internalType": "string",
              "name": "dogPicture",
              "type": "string"
            }
          ],
          "internalType": "struct PuppyVote.Dog[]",
          "name": "",
          "type": "tuple[]"
        }
      ],
      "stateMutability": "view",
      "type": "function",
      "constant": true
    },
    {
      "inputs": [
        {
          "internalType": "uint256",
          "name": "index",
          "type": "uint256"
        }
      ],
      "name": "getDogByIndex",
      "outputs": [
        {
          "internalType": "string",
          "name": "",
          "type": "string"
        },
        {
          "internalType": "string",
          "name": "",
          "type": "string"
        },
        {
          "internalType": "string",
          "name": "",
          "type": "string"
        },
        {
          "internalType": "string[]",
          "name": "",
          "type": "string[]"
        },
        {
          "internalType": "string",
          "name": "",
          "type": "string"
        },
        {
          "internalType": "string",
          "name": "",
          "type": "string"
        }
      ],
      "stateMutability": "view",
      "type": "function",
      "constant": true
    },
    {
      "inputs": [],
      "name": "getLastDogName",
      "outputs": [
        {
          "internalType": "string",
          "name": "",
          "type": "string"
        }
      ],
      "stateMutability": "view",
      "type": "function",
      "constant": true
    },
    {
      "inputs": [],
      "name": "getLastDogVote",
      "outputs": [
        {
          "internalType": "uint256",
          "name": "",
          "type": "uint256"
        }
      ],
      "stateMutability": "view",
      "type": "function",
      "constant": true
    },
    {
      "inputs": [
        {
          "internalType": "address",
          "name": "addr",
          "type": "address"
        }
      ],
      "name": "getUserVote",
      "outputs": [
        {
          "internalType": "uint256",
          "name": "",
          "type": "uint256"
        }
      ],
      "stateMutability": "view",
      "type": "function",
      "constant": true
    },
    {
      "inputs": [
        {
          "internalType": "address",
          "name": "addr",
          "type": "address"
        }
      ],
      "name": "getAdoptDogVote",
      "outputs": [
        {
          "internalType": "uint256",
          "name": "",
          "type": "uint256"
        }
      ],
      "stateMutability": "view",
      "type": "function",
      "constant": true
    },
    {
      "inputs": [],
      "name": "getBalance",
      "outputs": [
        {
          "internalType": "uint256",
          "name": "",
          "type": "uint256"
        }
      ],
      "stateMutability": "view",
      "type": "function",
      "constant": true
    }
  ],
  "bytecode": "0x608060405234801561001057600080fd5b5033600260006101000a81548173ffffffffffffffffffffffffffffffffffffffff021916908373ffffffffffffffffffffffffffffffffffffffff16021790555067016345785d8a000060058190555061412a806100706000396000f3fe6080604052600436106101095760003560e01c8063934209ce11610095578063c8b1467a11610064578063c8b1467a1461034f578063cb80ed271461038c578063d1a3a634146103b7578063d4923d4e146103d3578063d826f88f1461041057610109565b8063934209ce146102ad5780639d08ccb0146102d8578063aa9460e31461031a578063b92239461461034557610109565b8063365b98b2116100dc578063365b98b2146101bb578063514fcac7146101f8578063616fca9b14610214578063860c851a1461025757806391da91c21461028257610109565b806302d947ef1461010e57806310c6be2b1461013757806312065fe014610174578063266dc65f1461019f575b600080fd5b34801561011a57600080fd5b5061013560048036038101906101309190613293565b610427565b005b34801561014357600080fd5b5061015e600480360381019061015991906132d3565b6105e0565b60405161016b919061330f565b60405180910390f35b34801561018057600080fd5b5061018961062b565b604051610196919061330f565b60405180910390f35b6101b960048036038101906101b49190613556565b610633565b005b3480156101c757600080fd5b506101e260048036038101906101dd919061368b565b61098a565b6040516101ef91906136c7565b60405180910390f35b610212600480360381019061020d919061368b565b6109d4565b005b34801561022057600080fd5b5061023b600480360381019061023691906132d3565b610b03565b60405161024e979695949392919061376a565b60405180910390f35b34801561026357600080fd5b5061026c610e0d565b604051610279919061330f565b60405180910390f35b34801561028e57600080fd5b50610297610e13565b6040516102a4919061330f565b60405180910390f35b3480156102b957600080fd5b506102c2611275565b6040516102cf9190613abb565b60405180910390f35b3480156102e457600080fd5b506102ff60048036038101906102fa919061368b565b611e6d565b60405161031196959493929190613b63565b60405180910390f35b34801561032657600080fd5b5061032f6122f8565b60405161033c9190613bee565b60405180910390f35b61034d61275b565b005b34801561035b57600080fd5b50610376600480360381019061037191906132d3565b612874565b604051610383919061330f565b60405180910390f35b34801561039857600080fd5b506103a161288c565b6040516103ae9190613abb565b60405180910390f35b6103d160048036038101906103cc919061368b565b612cff565b005b3480156103df57600080fd5b506103fa60048036038101906103f591906132d3565b612e3d565b604051610407919061330f565b60405180910390f35b34801561041c57600080fd5b50610425612e86565b005b600160003373ffffffffffffffffffffffffffffffffffffffff1673ffffffffffffffffffffffffffffffffffffffff168152602001908152602001600020548211156104a9576040517f08c379a00000000000000000000000000000000000000000000000000000000081526004016104a090613c82565b60405180910390fd5b81600160003373ffffffffffffffffffffffffffffffffffffffff1673ffffffffffffffffffffffffffffffffffffffff16815260200190815260200160002060008282546104f89190613cd1565b92505081905550816000808373ffffffffffffffffffffffffffffffffffffffff1673ffffffffffffffffffffffffffffffffffffffff16815260200190815260200160002060010160008282546105509190613d05565b9250508190555061055f611275565b508073ffffffffffffffffffffffffffffffffffffffff16600260009054906101000a900473ffffffffffffffffffffffffffffffffffffffff1673ffffffffffffffffffffffffffffffffffffffff167ff37f546c25e850257cc0c94f92bec94a17e2f0e884ddda268a25d8144b70eb6a60405160405180910390a35050565b60008060008373ffffffffffffffffffffffffffffffffffffffff1673ffffffffffffffffffffffffffffffffffffffff168152602001908152602001600020600101549050919050565b600047905090565b856000815103610678576040517f08c379a000000000000000000000000000000000000000000000000000000000815260040161066f90613da7565b60405180910390fd5b6005543410156106bd576040517f08c379a00000000000000000000000000000000000000000000000000000000081526004016106b490613e39565b60405180910390fd5b60006040518061010001604052803373ffffffffffffffffffffffffffffffffffffffff16815260200160008152602001898152602001888152602001878152602001868152602001858152602001848152509050806000803373ffffffffffffffffffffffffffffffffffffffff1673ffffffffffffffffffffffffffffffffffffffff16815260200190815260200160002060008201518160000160006101000a81548173ffffffffffffffffffffffffffffffffffffffff021916908373ffffffffffffffffffffffffffffffffffffffff1602179055506020820151816001015560408201518160020190805190602001906107be929190612f8f565b5060608201518160030190805190602001906107db929190612f8f565b5060808201518160040190805190602001906107f8929190612f8f565b5060a0820151816005019080519060200190610815929190613015565b5060c0820151816006019080519060200190610832929190612f8f565b5060e082015181600701908051906020019061084f929190612f8f565b50905050600481908060018154018082558091505060019003906000526020600020906008020160009091909190915060008201518160000160006101000a81548173ffffffffffffffffffffffffffffffffffffffff021916908373ffffffffffffffffffffffffffffffffffffffff1602179055506020820151816001015560408201518160020190805190602001906108ec929190612f8f565b506060820151816003019080519060200190610909929190612f8f565b506080820151816004019080519060200190610926929190612f8f565b5060a0820151816005019080519060200190610943929190613015565b5060c0820151816006019080519060200190610960929190612f8f565b5060e082015181600701908051906020019061097d929190612f8f565b5050505050505050505050565b6003818154811061099a57600080fd5b906000526020600020016000915090508060000160009054906101000a900473ffffffffffffffffffffffffffffffffffffffff16905081565b600160003373ffffffffffffffffffffffffffffffffffffffff1673ffffffffffffffffffffffffffffffffffffffff16815260200190815260200160002054811115610a56576040517f08c379a0000000000000000000000000000000000000000000000000000000008152600401610a4d90613ecb565b60405180910390fd5b80600160003373ffffffffffffffffffffffffffffffffffffffff1673ffffffffffffffffffffffffffffffffffffffff1681526020019081526020016000206000828254610aa59190613cd1565b925050819055503373ffffffffffffffffffffffffffffffffffffffff166108fc82600554610ad49190613eeb565b9081150290604051600060405180830381858888f19350505050158015610aff573d6000803e3d6000fd5b5050565b60006020528060005260406000206000915090508060000160009054906101000a900473ffffffffffffffffffffffffffffffffffffffff1690806001015490806002018054610b5290613f74565b80601f0160208091040260200160405190810160405280929190818152602001828054610b7e90613f74565b8015610bcb5780601f10610ba057610100808354040283529160200191610bcb565b820191906000526020600020905b815481529060010190602001808311610bae57829003601f168201915b505050505090806003018054610be090613f74565b80601f0160208091040260200160405190810160405280929190818152602001828054610c0c90613f74565b8015610c595780601f10610c2e57610100808354040283529160200191610c59565b820191906000526020600020905b815481529060010190602001808311610c3c57829003601f168201915b505050505090806004018054610c6e90613f74565b80601f0160208091040260200160405190810160405280929190818152602001828054610c9a90613f74565b8015610ce75780601f10610cbc57610100808354040283529160200191610ce7565b820191906000526020600020905b815481529060010190602001808311610cca57829003601f168201915b505050505090806006018054610cfc90613f74565b80601f0160208091040260200160405190810160405280929190818152602001828054610d2890613f74565b8015610d755780601f10610d4a57610100808354040283529160200191610d75565b820191906000526020600020905b815481529060010190602001808311610d5857829003601f168201915b505050505090806007018054610d8a90613f74565b80601f0160208091040260200160405190810160405280929190818152602001828054610db690613f74565b8015610e035780601f10610dd857610100808354040283529160200191610e03565b820191906000526020600020905b815481529060010190602001808311610de657829003601f168201915b5050505050905087565b60055481565b60008060046001600480549050610e2a9190613cd1565b81548110610e3b57610e3a613fa5565b5b9060005260206000209060080201604051806101000160405290816000820160009054906101000a900473ffffffffffffffffffffffffffffffffffffffff1673ffffffffffffffffffffffffffffffffffffffff1673ffffffffffffffffffffffffffffffffffffffff16815260200160018201548152602001600282018054610ec590613f74565b80601f0160208091040260200160405190810160405280929190818152602001828054610ef190613f74565b8015610f3e5780601f10610f1357610100808354040283529160200191610f3e565b820191906000526020600020905b815481529060010190602001808311610f2157829003601f168201915b50505050508152602001600382018054610f5790613f74565b80601f0160208091040260200160405190810160405280929190818152602001828054610f8390613f74565b8015610fd05780601f10610fa557610100808354040283529160200191610fd0565b820191906000526020600020905b815481529060010190602001808311610fb357829003601f168201915b50505050508152602001600482018054610fe990613f74565b80601f016020809104026020016040519081016040528092919081815260200182805461101590613f74565b80156110625780601f1061103757610100808354040283529160200191611062565b820191906000526020600020905b81548152906001019060200180831161104557829003601f168201915b5050505050815260200160058201805480602002602001604051908101604052809291908181526020016000905b8282101561113c5783829060005260206000200180546110af90613f74565b80601f01602080910402602001604051908101604052809291908181526020018280546110db90613f74565b80156111285780601f106110fd57610100808354040283529160200191611128565b820191906000526020600020905b81548152906001019060200180831161110b57829003601f168201915b505050505081526020019060010190611090565b50505050815260200160068201805461115490613f74565b80601f016020809104026020016040519081016040528092919081815260200182805461118090613f74565b80156111cd5780601f106111a2576101008083540402835291602001916111cd565b820191906000526020600020905b8154815290600101906020018083116111b057829003601f168201915b505050505081526020016007820180546111e690613f74565b80601f016020809104026020016040519081016040528092919081815260200182805461121290613f74565b801561125f5780601f106112345761010080835404028352916020019161125f565b820191906000526020600020905b81548152906001019060200180831161124257829003601f168201915b5050505050815250509050806020015191505090565b60606000600480549050905060005b818110156119fa57600060018261129b9190613d05565b90505b828110156119e657600481815481106112ba576112b9613fa5565b5b906000526020600020906008020160010154600483815481106112e0576112df613fa5565b5b90600052602060002090600802016001015410156119d35760006004828154811061130e5761130d613fa5565b5b9060005260206000209060080201604051806101000160405290816000820160009054906101000a900473ffffffffffffffffffffffffffffffffffffffff1673ffffffffffffffffffffffffffffffffffffffff1673ffffffffffffffffffffffffffffffffffffffff1681526020016001820154815260200160028201805461139890613f74565b80601f01602080910402602001604051908101604052809291908181526020018280546113c490613f74565b80156114115780601f106113e657610100808354040283529160200191611411565b820191906000526020600020905b8154815290600101906020018083116113f457829003601f168201915b5050505050815260200160038201805461142a90613f74565b80601f016020809104026020016040519081016040528092919081815260200182805461145690613f74565b80156114a35780601f10611478576101008083540402835291602001916114a3565b820191906000526020600020905b81548152906001019060200180831161148657829003601f168201915b505050505081526020016004820180546114bc90613f74565b80601f01602080910402602001604051908101604052809291908181526020018280546114e890613f74565b80156115355780601f1061150a57610100808354040283529160200191611535565b820191906000526020600020905b81548152906001019060200180831161151857829003601f168201915b5050505050815260200160058201805480602002602001604051908101604052809291908181526020016000905b8282101561160f57838290600052602060002001805461158290613f74565b80601f01602080910402602001604051908101604052809291908181526020018280546115ae90613f74565b80156115fb5780601f106115d0576101008083540402835291602001916115fb565b820191906000526020600020905b8154815290600101906020018083116115de57829003601f168201915b505050505081526020019060010190611563565b50505050815260200160068201805461162790613f74565b80601f016020809104026020016040519081016040528092919081815260200182805461165390613f74565b80156116a05780601f10611675576101008083540402835291602001916116a0565b820191906000526020600020905b81548152906001019060200180831161168357829003601f168201915b505050505081526020016007820180546116b990613f74565b80601f01602080910402602001604051908101604052809291908181526020018280546116e590613f74565b80156117325780601f1061170757610100808354040283529160200191611732565b820191906000526020600020905b81548152906001019060200180831161171557829003601f168201915b50505050508152505090506004838154811061175157611750613fa5565b5b90600052602060002090600802016004838154811061177357611772613fa5565b5b90600052602060002090600802016000820160009054906101000a900473ffffffffffffffffffffffffffffffffffffffff168160000160006101000a81548173ffffffffffffffffffffffffffffffffffffffff021916908373ffffffffffffffffffffffffffffffffffffffff16021790555060018201548160010155600282018160020190805461180690613f74565b611811929190613075565b50600382018160030190805461182690613f74565b611831929190613075565b50600482018160040190805461184690613f74565b611851929190613075565b506005820181600501908054611868929190613102565b50600682018160060190805461187d90613f74565b611888929190613075565b50600782018160070190805461189d90613f74565b6118a8929190613075565b5090505080600484815481106118c1576118c0613fa5565b5b906000526020600020906008020160008201518160000160006101000a81548173ffffffffffffffffffffffffffffffffffffffff021916908373ffffffffffffffffffffffffffffffffffffffff16021790555060208201518160010155604082015181600201908051906020019061193c929190612f8f565b506060820151816003019080519060200190611959929190612f8f565b506080820151816004019080519060200190611976929190612f8f565b5060a0820151816005019080519060200190611993929190613015565b5060c08201518160060190805190602001906119b0929190612f8f565b5060e08201518160070190805190602001906119cd929190612f8f565b50905050505b80806119de90613fd4565b91505061129e565b5080806119f290613fd4565b915050611284565b506004805480602002602001604051908101604052809291908181526020016000905b82821015611e635783829060005260206000209060080201604051806101000160405290816000820160009054906101000a900473ffffffffffffffffffffffffffffffffffffffff1673ffffffffffffffffffffffffffffffffffffffff1673ffffffffffffffffffffffffffffffffffffffff16815260200160018201548152602001600282018054611ab190613f74565b80601f0160208091040260200160405190810160405280929190818152602001828054611add90613f74565b8015611b2a5780601f10611aff57610100808354040283529160200191611b2a565b820191906000526020600020905b815481529060010190602001808311611b0d57829003601f168201915b50505050508152602001600382018054611b4390613f74565b80601f0160208091040260200160405190810160405280929190818152602001828054611b6f90613f74565b8015611bbc5780601f10611b9157610100808354040283529160200191611bbc565b820191906000526020600020905b815481529060010190602001808311611b9f57829003601f168201915b50505050508152602001600482018054611bd590613f74565b80601f0160208091040260200160405190810160405280929190818152602001828054611c0190613f74565b8015611c4e5780601f10611c2357610100808354040283529160200191611c4e565b820191906000526020600020905b815481529060010190602001808311611c3157829003601f168201915b5050505050815260200160058201805480602002602001604051908101604052809291908181526020016000905b82821015611d28578382906000526020600020018054611c9b90613f74565b80601f0160208091040260200160405190810160405280929190818152602001828054611cc790613f74565b8015611d145780601f10611ce957610100808354040283529160200191611d14565b820191906000526020600020905b815481529060010190602001808311611cf757829003601f168201915b505050505081526020019060010190611c7c565b505050508152602001600682018054611d4090613f74565b80601f0160208091040260200160405190810160405280929190818152602001828054611d6c90613f74565b8015611db95780601f10611d8e57610100808354040283529160200191611db9565b820191906000526020600020905b815481529060010190602001808311611d9c57829003601f168201915b50505050508152602001600782018054611dd290613f74565b80601f0160208091040260200160405190810160405280929190818152602001828054611dfe90613f74565b8015611e4b5780601f10611e2057610100808354040283529160200191611e4b565b820191906000526020600020905b815481529060010190602001808311611e2e57829003601f168201915b50505050508152505081526020019060010190611a1d565b5050505091505090565b60608060608060608060048781548110611e8a57611e89613fa5565b5b906000526020600020906008020160020160048881548110611eaf57611eae613fa5565b5b906000526020600020906008020160030160048981548110611ed457611ed3613fa5565b5b906000526020600020906008020160040160048a81548110611ef957611ef8613fa5565b5b906000526020600020906008020160050160048b81548110611f1e57611f1d613fa5565b5b906000526020600020906008020160060160048c81548110611f4357611f42613fa5565b5b9060005260206000209060080201600701858054611f6090613f74565b80601f0160208091040260200160405190810160405280929190818152602001828054611f8c90613f74565b8015611fd95780601f10611fae57610100808354040283529160200191611fd9565b820191906000526020600020905b815481529060010190602001808311611fbc57829003601f168201915b50505050509550848054611fec90613f74565b80601f016020809104026020016040519081016040528092919081815260200182805461201890613f74565b80156120655780601f1061203a57610100808354040283529160200191612065565b820191906000526020600020905b81548152906001019060200180831161204857829003601f168201915b5050505050945083805461207890613f74565b80601f01602080910402602001604051908101604052809291908181526020018280546120a490613f74565b80156120f15780601f106120c6576101008083540402835291602001916120f1565b820191906000526020600020905b8154815290600101906020018083116120d457829003601f168201915b5050505050935082805480602002602001604051908101604052809291908181526020016000905b828210156121c557838290600052602060002001805461213890613f74565b80601f016020809104026020016040519081016040528092919081815260200182805461216490613f74565b80156121b15780601f10612186576101008083540402835291602001916121b1565b820191906000526020600020905b81548152906001019060200180831161219457829003601f168201915b505050505081526020019060010190612119565b5050505092508180546121d790613f74565b80601f016020809104026020016040519081016040528092919081815260200182805461220390613f74565b80156122505780601f1061222557610100808354040283529160200191612250565b820191906000526020600020905b81548152906001019060200180831161223357829003601f168201915b5050505050915080805461226390613f74565b80601f016020809104026020016040519081016040528092919081815260200182805461228f90613f74565b80156122dc5780601f106122b1576101008083540402835291602001916122dc565b820191906000526020600020905b8154815290600101906020018083116122bf57829003601f168201915b5050505050905095509550955095509550955091939550919395565b60606000600460016004805490506123109190613cd1565b8154811061232157612320613fa5565b5b9060005260206000209060080201604051806101000160405290816000820160009054906101000a900473ffffffffffffffffffffffffffffffffffffffff1673ffffffffffffffffffffffffffffffffffffffff1673ffffffffffffffffffffffffffffffffffffffff168152602001600182015481526020016002820180546123ab90613f74565b80601f01602080910402602001604051908101604052809291908181526020018280546123d790613f74565b80156124245780601f106123f957610100808354040283529160200191612424565b820191906000526020600020905b81548152906001019060200180831161240757829003601f168201915b5050505050815260200160038201805461243d90613f74565b80601f016020809104026020016040519081016040528092919081815260200182805461246990613f74565b80156124b65780601f1061248b576101008083540402835291602001916124b6565b820191906000526020600020905b81548152906001019060200180831161249957829003601f168201915b505050505081526020016004820180546124cf90613f74565b80601f01602080910402602001604051908101604052809291908181526020018280546124fb90613f74565b80156125485780601f1061251d57610100808354040283529160200191612548565b820191906000526020600020905b81548152906001019060200180831161252b57829003601f168201915b5050505050815260200160058201805480602002602001604051908101604052809291908181526020016000905b8282101561262257838290600052602060002001805461259590613f74565b80601f01602080910402602001604051908101604052809291908181526020018280546125c190613f74565b801561260e5780601f106125e35761010080835404028352916020019161260e565b820191906000526020600020905b8154815290600101906020018083116125f157829003601f168201915b505050505081526020019060010190612576565b50505050815260200160068201805461263a90613f74565b80601f016020809104026020016040519081016040528092919081815260200182805461266690613f74565b80156126b35780601f10612688576101008083540402835291602001916126b3565b820191906000526020600020905b81548152906001019060200180831161269657829003601f168201915b505050505081526020016007820180546126cc90613f74565b80601f01602080910402602001604051908101604052809291908181526020018280546126f890613f74565b80156127455780601f1061271a57610100808354040283529160200191612745565b820191906000526020600020905b81548152906001019060200180831161272857829003601f168201915b5050505050815250509050806040015191505090565b600260009054906101000a900473ffffffffffffffffffffffffffffffffffffffff1673ffffffffffffffffffffffffffffffffffffffff163373ffffffffffffffffffffffffffffffffffffffff16146127eb576040517f08c379a00000000000000000000000000000000000000000000000000000000081526004016127e290614068565b60405180910390fd5b60006127f5611275565b905060008160008151811061280d5761280c613fa5565b5b602002602001015190506000816000015190508073ffffffffffffffffffffffffffffffffffffffff166108fc479081150290604051600060405180830381858888f19350505050158015612866573d6000803e3d6000fd5b5061286f612e86565b505050565b60016020528060005260406000206000915090505481565b60606004805480602002602001604051908101604052809291908181526020016000905b82821015612cf65783829060005260206000209060080201604051806101000160405290816000820160009054906101000a900473ffffffffffffffffffffffffffffffffffffffff1673ffffffffffffffffffffffffffffffffffffffff1673ffffffffffffffffffffffffffffffffffffffff1681526020016001820154815260200160028201805461294490613f74565b80601f016020809104026020016040519081016040528092919081815260200182805461297090613f74565b80156129bd5780601f10612992576101008083540402835291602001916129bd565b820191906000526020600020905b8154815290600101906020018083116129a057829003601f168201915b505050505081526020016003820180546129d690613f74565b80601f0160208091040260200160405190810160405280929190818152602001828054612a0290613f74565b8015612a4f5780601f10612a2457610100808354040283529160200191612a4f565b820191906000526020600020905b815481529060010190602001808311612a3257829003601f168201915b50505050508152602001600482018054612a6890613f74565b80601f0160208091040260200160405190810160405280929190818152602001828054612a9490613f74565b8015612ae15780601f10612ab657610100808354040283529160200191612ae1565b820191906000526020600020905b815481529060010190602001808311612ac457829003601f168201915b5050505050815260200160058201805480602002602001604051908101604052809291908181526020016000905b82821015612bbb578382906000526020600020018054612b2e90613f74565b80601f0160208091040260200160405190810160405280929190818152602001828054612b5a90613f74565b8015612ba75780601f10612b7c57610100808354040283529160200191612ba7565b820191906000526020600020905b815481529060010190602001808311612b8a57829003601f168201915b505050505081526020019060010190612b0f565b505050508152602001600682018054612bd390613f74565b80601f0160208091040260200160405190810160405280929190818152602001828054612bff90613f74565b8015612c4c5780601f10612c2157610100808354040283529160200191612c4c565b820191906000526020600020905b815481529060010190602001808311612c2f57829003601f168201915b50505050508152602001600782018054612c6590613f74565b80601f0160208091040260200160405190810160405280929190818152602001828054612c9190613f74565b8015612cde5780601f10612cb357610100808354040283529160200191612cde565b820191906000526020600020905b815481529060010190602001808311612cc157829003601f168201915b505050505081525050815260200190600101906128b0565b50505050905090565b600360405180602001604052803373ffffffffffffffffffffffffffffffffffffffff168152509080600181540180825580915050600190039060005260206000200160009091909190915060008201518160000160006101000a81548173ffffffffffffffffffffffffffffffffffffffff021916908373ffffffffffffffffffffffffffffffffffffffff160217905550505060055481612da29190613eeb565b341015612de4576040517f08c379a0000000000000000000000000000000000000000000000000000000008152600401612ddb906140d4565b60405180910390fd5b80600160003373ffffffffffffffffffffffffffffffffffffffff1673ffffffffffffffffffffffffffffffffffffffff1681526020019081526020016000206000828254612e339190613d05565b9250508190555050565b6000600160008373ffffffffffffffffffffffffffffffffffffffff1673ffffffffffffffffffffffffffffffffffffffff168152602001908152602001600020549050919050565b6000600480549050905060005b81811015612ed957600060048281548110612eb157612eb0613fa5565b5b9060005260206000209060080201600101819055508080612ed190613fd4565b915050612e93565b506000600380549050905060005b81811015612f8a57600080600060038481548110612f0857612f07613fa5565b5b9060005260206000200160000160009054906101000a900473ffffffffffffffffffffffffffffffffffffffff1673ffffffffffffffffffffffffffffffffffffffff1673ffffffffffffffffffffffffffffffffffffffff168152602001908152602001600020600101819055508080612f8290613fd4565b915050612ee7565b505050565b828054612f9b90613f74565b90600052602060002090601f016020900481019282612fbd5760008555613004565b82601f10612fd657805160ff1916838001178555613004565b82800160010185558215613004579182015b82811115613003578251825591602001919060010190612fe8565b5b509050613011919061316a565b5090565b828054828255906000526020600020908101928215613064579160200282015b82811115613063578251829080519060200190613053929190612f8f565b5091602001919060010190613035565b5b5090506130719190613187565b5090565b82805461308190613f74565b90600052602060002090601f0160209004810192826130a357600085556130f1565b82601f106130b457805485556130f1565b828001600101855582156130f157600052602060002091601f016020900482015b828111156130f05782548255916001019190600101906130d5565b5b5090506130fe919061316a565b5090565b8280548282559060005260206000209081019282156131595760005260206000209182015b8281111561315857828290805461313d90613f74565b613148929190613075565b5091600101919060010190613127565b5b5090506131669190613187565b5090565b5b8082111561318357600081600090555060010161316b565b5090565b5b808211156131a7576000818161319e91906131ab565b50600101613188565b5090565b5080546131b790613f74565b6000825580601f106131c957506131e8565b601f0160209004906000526020600020908101906131e7919061316a565b5b50565b6000604051905090565b600080fd5b600080fd5b6000819050919050565b613212816131ff565b811461321d57600080fd5b50565b60008135905061322f81613209565b92915050565b600073ffffffffffffffffffffffffffffffffffffffff82169050919050565b600061326082613235565b9050919050565b61327081613255565b811461327b57600080fd5b50565b60008135905061328d81613267565b92915050565b600080604083850312156132aa576132a96131f5565b5b60006132b885828601613220565b92505060206132c98582860161327e565b9150509250929050565b6000602082840312156132e9576132e86131f5565b5b60006132f78482850161327e565b91505092915050565b613309816131ff565b82525050565b60006020820190506133246000830184613300565b92915050565b600080fd5b600080fd5b6000601f19601f8301169050919050565b7f4e487b7100000000000000000000000000000000000000000000000000000000600052604160045260246000fd5b61337d82613334565b810181811067ffffffffffffffff8211171561339c5761339b613345565b5b80604052505050565b60006133af6131eb565b90506133bb8282613374565b919050565b600067ffffffffffffffff8211156133db576133da613345565b5b6133e482613334565b9050602081019050919050565b82818337600083830152505050565b600061341361340e846133c0565b6133a5565b90508281526020810184848401111561342f5761342e61332f565b5b61343a8482856133f1565b509392505050565b600082601f8301126134575761345661332a565b5b8135613467848260208601613400565b91505092915050565b600067ffffffffffffffff82111561348b5761348a613345565b5b602082029050602081019050919050565b600080fd5b60006134b46134af84613470565b6133a5565b905080838252602082019050602084028301858111156134d7576134d661349c565b5b835b8181101561351e57803567ffffffffffffffff8111156134fc576134fb61332a565b5b8086016135098982613442565b855260208501945050506020810190506134d9565b5050509392505050565b600082601f83011261353d5761353c61332a565b5b813561354d8482602086016134a1565b91505092915050565b60008060008060008060c08789031215613573576135726131f5565b5b600087013567ffffffffffffffff811115613591576135906131fa565b5b61359d89828a01613442565b965050602087013567ffffffffffffffff8111156135be576135bd6131fa565b5b6135ca89828a01613442565b955050604087013567ffffffffffffffff8111156135eb576135ea6131fa565b5b6135f789828a01613442565b945050606087013567ffffffffffffffff811115613618576136176131fa565b5b61362489828a01613528565b935050608087013567ffffffffffffffff811115613645576136446131fa565b5b61365189828a01613442565b92505060a087013567ffffffffffffffff811115613672576136716131fa565b5b61367e89828a01613442565b9150509295509295509295565b6000602082840312156136a1576136a06131f5565b5b60006136af84828501613220565b91505092915050565b6136c181613255565b82525050565b60006020820190506136dc60008301846136b8565b92915050565b600081519050919050565b600082825260208201905092915050565b60005b8381101561371c578082015181840152602081019050613701565b8381111561372b576000848401525b50505050565b600061373c826136e2565b61374681856136ed565b93506137568185602086016136fe565b61375f81613334565b840191505092915050565b600060e08201905061377f600083018a6136b8565b61378c6020830189613300565b818103604083015261379e8188613731565b905081810360608301526137b28187613731565b905081810360808301526137c68186613731565b905081810360a08301526137da8185613731565b905081810360c08301526137ee8184613731565b905098975050505050505050565b600081519050919050565b600082825260208201905092915050565b6000819050602082019050919050565b61383181613255565b82525050565b613840816131ff565b82525050565b600082825260208201905092915050565b6000613862826136e2565b61386c8185613846565b935061387c8185602086016136fe565b61388581613334565b840191505092915050565b600081519050919050565b600082825260208201905092915050565b6000819050602082019050919050565b60006138c88383613857565b905092915050565b6000602082019050919050565b60006138e882613890565b6138f2818561389b565b935083602082028501613904856138ac565b8060005b85811015613940578484038952815161392185826138bc565b945061392c836138d0565b925060208a01995050600181019050613908565b50829750879550505050505092915050565b60006101008301600083015161396b6000860182613828565b50602083015161397e6020860182613837565b50604083015184820360408601526139968282613857565b915050606083015184820360608601526139b08282613857565b915050608083015184820360808601526139ca8282613857565b91505060a083015184820360a08601526139e482826138dd565b91505060c083015184820360c08601526139fe8282613857565b91505060e083015184820360e0860152613a188282613857565b9150508091505092915050565b6000613a318383613952565b905092915050565b6000602082019050919050565b6000613a51826137fc565b613a5b8185613807565b935083602082028501613a6d85613818565b8060005b85811015613aa95784840389528151613a8a8582613a25565b9450613a9583613a39565b925060208a01995050600181019050613a71565b50829750879550505050505092915050565b60006020820190508181036000830152613ad58184613a46565b905092915050565b600082825260208201905092915050565b6000613af982613890565b613b038185613add565b935083602082028501613b15856138ac565b8060005b85811015613b515784840389528151613b3285826138bc565b9450613b3d836138d0565b925060208a01995050600181019050613b19565b50829750879550505050505092915050565b600060c0820190508181036000830152613b7d8189613731565b90508181036020830152613b918188613731565b90508181036040830152613ba58187613731565b90508181036060830152613bb98186613aee565b90508181036080830152613bcd8185613731565b905081810360a0830152613be18184613731565b9050979650505050505050565b60006020820190508181036000830152613c088184613731565b905092915050565b7f596f752063616e277420766f7465206d6f726520766f746573207468616e207960008201527f6f75206861766521000000000000000000000000000000000000000000000000602082015250565b6000613c6c6028836136ed565b9150613c7782613c10565b604082019050919050565b60006020820190508181036000830152613c9b81613c5f565b9050919050565b7f4e487b7100000000000000000000000000000000000000000000000000000000600052601160045260246000fd5b6000613cdc826131ff565b9150613ce7836131ff565b925082821015613cfa57613cf9613ca2565b5b828203905092915050565b6000613d10826131ff565b9150613d1b836131ff565b9250827fffffffffffffffffffffffffffffffffffffffffffffffffffffffffffffffff03821115613d5057613d4f613ca2565b5b828201905092915050565b7f446f67206e616d652063616e206e6f7420626520656d70747921000000000000600082015250565b6000613d91601a836136ed565b9150613d9c82613d5b565b602082019050919050565b60006020820190508181036000830152613dc081613d84565b9050919050565b7f4e6f7420656e6f756768206d6f6e657920746f20637265617465206120646f6760008201527f2070726f66696c65000000000000000000000000000000000000000000000000602082015250565b6000613e236028836136ed565b9150613e2e82613dc7565b604082019050919050565b60006020820190508181036000830152613e5281613e16565b9050919050565b7f7265717565737465642063616e63656c20766f7465732065786365656465642060008201527f74686520746f74616c20766f74657320617661696c61626c6500000000000000602082015250565b6000613eb56039836136ed565b9150613ec082613e59565b604082019050919050565b60006020820190508181036000830152613ee481613ea8565b9050919050565b6000613ef6826131ff565b9150613f01836131ff565b9250817fffffffffffffffffffffffffffffffffffffffffffffffffffffffffffffffff0483118215151615613f3a57613f39613ca2565b5b828202905092915050565b7f4e487b7100000000000000000000000000000000000000000000000000000000600052602260045260246000fd5b60006002820490506001821680613f8c57607f821691505b602082108103613f9f57613f9e613f45565b5b50919050565b7f4e487b7100000000000000000000000000000000000000000000000000000000600052603260045260246000fd5b6000613fdf826131ff565b91507fffffffffffffffffffffffffffffffffffffffffffffffffffffffffffffffff820361401157614010613ca2565b5b600182019050919050565b7f6f6e6c79207468652061646d696e2063616e20656e6420766f74650000000000600082015250565b6000614052601b836136ed565b915061405d8261401c565b602082019050919050565b6000602082019050818103600083015261408181614045565b9050919050565b7f4e6f7420656e6f756768206d6f6e657920746f20627579206120766f74650000600082015250565b60006140be601e836136ed565b91506140c982614088565b602082019050919050565b600060208201905081810360008301526140ed816140b1565b905091905056fea26469706673582212209015c6c33a78f44d8dd646467292a6926e860c5077e3131f3567b87317385eb964736f6c634300080d0033",
  "immutableReferences": {},
  "source": "//SPDX-License-Identifier: MIT\npragma solidity ^0.8.0;\n\ncontract PuppyVote{\n\n    struct User{\n        address userAddress; \n    } \n    \n    struct Dog{\n        address ownerAddress; \n        uint numVote;\n        string puppyName;\n        string gender;\n        string dateOfBirth;\n        string[] tags;\n        string description;\n        string dogPicture;\n    }\n\n    event Approval(\n        address indexed _owner,\n        address indexed _dogOwner\n    );\n\n    mapping(address => Dog) public adopt;   // a user has a dog\n    mapping(address => uint256) public userVoteBalance;// the number of votes user has confirmed\n    \n    address owner;\n    User[] public users;\n    Dog[] dogs;\n    \n    uint public votePrice;\n\n    constructor() {\n        owner = msg.sender;\n        votePrice = 100000000000000000; // 0.1 ether\n    }\n\n    modifier notEmpty (string memory _input) {\n        require(bytes(_input).length!= 0, \"Dog name can not be empty!\");\n        _;\n    }\n\n    function createDogProfile(string memory _name, string memory _gender, string memory _birthday, string[] memory _tags, string memory _description, string memory _dogPicture) public payable notEmpty (_name){\n        //users.push(User(msg.sender)); \n        //get info from web \n        require(msg.value >= votePrice, \"Not enough money to create a dog profile\"); //transfer to sc addr by default\n        Dog memory newDog = Dog(msg.sender, 0, _name, _gender, _birthday, _tags, _description, _dogPicture);\n        adopt[msg.sender] = newDog;\n        dogs.push(newDog);\n    }\n    \n    // there should be some input protection in the front end\n    function buyVote(uint256 _buyVoteNum) public payable{\n        users.push(User(msg.sender));\n        require(msg.value >= _buyVoteNum * votePrice, \"Not enough money to buy a vote\"); //transfer to sc addr by default\n        userVoteBalance[msg.sender] += _buyVoteNum;\n        //payable(owner).transfer(_buyVoteNum * votePrice);\n        // addressshg(this): the address of the smart contract\n        //transferMoney(address(this), _buyVoteNum);\n        //bool flag = payable(address(this)).send(100000000000000000);\n        //require(flag == true, \"failure of sending the money\");\n        \n        //payable(address(this)).transfer(votePrice);\n    }\n\n    function cancelOrder(uint256 _cancelVoteNum) public payable{\n        require(_cancelVoteNum <= userVoteBalance[msg.sender], \"requested cancel votes exceeded the total votes available\");\n        userVoteBalance[msg.sender] -= _cancelVoteNum;\n        payable(msg.sender).transfer(votePrice * _cancelVoteNum);\n    }\n\n    // to: get the money, source of pain\n    // function transferMoney(address _to, uint256 _voteNum) public payable returns (bool success) {\n    //     require(msg.value >= _voteNum * votePrice, \"Not enough ether\");\n    //     payable(_to).transfer(_voteNum * votePrice);\n    //     return true;\n    // }\n\n    function vote(uint256 _voteNum, address dogOwner) public{\n        require(_voteNum <= userVoteBalance[msg.sender], \"You can't vote more votes than you have!\");\n        userVoteBalance[msg.sender] -= _voteNum;\n        adopt[dogOwner].numVote += _voteNum;//update dog's vote\n        rank();//update leader board\n        emit Approval(owner, dogOwner);\n    }\n\n    // calculate the winner, and return money to the winner\n    function endVote() public payable{\n        require(msg.sender == owner, \"only the admin can end vote\");\n        Dog[] memory result = rank();\n        // the winning dog\n        Dog memory winningDog = result[0];\n        address winner = winningDog.ownerAddress;\n        payable(winner).transfer(address(this).balance);\n        //payable(owner).transfer(address(this).balance);//transfer money back to owner\n        reset();\n    }\n\n    function rank() public returns (Dog[] memory){\n        uint256 l = dogs.length;\n        for (uint i = 0; i < l; i++) {\n            for (uint j = i + 1; j < l; j++) {\n                if(dogs[i].numVote < dogs[j].numVote){\n                    Dog memory tmp = dogs[j];\n                    dogs[j] = dogs[i];\n                    dogs[i] = tmp;\n                }\n            }\n        }\n        return dogs;\n    }\n\n    function reset() public {\n        uint256 l = dogs.length;\n        for (uint i = 0; i < l; i++) {\n            dogs[i].numVote=0;//reset to zero\n        }\n        uint256 len = users.length;\n\n        for (uint i = 0; i < len; i++) {\n            adopt[users[i].userAddress].numVote=0;//reset to zero\n        }\n    }\n    \n    function getDogs() public view returns (Dog[] memory) {\n        return dogs;\n    }\n\n    function getDogByIndex(uint index) public view returns(string memory, string memory, string memory, string[] memory, string memory, string memory) {\n        return (dogs[index].puppyName, dogs[index].gender, dogs[index].dateOfBirth, dogs[index].tags, dogs[index].description, dogs[index].dogPicture);\n    }\n\n    function getLastDogName() public view returns (string memory) {\n        Dog memory dog = dogs[dogs.length-1];\n        return dog.puppyName;\n    }\n\n    function getLastDogVote() public view returns (uint256) {\n        Dog memory dog = dogs[dogs.length-1];\n        return dog.numVote;\n    }\n\n    function getUserVote(address addr) public view returns (uint256 ) {\n        return userVoteBalance[addr];\n    }\n\n    function getAdoptDogVote(address addr) public view returns (uint256 ) {\n        return adopt[addr].numVote;\n    }\n\n       //get balance\n    function getBalance() public view returns (uint) {\n        return address(this).balance;\n    }\n}\n",
  "sourcePath": "/Users/miley/Desktop/571G/571G_Project/my-app/src/contracts/PuppyVote.sol",
  "compiler": {
    "name": "solc",
    "version": "0.8.13+commit.abaa5c0e.Emscripten.clang"
  },
  "schemaVersion": "3.4.6",
  "updatedAt": "2022-04-04T17:40:42.249Z",
  "networkType": "ethereum",
  "devdoc": {
    "kind": "dev",
    "methods": {},
    "version": 1
  },
  "userdoc": {
    "kind": "user",
    "methods": {},
    "version": 1
  }
}