{
  "contractName": "PuppyVote",
  "abi": [
    {
      "inputs": [],
      "stateMutability": "nonpayable",
      "type": "constructor"
    },
    {
      "inputs": [
        {
          "internalType": "address",
          "name": "",
          "type": "address"
        }
      ],
      "name": "adopt",
      "outputs": [
        {
          "internalType": "address",
          "name": "ownerAddress",
          "type": "address"
        },
        {
          "internalType": "uint256",
          "name": "numVote",
          "type": "uint256"
        },
        {
          "internalType": "string",
          "name": "puppyName",
          "type": "string"
        },
        {
          "internalType": "string",
          "name": "gender",
          "type": "string"
        },
        {
          "internalType": "string",
          "name": "dateOfBirth",
          "type": "string"
        },
        {
          "internalType": "string",
          "name": "description",
          "type": "string"
        },
        {
          "internalType": "string",
          "name": "dogPicture",
          "type": "string"
        }
      ],
      "stateMutability": "view",
      "type": "function",
      "constant": true
    },
    {
      "inputs": [
        {
          "internalType": "address",
          "name": "",
          "type": "address"
        }
      ],
      "name": "userVoteBalance",
      "outputs": [
        {
          "internalType": "uint256",
          "name": "",
          "type": "uint256"
        }
      ],
      "stateMutability": "view",
      "type": "function",
      "constant": true
    },
    {
      "inputs": [
        {
          "internalType": "uint256",
          "name": "",
          "type": "uint256"
        }
      ],
      "name": "users",
      "outputs": [
        {
          "internalType": "address",
          "name": "userAddress",
          "type": "address"
        }
      ],
      "stateMutability": "view",
      "type": "function",
      "constant": true
    },
    {
      "inputs": [],
      "name": "votePrice",
      "outputs": [
        {
          "internalType": "uint256",
          "name": "",
          "type": "uint256"
        }
      ],
      "stateMutability": "view",
      "type": "function",
      "constant": true
    },
    {
      "inputs": [
        {
          "internalType": "string",
          "name": "_name",
          "type": "string"
        },
        {
          "internalType": "string",
          "name": "_gender",
          "type": "string"
        },
        {
          "internalType": "string",
          "name": "_birthday",
          "type": "string"
        },
        {
          "internalType": "string[]",
          "name": "_tags",
          "type": "string[]"
        },
        {
          "internalType": "string",
          "name": "_description",
          "type": "string"
        },
        {
          "internalType": "string",
          "name": "_dogPicture",
          "type": "string"
        }
      ],
      "name": "createDogProfile",
      "outputs": [],
      "stateMutability": "payable",
      "type": "function",
      "payable": true
    },
    {
      "inputs": [
        {
          "internalType": "uint256",
          "name": "_buyVoteNum",
          "type": "uint256"
        }
      ],
      "name": "buyVote",
      "outputs": [],
      "stateMutability": "payable",
      "type": "function",
      "payable": true
    },
    {
      "inputs": [
        {
          "internalType": "uint256",
          "name": "_cancelVoteNum",
          "type": "uint256"
        }
      ],
      "name": "cancelOrder",
      "outputs": [],
      "stateMutability": "payable",
      "type": "function",
      "payable": true
    },
    {
      "inputs": [
        {
          "internalType": "uint256",
          "name": "_voteNum",
          "type": "uint256"
        },
        {
          "internalType": "string",
          "name": "_dogName",
          "type": "string"
        },
        {
          "internalType": "address",
          "name": "dogOwner",
          "type": "address"
        }
      ],
      "name": "vote",
      "outputs": [],
      "stateMutability": "nonpayable",
      "type": "function"
    },
    {
      "inputs": [],
      "name": "endVote",
      "outputs": [],
      "stateMutability": "payable",
      "type": "function",
      "payable": true
    },
    {
      "inputs": [
        {
          "internalType": "string",
          "name": "_dogName",
          "type": "string"
        }
      ],
      "name": "deleteDogProfile",
      "outputs": [],
      "stateMutability": "nonpayable",
      "type": "function"
    },
    {
      "inputs": [],
      "name": "rank",
      "outputs": [
        {
          "components": [
            {
              "internalType": "address",
              "name": "ownerAddress",
              "type": "address"
            },
            {
              "internalType": "uint256",
              "name": "numVote",
              "type": "uint256"
            },
            {
              "internalType": "string",
              "name": "puppyName",
              "type": "string"
            },
            {
              "internalType": "string",
              "name": "gender",
              "type": "string"
            },
            {
              "internalType": "string",
              "name": "dateOfBirth",
              "type": "string"
            },
            {
              "internalType": "string[]",
              "name": "tags",
              "type": "string[]"
            },
            {
              "internalType": "string",
              "name": "description",
              "type": "string"
            },
            {
              "internalType": "string",
              "name": "dogPicture",
              "type": "string"
            }
          ],
          "internalType": "struct PuppyVote.Dog[]",
          "name": "",
          "type": "tuple[]"
        }
      ],
      "stateMutability": "nonpayable",
      "type": "function"
    },
    {
      "inputs": [],
      "name": "reset",
      "outputs": [],
      "stateMutability": "nonpayable",
      "type": "function"
    },
    {
      "inputs": [],
      "name": "getDogs",
      "outputs": [
        {
          "components": [
            {
              "internalType": "address",
              "name": "ownerAddress",
              "type": "address"
            },
            {
              "internalType": "uint256",
              "name": "numVote",
              "type": "uint256"
            },
            {
              "internalType": "string",
              "name": "puppyName",
              "type": "string"
            },
            {
              "internalType": "string",
              "name": "gender",
              "type": "string"
            },
            {
              "internalType": "string",
              "name": "dateOfBirth",
              "type": "string"
            },
            {
              "internalType": "string[]",
              "name": "tags",
              "type": "string[]"
            },
            {
              "internalType": "string",
              "name": "description",
              "type": "string"
            },
            {
              "internalType": "string",
              "name": "dogPicture",
              "type": "string"
            }
          ],
          "internalType": "struct PuppyVote.Dog[]",
          "name": "",
          "type": "tuple[]"
        }
      ],
      "stateMutability": "view",
      "type": "function",
      "constant": true
    },
    {
      "inputs": [
        {
          "internalType": "uint256",
          "name": "index",
          "type": "uint256"
        }
      ],
      "name": "getDogByIndex",
      "outputs": [
        {
          "internalType": "string",
          "name": "",
          "type": "string"
        },
        {
          "internalType": "string",
          "name": "",
          "type": "string"
        },
        {
          "internalType": "string",
          "name": "",
          "type": "string"
        },
        {
          "internalType": "string[]",
          "name": "",
          "type": "string[]"
        },
        {
          "internalType": "string",
          "name": "",
          "type": "string"
        },
        {
          "internalType": "string",
          "name": "",
          "type": "string"
        }
      ],
      "stateMutability": "view",
      "type": "function",
      "constant": true
    },
    {
      "inputs": [],
      "name": "getLastDogName",
      "outputs": [
        {
          "internalType": "string",
          "name": "",
          "type": "string"
        }
      ],
      "stateMutability": "view",
      "type": "function",
      "constant": true
    },
    {
      "inputs": [],
      "name": "getLastDogVote",
      "outputs": [
        {
          "internalType": "uint256",
          "name": "",
          "type": "uint256"
        }
      ],
      "stateMutability": "view",
      "type": "function",
      "constant": true
    },
    {
      "inputs": [
        {
          "internalType": "address",
          "name": "addr",
          "type": "address"
        }
      ],
      "name": "getUserVote",
      "outputs": [
        {
          "internalType": "uint256",
          "name": "",
          "type": "uint256"
        }
      ],
      "stateMutability": "view",
      "type": "function",
      "constant": true
    },
    {
      "inputs": [
        {
          "internalType": "address",
          "name": "addr",
          "type": "address"
        }
      ],
      "name": "getAdoptDogVote",
      "outputs": [
        {
          "internalType": "uint256",
          "name": "",
          "type": "uint256"
        }
      ],
      "stateMutability": "view",
      "type": "function",
      "constant": true
    },
    {
      "inputs": [],
      "name": "getBalance",
      "outputs": [
        {
          "internalType": "uint256",
          "name": "",
          "type": "uint256"
        }
      ],
      "stateMutability": "view",
      "type": "function",
      "constant": true
    },
    {
      "inputs": [],
      "name": "getAdmin",
      "outputs": [
        {
          "internalType": "address",
          "name": "admin",
          "type": "address"
        }
      ],
      "stateMutability": "view",
      "type": "function",
      "constant": true
    }
  ],
  "bytecode": "0x608060405234801561001057600080fd5b5033600260006101000a81548173ffffffffffffffffffffffffffffffffffffffff021916908373ffffffffffffffffffffffffffffffffffffffff16021790555067016345785d8a0000600581905550614713806100706000396000f3fe60806040526004361061011f5760003560e01c806391da91c2116100a0578063c8b1467a11610064578063c8b1467a146103b9578063cb80ed27146103f6578063d1a3a63414610421578063d4923d4e1461043d578063d826f88f1461047a5761011f565b806391da91c2146102ec578063934209ce146103175780639d08ccb014610342578063aa9460e314610384578063b9223946146103af5761011f565b80634458d62a116100e75780634458d62a1461020e578063514fcac714610237578063616fca9b146102535780636e9960c314610296578063860c851a146102c15761011f565b806310c6be2b1461012457806312065fe014610161578063266dc65f1461018c578063337f611e146101a8578063365b98b2146101d1575b600080fd5b34801561013057600080fd5b5061014b600480360381019061014691906136e9565b610491565b604051610158919061372f565b60405180910390f35b34801561016d57600080fd5b506101766104dc565b604051610183919061372f565b60405180910390f35b6101a660048036038101906101a19190613976565b6104e4565b005b3480156101b457600080fd5b506101cf60048036038101906101ca9190613ad7565b61083b565b005b3480156101dd57600080fd5b506101f860048036038101906101f39190613b46565b610aa4565b6040516102059190613b82565b60405180910390f35b34801561021a57600080fd5b5061023560048036038101906102309190613b9d565b610aee565b005b610251600480360381019061024c9190613b46565b610e15565b005b34801561025f57600080fd5b5061027a600480360381019061027591906136e9565b610f44565b60405161028d9796959493929190613c6e565b60405180910390f35b3480156102a257600080fd5b506102ab61124e565b6040516102b89190613b82565b60405180910390f35b3480156102cd57600080fd5b506102d6611278565b6040516102e3919061372f565b60405180910390f35b3480156102f857600080fd5b5061030161127e565b60405161030e919061372f565b60405180910390f35b34801561032357600080fd5b5061032c6116e0565b6040516103399190613fbf565b60405180910390f35b34801561034e57600080fd5b5061036960048036038101906103649190613b46565b6122d8565b60405161037b96959493929190614067565b60405180910390f35b34801561039057600080fd5b50610399612763565b6040516103a691906140f2565b60405180910390f35b6103b7612bc6565b005b3480156103c557600080fd5b506103e060048036038101906103db91906136e9565b612cdf565b6040516103ed919061372f565b60405180910390f35b34801561040257600080fd5b5061040b612cf7565b6040516104189190613fbf565b60405180910390f35b61043b60048036038101906104369190613b46565b61316a565b005b34801561044957600080fd5b50610464600480360381019061045f91906136e9565b6132a8565b604051610471919061372f565b60405180910390f35b34801561048657600080fd5b5061048f6132f1565b005b60008060008373ffffffffffffffffffffffffffffffffffffffff1673ffffffffffffffffffffffffffffffffffffffff168152602001908152602001600020600101549050919050565b600047905090565b856000815103610529576040517f08c379a000000000000000000000000000000000000000000000000000000000815260040161052090614160565b60405180910390fd5b60055434101561056e576040517f08c379a0000000000000000000000000000000000000000000000000000000008152600401610565906141f2565b60405180910390fd5b60006040518061010001604052803373ffffffffffffffffffffffffffffffffffffffff16815260200160008152602001898152602001888152602001878152602001868152602001858152602001848152509050806000803373ffffffffffffffffffffffffffffffffffffffff1673ffffffffffffffffffffffffffffffffffffffff16815260200190815260200160002060008201518160000160006101000a81548173ffffffffffffffffffffffffffffffffffffffff021916908373ffffffffffffffffffffffffffffffffffffffff16021790555060208201518160010155604082015181600201908051906020019061066f9291906133fa565b50606082015181600301908051906020019061068c9291906133fa565b5060808201518160040190805190602001906106a99291906133fa565b5060a08201518160050190805190602001906106c6929190613480565b5060c08201518160060190805190602001906106e39291906133fa565b5060e08201518160070190805190602001906107009291906133fa565b50905050600481908060018154018082558091505060019003906000526020600020906008020160009091909190915060008201518160000160006101000a81548173ffffffffffffffffffffffffffffffffffffffff021916908373ffffffffffffffffffffffffffffffffffffffff16021790555060208201518160010155604082015181600201908051906020019061079d9291906133fa565b5060608201518160030190805190602001906107ba9291906133fa565b5060808201518160040190805190602001906107d79291906133fa565b5060a08201518160050190805190602001906107f4929190613480565b5060c08201518160060190805190602001906108119291906133fa565b5060e082015181600701908051906020019061082e9291906133fa565b5050505050505050505050565b600160003373ffffffffffffffffffffffffffffffffffffffff1673ffffffffffffffffffffffffffffffffffffffff168152602001908152602001600020548311156108bd576040517f08c379a00000000000000000000000000000000000000000000000000000000081526004016108b490614284565b60405180910390fd5b82600160003373ffffffffffffffffffffffffffffffffffffffff1673ffffffffffffffffffffffffffffffffffffffff168152602001908152602001600020600082825461090c91906142d3565b92505081905550826000808373ffffffffffffffffffffffffffffffffffffffff1673ffffffffffffffffffffffffffffffffffffffff16815260200190815260200160002060010160008282546109649190614307565b925050819055506000600480549050905060005b81811015610a94578273ffffffffffffffffffffffffffffffffffffffff16600482815481106109ab576109aa61435d565b5b906000526020600020906008020160000160009054906101000a900473ffffffffffffffffffffffffffffffffffffffff1673ffffffffffffffffffffffffffffffffffffffff16148015610a3f5750838051906020012060048281548110610a1757610a1661435d565b5b9060005260206000209060080201600201604051610a35919061448b565b6040518091039020145b15610a81578460048281548110610a5957610a5861435d565b5b90600052602060002090600802016001016000828254610a799190614307565b925050819055505b8080610a8c906144a2565b915050610978565b50610a9d6116e0565b5050505050565b60038181548110610ab457600080fd5b906000526020600020016000915090508060000160009054906101000a900473ffffffffffffffffffffffffffffffffffffffff16905081565b6000600480549050905060005b81811015610d56573373ffffffffffffffffffffffffffffffffffffffff1660048281548110610b2e57610b2d61435d565b5b906000526020600020906008020160000160009054906101000a900473ffffffffffffffffffffffffffffffffffffffff1673ffffffffffffffffffffffffffffffffffffffff16148015610bc25750828051906020012060048281548110610b9a57610b9961435d565b5b9060005260206000209060080201600201604051610bb8919061448b565b6040518091039020145b15610d43576004600183610bd691906142d3565b81548110610be757610be661435d565b5b906000526020600020906008020160048281548110610c0957610c0861435d565b5b90600052602060002090600802016000820160009054906101000a900473ffffffffffffffffffffffffffffffffffffffff168160000160006101000a81548173ffffffffffffffffffffffffffffffffffffffff021916908373ffffffffffffffffffffffffffffffffffffffff160217905550600182015481600101556002820181600201908054610c9c906143bb565b610ca79291906134e0565b506003820181600301908054610cbc906143bb565b610cc79291906134e0565b506004820181600401908054610cdc906143bb565b610ce79291906134e0565b506005820181600501908054610cfe92919061356d565b506006820181600601908054610d13906143bb565b610d1e9291906134e0565b506007820181600701908054610d33906143bb565b610d3e9291906134e0565b509050505b8080610d4e906144a2565b915050610afb565b506004805480610d6957610d686144ea565b5b6001900381819060005260206000209060080201600080820160006101000a81549073ffffffffffffffffffffffffffffffffffffffff02191690556001820160009055600282016000610dbd91906135d5565b600382016000610dcd91906135d5565b600482016000610ddd91906135d5565b600582016000610ded9190613615565b600682016000610dfd91906135d5565b600782016000610e0d91906135d5565b505090555050565b600160003373ffffffffffffffffffffffffffffffffffffffff1673ffffffffffffffffffffffffffffffffffffffff16815260200190815260200160002054811115610e97576040517f08c379a0000000000000000000000000000000000000000000000000000000008152600401610e8e9061458b565b60405180910390fd5b80600160003373ffffffffffffffffffffffffffffffffffffffff1673ffffffffffffffffffffffffffffffffffffffff1681526020019081526020016000206000828254610ee691906142d3565b925050819055503373ffffffffffffffffffffffffffffffffffffffff166108fc82600554610f1591906145ab565b9081150290604051600060405180830381858888f19350505050158015610f40573d6000803e3d6000fd5b5050565b60006020528060005260406000206000915090508060000160009054906101000a900473ffffffffffffffffffffffffffffffffffffffff1690806001015490806002018054610f93906143bb565b80601f0160208091040260200160405190810160405280929190818152602001828054610fbf906143bb565b801561100c5780601f10610fe15761010080835404028352916020019161100c565b820191906000526020600020905b815481529060010190602001808311610fef57829003601f168201915b505050505090806003018054611021906143bb565b80601f016020809104026020016040519081016040528092919081815260200182805461104d906143bb565b801561109a5780601f1061106f5761010080835404028352916020019161109a565b820191906000526020600020905b81548152906001019060200180831161107d57829003601f168201915b5050505050908060040180546110af906143bb565b80601f01602080910402602001604051908101604052809291908181526020018280546110db906143bb565b80156111285780601f106110fd57610100808354040283529160200191611128565b820191906000526020600020905b81548152906001019060200180831161110b57829003601f168201915b50505050509080600601805461113d906143bb565b80601f0160208091040260200160405190810160405280929190818152602001828054611169906143bb565b80156111b65780601f1061118b576101008083540402835291602001916111b6565b820191906000526020600020905b81548152906001019060200180831161119957829003601f168201915b5050505050908060070180546111cb906143bb565b80601f01602080910402602001604051908101604052809291908181526020018280546111f7906143bb565b80156112445780601f1061121957610100808354040283529160200191611244565b820191906000526020600020905b81548152906001019060200180831161122757829003601f168201915b5050505050905087565b6000600260009054906101000a900473ffffffffffffffffffffffffffffffffffffffff16905090565b60055481565b6000806004600160048054905061129591906142d3565b815481106112a6576112a561435d565b5b9060005260206000209060080201604051806101000160405290816000820160009054906101000a900473ffffffffffffffffffffffffffffffffffffffff1673ffffffffffffffffffffffffffffffffffffffff1673ffffffffffffffffffffffffffffffffffffffff16815260200160018201548152602001600282018054611330906143bb565b80601f016020809104026020016040519081016040528092919081815260200182805461135c906143bb565b80156113a95780601f1061137e576101008083540402835291602001916113a9565b820191906000526020600020905b81548152906001019060200180831161138c57829003601f168201915b505050505081526020016003820180546113c2906143bb565b80601f01602080910402602001604051908101604052809291908181526020018280546113ee906143bb565b801561143b5780601f106114105761010080835404028352916020019161143b565b820191906000526020600020905b81548152906001019060200180831161141e57829003601f168201915b50505050508152602001600482018054611454906143bb565b80601f0160208091040260200160405190810160405280929190818152602001828054611480906143bb565b80156114cd5780601f106114a2576101008083540402835291602001916114cd565b820191906000526020600020905b8154815290600101906020018083116114b057829003601f168201915b5050505050815260200160058201805480602002602001604051908101604052809291908181526020016000905b828210156115a757838290600052602060002001805461151a906143bb565b80601f0160208091040260200160405190810160405280929190818152602001828054611546906143bb565b80156115935780601f1061156857610100808354040283529160200191611593565b820191906000526020600020905b81548152906001019060200180831161157657829003601f168201915b5050505050815260200190600101906114fb565b5050505081526020016006820180546115bf906143bb565b80601f01602080910402602001604051908101604052809291908181526020018280546115eb906143bb565b80156116385780601f1061160d57610100808354040283529160200191611638565b820191906000526020600020905b81548152906001019060200180831161161b57829003601f168201915b50505050508152602001600782018054611651906143bb565b80601f016020809104026020016040519081016040528092919081815260200182805461167d906143bb565b80156116ca5780601f1061169f576101008083540402835291602001916116ca565b820191906000526020600020905b8154815290600101906020018083116116ad57829003601f168201915b5050505050815250509050806020015191505090565b60606000600480549050905060005b81811015611e655760006001826117069190614307565b90505b82811015611e5157600481815481106117255761172461435d565b5b9060005260206000209060080201600101546004838154811061174b5761174a61435d565b5b9060005260206000209060080201600101541015611e3e576000600482815481106117795761177861435d565b5b9060005260206000209060080201604051806101000160405290816000820160009054906101000a900473ffffffffffffffffffffffffffffffffffffffff1673ffffffffffffffffffffffffffffffffffffffff1673ffffffffffffffffffffffffffffffffffffffff16815260200160018201548152602001600282018054611803906143bb565b80601f016020809104026020016040519081016040528092919081815260200182805461182f906143bb565b801561187c5780601f106118515761010080835404028352916020019161187c565b820191906000526020600020905b81548152906001019060200180831161185f57829003601f168201915b50505050508152602001600382018054611895906143bb565b80601f01602080910402602001604051908101604052809291908181526020018280546118c1906143bb565b801561190e5780601f106118e35761010080835404028352916020019161190e565b820191906000526020600020905b8154815290600101906020018083116118f157829003601f168201915b50505050508152602001600482018054611927906143bb565b80601f0160208091040260200160405190810160405280929190818152602001828054611953906143bb565b80156119a05780601f10611975576101008083540402835291602001916119a0565b820191906000526020600020905b81548152906001019060200180831161198357829003601f168201915b5050505050815260200160058201805480602002602001604051908101604052809291908181526020016000905b82821015611a7a5783829060005260206000200180546119ed906143bb565b80601f0160208091040260200160405190810160405280929190818152602001828054611a19906143bb565b8015611a665780601f10611a3b57610100808354040283529160200191611a66565b820191906000526020600020905b815481529060010190602001808311611a4957829003601f168201915b5050505050815260200190600101906119ce565b505050508152602001600682018054611a92906143bb565b80601f0160208091040260200160405190810160405280929190818152602001828054611abe906143bb565b8015611b0b5780601f10611ae057610100808354040283529160200191611b0b565b820191906000526020600020905b815481529060010190602001808311611aee57829003601f168201915b50505050508152602001600782018054611b24906143bb565b80601f0160208091040260200160405190810160405280929190818152602001828054611b50906143bb565b8015611b9d5780601f10611b7257610100808354040283529160200191611b9d565b820191906000526020600020905b815481529060010190602001808311611b8057829003601f168201915b505050505081525050905060048381548110611bbc57611bbb61435d565b5b906000526020600020906008020160048381548110611bde57611bdd61435d565b5b90600052602060002090600802016000820160009054906101000a900473ffffffffffffffffffffffffffffffffffffffff168160000160006101000a81548173ffffffffffffffffffffffffffffffffffffffff021916908373ffffffffffffffffffffffffffffffffffffffff160217905550600182015481600101556002820181600201908054611c71906143bb565b611c7c9291906134e0565b506003820181600301908054611c91906143bb565b611c9c9291906134e0565b506004820181600401908054611cb1906143bb565b611cbc9291906134e0565b506005820181600501908054611cd392919061356d565b506006820181600601908054611ce8906143bb565b611cf39291906134e0565b506007820181600701908054611d08906143bb565b611d139291906134e0565b509050508060048481548110611d2c57611d2b61435d565b5b906000526020600020906008020160008201518160000160006101000a81548173ffffffffffffffffffffffffffffffffffffffff021916908373ffffffffffffffffffffffffffffffffffffffff160217905550602082015181600101556040820151816002019080519060200190611da79291906133fa565b506060820151816003019080519060200190611dc49291906133fa565b506080820151816004019080519060200190611de19291906133fa565b5060a0820151816005019080519060200190611dfe929190613480565b5060c0820151816006019080519060200190611e1b9291906133fa565b5060e0820151816007019080519060200190611e389291906133fa565b50905050505b8080611e49906144a2565b915050611709565b508080611e5d906144a2565b9150506116ef565b506004805480602002602001604051908101604052809291908181526020016000905b828210156122ce5783829060005260206000209060080201604051806101000160405290816000820160009054906101000a900473ffffffffffffffffffffffffffffffffffffffff1673ffffffffffffffffffffffffffffffffffffffff1673ffffffffffffffffffffffffffffffffffffffff16815260200160018201548152602001600282018054611f1c906143bb565b80601f0160208091040260200160405190810160405280929190818152602001828054611f48906143bb565b8015611f955780601f10611f6a57610100808354040283529160200191611f95565b820191906000526020600020905b815481529060010190602001808311611f7857829003601f168201915b50505050508152602001600382018054611fae906143bb565b80601f0160208091040260200160405190810160405280929190818152602001828054611fda906143bb565b80156120275780601f10611ffc57610100808354040283529160200191612027565b820191906000526020600020905b81548152906001019060200180831161200a57829003601f168201915b50505050508152602001600482018054612040906143bb565b80601f016020809104026020016040519081016040528092919081815260200182805461206c906143bb565b80156120b95780601f1061208e576101008083540402835291602001916120b9565b820191906000526020600020905b81548152906001019060200180831161209c57829003601f168201915b5050505050815260200160058201805480602002602001604051908101604052809291908181526020016000905b82821015612193578382906000526020600020018054612106906143bb565b80601f0160208091040260200160405190810160405280929190818152602001828054612132906143bb565b801561217f5780601f106121545761010080835404028352916020019161217f565b820191906000526020600020905b81548152906001019060200180831161216257829003601f168201915b5050505050815260200190600101906120e7565b5050505081526020016006820180546121ab906143bb565b80601f01602080910402602001604051908101604052809291908181526020018280546121d7906143bb565b80156122245780601f106121f957610100808354040283529160200191612224565b820191906000526020600020905b81548152906001019060200180831161220757829003601f168201915b5050505050815260200160078201805461223d906143bb565b80601f0160208091040260200160405190810160405280929190818152602001828054612269906143bb565b80156122b65780601f1061228b576101008083540402835291602001916122b6565b820191906000526020600020905b81548152906001019060200180831161229957829003601f168201915b50505050508152505081526020019060010190611e88565b5050505091505090565b606080606080606080600487815481106122f5576122f461435d565b5b90600052602060002090600802016002016004888154811061231a5761231961435d565b5b90600052602060002090600802016003016004898154811061233f5761233e61435d565b5b906000526020600020906008020160040160048a815481106123645761236361435d565b5b906000526020600020906008020160050160048b815481106123895761238861435d565b5b906000526020600020906008020160060160048c815481106123ae576123ad61435d565b5b90600052602060002090600802016007018580546123cb906143bb565b80601f01602080910402602001604051908101604052809291908181526020018280546123f7906143bb565b80156124445780601f1061241957610100808354040283529160200191612444565b820191906000526020600020905b81548152906001019060200180831161242757829003601f168201915b50505050509550848054612457906143bb565b80601f0160208091040260200160405190810160405280929190818152602001828054612483906143bb565b80156124d05780601f106124a5576101008083540402835291602001916124d0565b820191906000526020600020905b8154815290600101906020018083116124b357829003601f168201915b505050505094508380546124e3906143bb565b80601f016020809104026020016040519081016040528092919081815260200182805461250f906143bb565b801561255c5780601f106125315761010080835404028352916020019161255c565b820191906000526020600020905b81548152906001019060200180831161253f57829003601f168201915b5050505050935082805480602002602001604051908101604052809291908181526020016000905b828210156126305783829060005260206000200180546125a3906143bb565b80601f01602080910402602001604051908101604052809291908181526020018280546125cf906143bb565b801561261c5780601f106125f15761010080835404028352916020019161261c565b820191906000526020600020905b8154815290600101906020018083116125ff57829003601f168201915b505050505081526020019060010190612584565b505050509250818054612642906143bb565b80601f016020809104026020016040519081016040528092919081815260200182805461266e906143bb565b80156126bb5780601f10612690576101008083540402835291602001916126bb565b820191906000526020600020905b81548152906001019060200180831161269e57829003601f168201915b505050505091508080546126ce906143bb565b80601f01602080910402602001604051908101604052809291908181526020018280546126fa906143bb565b80156127475780601f1061271c57610100808354040283529160200191612747565b820191906000526020600020905b81548152906001019060200180831161272a57829003601f168201915b5050505050905095509550955095509550955091939550919395565b606060006004600160048054905061277b91906142d3565b8154811061278c5761278b61435d565b5b9060005260206000209060080201604051806101000160405290816000820160009054906101000a900473ffffffffffffffffffffffffffffffffffffffff1673ffffffffffffffffffffffffffffffffffffffff1673ffffffffffffffffffffffffffffffffffffffff16815260200160018201548152602001600282018054612816906143bb565b80601f0160208091040260200160405190810160405280929190818152602001828054612842906143bb565b801561288f5780601f106128645761010080835404028352916020019161288f565b820191906000526020600020905b81548152906001019060200180831161287257829003601f168201915b505050505081526020016003820180546128a8906143bb565b80601f01602080910402602001604051908101604052809291908181526020018280546128d4906143bb565b80156129215780601f106128f657610100808354040283529160200191612921565b820191906000526020600020905b81548152906001019060200180831161290457829003601f168201915b5050505050815260200160048201805461293a906143bb565b80601f0160208091040260200160405190810160405280929190818152602001828054612966906143bb565b80156129b35780601f10612988576101008083540402835291602001916129b3565b820191906000526020600020905b81548152906001019060200180831161299657829003601f168201915b5050505050815260200160058201805480602002602001604051908101604052809291908181526020016000905b82821015612a8d578382906000526020600020018054612a00906143bb565b80601f0160208091040260200160405190810160405280929190818152602001828054612a2c906143bb565b8015612a795780601f10612a4e57610100808354040283529160200191612a79565b820191906000526020600020905b815481529060010190602001808311612a5c57829003601f168201915b5050505050815260200190600101906129e1565b505050508152602001600682018054612aa5906143bb565b80601f0160208091040260200160405190810160405280929190818152602001828054612ad1906143bb565b8015612b1e5780601f10612af357610100808354040283529160200191612b1e565b820191906000526020600020905b815481529060010190602001808311612b0157829003601f168201915b50505050508152602001600782018054612b37906143bb565b80601f0160208091040260200160405190810160405280929190818152602001828054612b63906143bb565b8015612bb05780601f10612b8557610100808354040283529160200191612bb0565b820191906000526020600020905b815481529060010190602001808311612b9357829003601f168201915b5050505050815250509050806040015191505090565b600260009054906101000a900473ffffffffffffffffffffffffffffffffffffffff1673ffffffffffffffffffffffffffffffffffffffff163373ffffffffffffffffffffffffffffffffffffffff1614612c56576040517f08c379a0000000000000000000000000000000000000000000000000000000008152600401612c4d90614651565b60405180910390fd5b6000612c606116e0565b9050600081600081518110612c7857612c7761435d565b5b602002602001015190506000816000015190508073ffffffffffffffffffffffffffffffffffffffff166108fc479081150290604051600060405180830381858888f19350505050158015612cd1573d6000803e3d6000fd5b50612cda6132f1565b505050565b60016020528060005260406000206000915090505481565b60606004805480602002602001604051908101604052809291908181526020016000905b828210156131615783829060005260206000209060080201604051806101000160405290816000820160009054906101000a900473ffffffffffffffffffffffffffffffffffffffff1673ffffffffffffffffffffffffffffffffffffffff1673ffffffffffffffffffffffffffffffffffffffff16815260200160018201548152602001600282018054612daf906143bb565b80601f0160208091040260200160405190810160405280929190818152602001828054612ddb906143bb565b8015612e285780601f10612dfd57610100808354040283529160200191612e28565b820191906000526020600020905b815481529060010190602001808311612e0b57829003601f168201915b50505050508152602001600382018054612e41906143bb565b80601f0160208091040260200160405190810160405280929190818152602001828054612e6d906143bb565b8015612eba5780601f10612e8f57610100808354040283529160200191612eba565b820191906000526020600020905b815481529060010190602001808311612e9d57829003601f168201915b50505050508152602001600482018054612ed3906143bb565b80601f0160208091040260200160405190810160405280929190818152602001828054612eff906143bb565b8015612f4c5780601f10612f2157610100808354040283529160200191612f4c565b820191906000526020600020905b815481529060010190602001808311612f2f57829003601f168201915b5050505050815260200160058201805480602002602001604051908101604052809291908181526020016000905b82821015613026578382906000526020600020018054612f99906143bb565b80601f0160208091040260200160405190810160405280929190818152602001828054612fc5906143bb565b80156130125780601f10612fe757610100808354040283529160200191613012565b820191906000526020600020905b815481529060010190602001808311612ff557829003601f168201915b505050505081526020019060010190612f7a565b50505050815260200160068201805461303e906143bb565b80601f016020809104026020016040519081016040528092919081815260200182805461306a906143bb565b80156130b75780601f1061308c576101008083540402835291602001916130b7565b820191906000526020600020905b81548152906001019060200180831161309a57829003601f168201915b505050505081526020016007820180546130d0906143bb565b80601f01602080910402602001604051908101604052809291908181526020018280546130fc906143bb565b80156131495780601f1061311e57610100808354040283529160200191613149565b820191906000526020600020905b81548152906001019060200180831161312c57829003601f168201915b50505050508152505081526020019060010190612d1b565b50505050905090565b600360405180602001604052803373ffffffffffffffffffffffffffffffffffffffff168152509080600181540180825580915050600190039060005260206000200160009091909190915060008201518160000160006101000a81548173ffffffffffffffffffffffffffffffffffffffff021916908373ffffffffffffffffffffffffffffffffffffffff16021790555050506005548161320d91906145ab565b34101561324f576040517f08c379a0000000000000000000000000000000000000000000000000000000008152600401613246906146bd565b60405180910390fd5b80600160003373ffffffffffffffffffffffffffffffffffffffff1673ffffffffffffffffffffffffffffffffffffffff168152602001908152602001600020600082825461329e9190614307565b9250508190555050565b6000600160008373ffffffffffffffffffffffffffffffffffffffff1673ffffffffffffffffffffffffffffffffffffffff168152602001908152602001600020549050919050565b6000600480549050905060005b818110156133445760006004828154811061331c5761331b61435d565b5b906000526020600020906008020160010181905550808061333c906144a2565b9150506132fe565b506000600380549050905060005b818110156133f5576000806000600384815481106133735761337261435d565b5b9060005260206000200160000160009054906101000a900473ffffffffffffffffffffffffffffffffffffffff1673ffffffffffffffffffffffffffffffffffffffff1673ffffffffffffffffffffffffffffffffffffffff1681526020019081526020016000206001018190555080806133ed906144a2565b915050613352565b505050565b828054613406906143bb565b90600052602060002090601f016020900481019282613428576000855561346f565b82601f1061344157805160ff191683800117855561346f565b8280016001018555821561346f579182015b8281111561346e578251825591602001919060010190613453565b5b50905061347c9190613636565b5090565b8280548282559060005260206000209081019282156134cf579160200282015b828111156134ce5782518290805190602001906134be9291906133fa565b50916020019190600101906134a0565b5b5090506134dc9190613653565b5090565b8280546134ec906143bb565b90600052602060002090601f01602090048101928261350e576000855561355c565b82601f1061351f578054855561355c565b8280016001018555821561355c57600052602060002091601f016020900482015b8281111561355b578254825591600101919060010190613540565b5b5090506135699190613636565b5090565b8280548282559060005260206000209081019282156135c45760005260206000209182015b828111156135c35782829080546135a8906143bb565b6135b39291906134e0565b5091600101919060010190613592565b5b5090506135d19190613653565b5090565b5080546135e1906143bb565b6000825580601f106135f35750613612565b601f0160209004906000526020600020908101906136119190613636565b5b50565b50805460008255906000526020600020908101906136339190613653565b50565b5b8082111561364f576000816000905550600101613637565b5090565b5b80821115613673576000818161366a91906135d5565b50600101613654565b5090565b6000604051905090565b600080fd5b600080fd5b600073ffffffffffffffffffffffffffffffffffffffff82169050919050565b60006136b68261368b565b9050919050565b6136c6816136ab565b81146136d157600080fd5b50565b6000813590506136e3816136bd565b92915050565b6000602082840312156136ff576136fe613681565b5b600061370d848285016136d4565b91505092915050565b6000819050919050565b61372981613716565b82525050565b60006020820190506137446000830184613720565b92915050565b600080fd5b600080fd5b6000601f19601f8301169050919050565b7f4e487b7100000000000000000000000000000000000000000000000000000000600052604160045260246000fd5b61379d82613754565b810181811067ffffffffffffffff821117156137bc576137bb613765565b5b80604052505050565b60006137cf613677565b90506137db8282613794565b919050565b600067ffffffffffffffff8211156137fb576137fa613765565b5b61380482613754565b9050602081019050919050565b82818337600083830152505050565b600061383361382e846137e0565b6137c5565b90508281526020810184848401111561384f5761384e61374f565b5b61385a848285613811565b509392505050565b600082601f8301126138775761387661374a565b5b8135613887848260208601613820565b91505092915050565b600067ffffffffffffffff8211156138ab576138aa613765565b5b602082029050602081019050919050565b600080fd5b60006138d46138cf84613890565b6137c5565b905080838252602082019050602084028301858111156138f7576138f66138bc565b5b835b8181101561393e57803567ffffffffffffffff81111561391c5761391b61374a565b5b8086016139298982613862565b855260208501945050506020810190506138f9565b5050509392505050565b600082601f83011261395d5761395c61374a565b5b813561396d8482602086016138c1565b91505092915050565b60008060008060008060c0878903121561399357613992613681565b5b600087013567ffffffffffffffff8111156139b1576139b0613686565b5b6139bd89828a01613862565b965050602087013567ffffffffffffffff8111156139de576139dd613686565b5b6139ea89828a01613862565b955050604087013567ffffffffffffffff811115613a0b57613a0a613686565b5b613a1789828a01613862565b945050606087013567ffffffffffffffff811115613a3857613a37613686565b5b613a4489828a01613948565b935050608087013567ffffffffffffffff811115613a6557613a64613686565b5b613a7189828a01613862565b92505060a087013567ffffffffffffffff811115613a9257613a91613686565b5b613a9e89828a01613862565b9150509295509295509295565b613ab481613716565b8114613abf57600080fd5b50565b600081359050613ad181613aab565b92915050565b600080600060608486031215613af057613aef613681565b5b6000613afe86828701613ac2565b935050602084013567ffffffffffffffff811115613b1f57613b1e613686565b5b613b2b86828701613862565b9250506040613b3c868287016136d4565b9150509250925092565b600060208284031215613b5c57613b5b613681565b5b6000613b6a84828501613ac2565b91505092915050565b613b7c816136ab565b82525050565b6000602082019050613b976000830184613b73565b92915050565b600060208284031215613bb357613bb2613681565b5b600082013567ffffffffffffffff811115613bd157613bd0613686565b5b613bdd84828501613862565b91505092915050565b600081519050919050565b600082825260208201905092915050565b60005b83811015613c20578082015181840152602081019050613c05565b83811115613c2f576000848401525b50505050565b6000613c4082613be6565b613c4a8185613bf1565b9350613c5a818560208601613c02565b613c6381613754565b840191505092915050565b600060e082019050613c83600083018a613b73565b613c906020830189613720565b8181036040830152613ca28188613c35565b90508181036060830152613cb68187613c35565b90508181036080830152613cca8186613c35565b905081810360a0830152613cde8185613c35565b905081810360c0830152613cf28184613c35565b905098975050505050505050565b600081519050919050565b600082825260208201905092915050565b6000819050602082019050919050565b613d35816136ab565b82525050565b613d4481613716565b82525050565b600082825260208201905092915050565b6000613d6682613be6565b613d708185613d4a565b9350613d80818560208601613c02565b613d8981613754565b840191505092915050565b600081519050919050565b600082825260208201905092915050565b6000819050602082019050919050565b6000613dcc8383613d5b565b905092915050565b6000602082019050919050565b6000613dec82613d94565b613df68185613d9f565b935083602082028501613e0885613db0565b8060005b85811015613e445784840389528151613e258582613dc0565b9450613e3083613dd4565b925060208a01995050600181019050613e0c565b50829750879550505050505092915050565b600061010083016000830151613e6f6000860182613d2c565b506020830151613e826020860182613d3b565b5060408301518482036040860152613e9a8282613d5b565b91505060608301518482036060860152613eb48282613d5b565b91505060808301518482036080860152613ece8282613d5b565b91505060a083015184820360a0860152613ee88282613de1565b91505060c083015184820360c0860152613f028282613d5b565b91505060e083015184820360e0860152613f1c8282613d5b565b9150508091505092915050565b6000613f358383613e56565b905092915050565b6000602082019050919050565b6000613f5582613d00565b613f5f8185613d0b565b935083602082028501613f7185613d1c565b8060005b85811015613fad5784840389528151613f8e8582613f29565b9450613f9983613f3d565b925060208a01995050600181019050613f75565b50829750879550505050505092915050565b60006020820190508181036000830152613fd98184613f4a565b905092915050565b600082825260208201905092915050565b6000613ffd82613d94565b6140078185613fe1565b93508360208202850161401985613db0565b8060005b8581101561405557848403895281516140368582613dc0565b945061404183613dd4565b925060208a0199505060018101905061401d565b50829750879550505050505092915050565b600060c08201905081810360008301526140818189613c35565b905081810360208301526140958188613c35565b905081810360408301526140a98187613c35565b905081810360608301526140bd8186613ff2565b905081810360808301526140d18185613c35565b905081810360a08301526140e58184613c35565b9050979650505050505050565b6000602082019050818103600083015261410c8184613c35565b905092915050565b7f446f67206e616d652063616e206e6f7420626520656d70747921000000000000600082015250565b600061414a601a83613bf1565b915061415582614114565b602082019050919050565b600060208201905081810360008301526141798161413d565b9050919050565b7f4e6f7420656e6f756768206d6f6e657920746f20637265617465206120646f6760008201527f2070726f66696c65000000000000000000000000000000000000000000000000602082015250565b60006141dc602883613bf1565b91506141e782614180565b604082019050919050565b6000602082019050818103600083015261420b816141cf565b9050919050565b7f596f752063616e277420766f7465206d6f726520766f746573207468616e207960008201527f6f75206861766521000000000000000000000000000000000000000000000000602082015250565b600061426e602883613bf1565b915061427982614212565b604082019050919050565b6000602082019050818103600083015261429d81614261565b9050919050565b7f4e487b7100000000000000000000000000000000000000000000000000000000600052601160045260246000fd5b60006142de82613716565b91506142e983613716565b9250828210156142fc576142fb6142a4565b5b828203905092915050565b600061431282613716565b915061431d83613716565b9250827fffffffffffffffffffffffffffffffffffffffffffffffffffffffffffffffff03821115614352576143516142a4565b5b828201905092915050565b7f4e487b7100000000000000000000000000000000000000000000000000000000600052603260045260246000fd5b7f4e487b7100000000000000000000000000000000000000000000000000000000600052602260045260246000fd5b600060028204905060018216806143d357607f821691505b6020821081036143e6576143e561438c565b5b50919050565b600081905092915050565b60008190508160005260206000209050919050565b60008154614419816143bb565b61442381866143ec565b9450600182166000811461443e576001811461444f57614482565b60ff19831686528186019350614482565b614458856143f7565b60005b8381101561447a5781548189015260018201915060208101905061445b565b838801955050505b50505092915050565b6000614497828461440c565b915081905092915050565b60006144ad82613716565b91507fffffffffffffffffffffffffffffffffffffffffffffffffffffffffffffffff82036144df576144de6142a4565b5b600182019050919050565b7f4e487b7100000000000000000000000000000000000000000000000000000000600052603160045260246000fd5b7f7265717565737465642063616e63656c20766f7465732065786365656465642060008201527f74686520746f74616c20766f74657320617661696c61626c6500000000000000602082015250565b6000614575603983613bf1565b915061458082614519565b604082019050919050565b600060208201905081810360008301526145a481614568565b9050919050565b60006145b682613716565b91506145c183613716565b9250817fffffffffffffffffffffffffffffffffffffffffffffffffffffffffffffffff04831182151516156145fa576145f96142a4565b5b828202905092915050565b7f6f6e6c79207468652061646d696e2063616e20656e6420766f74650000000000600082015250565b600061463b601b83613bf1565b915061464682614605565b602082019050919050565b6000602082019050818103600083015261466a8161462e565b9050919050565b7f4e6f7420656e6f756768206d6f6e657920746f20627579206120766f74650000600082015250565b60006146a7601e83613bf1565b91506146b282614671565b602082019050919050565b600060208201905081810360008301526146d68161469a565b905091905056fea264697066735822122082edd064bea4538a5e4f12a648be873742a95f77b8e5ffaaa909ee5727b8401364736f6c634300080d0033",
  "immutableReferences": {},
  "source": "//SPDX-License-Identifier: MIT\npragma solidity ^0.8.0;\n\ncontract PuppyVote{\n\n    struct User{\n        address userAddress; \n    } \n    \n    struct Dog{\n        address ownerAddress; \n        uint numVote;\n        string puppyName;\n        string gender;\n        string dateOfBirth;\n        string[] tags;\n        string description;\n        string dogPicture;\n    }\n\n    mapping(address => Dog) public adopt;   // a user has a dog\n    mapping(address => uint256) public userVoteBalance;// the number of votes user has confirmed\n    \n    address owner;\n    User[] public users;\n    Dog[] dogs;\n    \n    uint public votePrice;\n\n    constructor() {\n        owner = msg.sender;\n        votePrice = 100000000000000000; // 0.1 ether\n    }\n\n    modifier notEmpty (string memory _input) {\n        require(bytes(_input).length!= 0, \"Dog name can not be empty!\");\n        _;\n    }\n\n    function createDogProfile(string memory _name, string memory _gender, string memory _birthday, string[] memory _tags, string memory _description, string memory _dogPicture) public payable notEmpty (_name){\n        //users.push(User(msg.sender)); \n        //get info from web \n        require(msg.value >= votePrice, \"Not enough money to create a dog profile\"); //transfer to sc addr by default\n        Dog memory newDog = Dog(msg.sender, 0, _name, _gender, _birthday, _tags, _description, _dogPicture);\n        adopt[msg.sender] = newDog;\n        dogs.push(newDog);\n    }\n    \n    // there should be some input protection in the front end\n    function buyVote(uint256 _buyVoteNum) public payable{\n        users.push(User(msg.sender));\n        require(msg.value >= _buyVoteNum * votePrice, \"Not enough money to buy a vote\"); //transfer to sc addr by default\n        userVoteBalance[msg.sender] += _buyVoteNum;\n        //payable(owner).transfer(_buyVoteNum * votePrice);\n        // addressshg(this): the address of the smart contract\n        //transferMoney(address(this), _buyVoteNum);\n        //bool flag = payable(address(this)).send(100000000000000000);\n        //require(flag == true, \"failure of sending the money\");\n        \n        //payable(address(this)).transfer(votePrice);\n    }\n\n    function cancelOrder(uint256 _cancelVoteNum) public payable{\n        require(_cancelVoteNum <= userVoteBalance[msg.sender], \"requested cancel votes exceeded the total votes available\");\n        userVoteBalance[msg.sender] -= _cancelVoteNum;\n        payable(msg.sender).transfer(votePrice * _cancelVoteNum);\n    }\n\n    // to: get the money, source of pain\n    // function transferMoney(address _to, uint256 _voteNum) public payable returns (bool success) {\n    //     require(msg.value >= _voteNum * votePrice, \"Not enough ether\");\n    //     payable(_to).transfer(_voteNum * votePrice);\n    //     return true;\n    // }\n\n    function vote(uint256 _voteNum, string memory _dogName, address dogOwner) public{\n        require(_voteNum <= userVoteBalance[msg.sender], \"You can't vote more votes than you have!\");\n        userVoteBalance[msg.sender] -= _voteNum;\n        adopt[dogOwner].numVote += _voteNum;//update dog's vote\n        uint256 l = dogs.length;\n        for (uint i = 0; i < l; i++) {\n            if(dogs[i].ownerAddress == dogOwner && keccak256(bytes(dogs[i].puppyName)) == keccak256(bytes(_dogName))) {\n                dogs[i].numVote += _voteNum;\n            }\n        }\n        rank();//update leader board\n    }\n\n    // calculate the winner, and return money to the winner\n    function endVote() public payable{\n        require(msg.sender == owner, \"only the admin can end vote\");\n        Dog[] memory result = rank();\n        // the winning dog\n        Dog memory winningDog = result[0];\n        address winner = winningDog.ownerAddress;\n        payable(winner).transfer(address(this).balance);\n        //payable(owner).transfer(address(this).balance);//transfer money back to owner\n        reset();\n    }\n\n    function deleteDogProfile(string memory _dogName) public {\n            uint256 l = dogs.length;\n            for (uint i = 0; i < l; i++){\n                if(dogs[i].ownerAddress == msg.sender && keccak256(bytes(dogs[i].puppyName)) == keccak256(bytes(_dogName))){\n                    dogs[i] = dogs[l - 1];\n                }\n            }\n            dogs.pop();\n    }\n\n    function rank() public returns (Dog[] memory){\n        uint256 l = dogs.length;\n        for (uint i = 0; i < l; i++) {\n            for (uint j = i + 1; j < l; j++) {\n                if(dogs[i].numVote < dogs[j].numVote){\n                    Dog memory tmp = dogs[j];\n                    dogs[j] = dogs[i];\n                    dogs[i] = tmp;\n                }\n            }\n        }\n        return dogs;\n    }\n\n    function reset() public {\n        uint256 l = dogs.length;\n        for (uint i = 0; i < l; i++) {\n            dogs[i].numVote=0;//reset to zero\n        }\n        uint256 len = users.length;\n\n        for (uint i = 0; i < len; i++) {\n            adopt[users[i].userAddress].numVote=0;//reset to zero\n        }\n    }\n    \n    function getDogs() public view returns (Dog[] memory) {\n        return dogs;\n    }\n\n    function getDogByIndex(uint index) public view returns(string memory, string memory, string memory, string[] memory, string memory, string memory) {\n        return (dogs[index].puppyName, dogs[index].gender, dogs[index].dateOfBirth, dogs[index].tags, dogs[index].description, dogs[index].dogPicture);\n    }\n\n    function getLastDogName() public view returns (string memory) {\n        Dog memory dog = dogs[dogs.length-1];\n        return dog.puppyName;\n    }\n\n    function getLastDogVote() public view returns (uint256) {\n        Dog memory dog = dogs[dogs.length-1];\n        return dog.numVote;\n    }\n\n    function getUserVote(address addr) public view returns (uint256 ) {\n        return userVoteBalance[addr];\n    }\n\n    function getAdoptDogVote(address addr) public view returns (uint256 ) {\n        return adopt[addr].numVote;\n    }\n\n       //get balance\n    function getBalance() public view returns (uint) {\n        return address(this).balance;\n    }\n\n    function getAdmin() public view returns (address admin) {\n        return owner;\n    }\n}",
  "sourcePath": "/Users/miley/Desktop/571G/571G_Project/my-app/src/contracts/PuppyVote.sol",
  "compiler": {
    "name": "solc",
    "version": "0.8.13+commit.abaa5c0e.Emscripten.clang"
  },
  "schemaVersion": "3.4.6",
  "updatedAt": "2022-04-09T19:08:13.893Z",
  "networkType": "ethereum",
  "devdoc": {
    "kind": "dev",
    "methods": {},
    "version": 1
  },
  "userdoc": {
    "kind": "user",
    "methods": {},
    "version": 1
  }
}