{
  "contractName": "PuppyVote",
  "abi": [
    {
      "inputs": [],
      "stateMutability": "nonpayable",
      "type": "constructor"
    },
    {
      "inputs": [
        {
          "internalType": "address",
          "name": "",
          "type": "address"
        }
      ],
      "name": "adopt",
      "outputs": [
        {
          "internalType": "address",
          "name": "ownerAddress",
          "type": "address"
        },
        {
          "internalType": "uint256",
          "name": "numVote",
          "type": "uint256"
        },
        {
          "internalType": "string",
          "name": "puppyName",
          "type": "string"
        },
        {
          "internalType": "string",
          "name": "gender",
          "type": "string"
        },
        {
          "internalType": "string",
          "name": "dateOfBirth",
          "type": "string"
        },
        {
          "internalType": "string",
          "name": "description",
          "type": "string"
        }
      ],
      "stateMutability": "view",
      "type": "function",
      "constant": true
    },
    {
      "inputs": [
        {
          "internalType": "address",
          "name": "",
          "type": "address"
        }
      ],
      "name": "userVoteBalance",
      "outputs": [
        {
          "internalType": "uint256",
          "name": "",
          "type": "uint256"
        }
      ],
      "stateMutability": "view",
      "type": "function",
      "constant": true
    },
    {
      "inputs": [
        {
          "internalType": "uint256",
          "name": "",
          "type": "uint256"
        }
      ],
      "name": "users",
      "outputs": [
        {
          "internalType": "address",
          "name": "userAddress",
          "type": "address"
        }
      ],
      "stateMutability": "view",
      "type": "function",
      "constant": true
    },
    {
      "inputs": [],
      "name": "votePrice",
      "outputs": [
        {
          "internalType": "uint256",
          "name": "",
          "type": "uint256"
        }
      ],
      "stateMutability": "view",
      "type": "function",
      "constant": true
    },
    {
      "inputs": [
        {
          "internalType": "string",
          "name": "_name",
          "type": "string"
        },
        {
          "internalType": "string",
          "name": "_gender",
          "type": "string"
        },
        {
          "internalType": "string",
          "name": "_birthday",
          "type": "string"
        },
        {
          "internalType": "string[]",
          "name": "_tags",
          "type": "string[]"
        },
        {
          "internalType": "string",
          "name": "_description",
          "type": "string"
        }
      ],
      "name": "createDogProfile",
      "outputs": [],
      "stateMutability": "nonpayable",
      "type": "function"
    },
    {
      "inputs": [
        {
          "internalType": "uint256",
          "name": "_buyVoteNum",
          "type": "uint256"
        }
      ],
      "name": "buyVote",
      "outputs": [],
      "stateMutability": "payable",
      "type": "function",
      "payable": true
    },
    {
      "inputs": [
        {
          "internalType": "uint256",
          "name": "_cancelVoteNum",
          "type": "uint256"
        }
      ],
      "name": "cancelOrder",
      "outputs": [],
      "stateMutability": "payable",
      "type": "function",
      "payable": true
    },
    {
      "inputs": [
        {
          "internalType": "uint256",
          "name": "_voteNum",
          "type": "uint256"
        },
        {
          "internalType": "address",
          "name": "dogOwner",
          "type": "address"
        }
      ],
      "name": "vote",
      "outputs": [],
      "stateMutability": "nonpayable",
      "type": "function"
    },
    {
      "inputs": [],
      "name": "endVote",
      "outputs": [],
      "stateMutability": "payable",
      "type": "function",
      "payable": true
    },
    {
      "inputs": [],
      "name": "rank",
      "outputs": [
        {
          "components": [
            {
              "internalType": "address",
              "name": "ownerAddress",
              "type": "address"
            },
            {
              "internalType": "uint256",
              "name": "numVote",
              "type": "uint256"
            },
            {
              "internalType": "string",
              "name": "puppyName",
              "type": "string"
            },
            {
              "internalType": "string",
              "name": "gender",
              "type": "string"
            },
            {
              "internalType": "string",
              "name": "dateOfBirth",
              "type": "string"
            },
            {
              "internalType": "string[]",
              "name": "tags",
              "type": "string[]"
            },
            {
              "internalType": "string",
              "name": "description",
              "type": "string"
            }
          ],
          "internalType": "struct PuppyVote.Dog[]",
          "name": "",
          "type": "tuple[]"
        }
      ],
      "stateMutability": "nonpayable",
      "type": "function"
    },
    {
      "inputs": [],
      "name": "reset",
      "outputs": [],
      "stateMutability": "nonpayable",
      "type": "function"
    },
    {
      "inputs": [],
      "name": "getDogs",
      "outputs": [
        {
          "components": [
            {
              "internalType": "address",
              "name": "ownerAddress",
              "type": "address"
            },
            {
              "internalType": "uint256",
              "name": "numVote",
              "type": "uint256"
            },
            {
              "internalType": "string",
              "name": "puppyName",
              "type": "string"
            },
            {
              "internalType": "string",
              "name": "gender",
              "type": "string"
            },
            {
              "internalType": "string",
              "name": "dateOfBirth",
              "type": "string"
            },
            {
              "internalType": "string[]",
              "name": "tags",
              "type": "string[]"
            },
            {
              "internalType": "string",
              "name": "description",
              "type": "string"
            }
          ],
          "internalType": "struct PuppyVote.Dog[]",
          "name": "",
          "type": "tuple[]"
        }
      ],
      "stateMutability": "view",
      "type": "function",
      "constant": true
    },
    {
      "inputs": [],
      "name": "getLastDogName",
      "outputs": [
        {
          "internalType": "string",
          "name": "",
          "type": "string"
        }
      ],
      "stateMutability": "view",
      "type": "function",
      "constant": true
    },
    {
      "inputs": [],
      "name": "getLastDogVote",
      "outputs": [
        {
          "internalType": "uint256",
          "name": "",
          "type": "uint256"
        }
      ],
      "stateMutability": "view",
      "type": "function",
      "constant": true
    },
    {
      "inputs": [
        {
          "internalType": "address",
          "name": "addr",
          "type": "address"
        }
      ],
      "name": "getUserVote",
      "outputs": [
        {
          "internalType": "uint256",
          "name": "",
          "type": "uint256"
        }
      ],
      "stateMutability": "view",
      "type": "function",
      "constant": true
    },
    {
      "inputs": [
        {
          "internalType": "address",
          "name": "addr",
          "type": "address"
        }
      ],
      "name": "getAdoptDogVote",
      "outputs": [
        {
          "internalType": "uint256",
          "name": "",
          "type": "uint256"
        }
      ],
      "stateMutability": "view",
      "type": "function",
      "constant": true
    },
    {
      "inputs": [],
      "name": "getBalance",
      "outputs": [
        {
          "internalType": "uint256",
          "name": "",
          "type": "uint256"
        }
      ],
      "stateMutability": "view",
      "type": "function",
      "constant": true
    }
  ],
  "bytecode": "0x608060405234801561001057600080fd5b5033600260006101000a81548173ffffffffffffffffffffffffffffffffffffffff021916908373ffffffffffffffffffffffffffffffffffffffff16021790555067016345785d8a00006005819055506135b0806100706000396000f3fe6080604052600436106100fe5760003560e01c8063934209ce11610095578063c8b1467a11610064578063c8b1467a1461030e578063cb80ed271461034b578063d1a3a63414610376578063d4923d4e14610392578063d826f88f146103cf576100fe565b8063934209ce14610285578063aa15852a146102b0578063aa9460e3146102d9578063b922394614610304576100fe565b8063514fcac7116100d1578063514fcac7146101d1578063616fca9b146101ed578063860c851a1461022f57806391da91c21461025a576100fe565b806302d947ef1461010357806310c6be2b1461012c57806312065fe014610169578063365b98b214610194575b600080fd5b34801561010f57600080fd5b5061012a6004803603810190610125919061291a565b6103e6565b005b34801561013857600080fd5b50610153600480360381019061014e919061295a565b610523565b6040516101609190612996565b60405180910390f35b34801561017557600080fd5b5061017e61056e565b60405161018b9190612996565b60405180910390f35b3480156101a057600080fd5b506101bb60048036038101906101b691906129b1565b610576565b6040516101c891906129ed565b60405180910390f35b6101eb60048036038101906101e691906129b1565b6105c0565b005b3480156101f957600080fd5b50610214600480360381019061020f919061295a565b6106ef565b60405161022696959493929190612aa1565b60405180910390f35b34801561023b57600080fd5b5061024461096b565b6040516102519190612996565b60405180910390f35b34801561026657600080fd5b5061026f610971565b60405161027c9190612996565b60405180910390f35b34801561029157600080fd5b5061029a610d40565b6040516102a79190612dc2565b60405180910390f35b3480156102bc57600080fd5b506102d760048036038101906102d29190612fff565b6117d5565b005b3480156102e557600080fd5b506102ee611aa5565b6040516102fb9190613106565b60405180910390f35b61030c611e75565b005b34801561031a57600080fd5b506103356004803603810190610330919061295a565b611f8e565b6040516103429190612996565b60405180910390f35b34801561035757600080fd5b50610360611fa6565b60405161036d9190612dc2565b60405180910390f35b610390600480360381019061038b91906129b1565b612386565b005b34801561039e57600080fd5b506103b960048036038101906103b4919061295a565b6124c4565b6040516103c69190612996565b60405180910390f35b3480156103db57600080fd5b506103e461250d565b005b600160003373ffffffffffffffffffffffffffffffffffffffff1673ffffffffffffffffffffffffffffffffffffffff16815260200190815260200160002054821115610468576040517f08c379a000000000000000000000000000000000000000000000000000000000815260040161045f9061319a565b60405180910390fd5b81600160003373ffffffffffffffffffffffffffffffffffffffff1673ffffffffffffffffffffffffffffffffffffffff16815260200190815260200160002060008282546104b791906131e9565b92505081905550816000808373ffffffffffffffffffffffffffffffffffffffff1673ffffffffffffffffffffffffffffffffffffffff168152602001908152602001600020600101600082825461050f919061321d565b9250508190555061051e610d40565b505050565b60008060008373ffffffffffffffffffffffffffffffffffffffff1673ffffffffffffffffffffffffffffffffffffffff168152602001908152602001600020600101549050919050565b600047905090565b6003818154811061058657600080fd5b906000526020600020016000915090508060000160009054906101000a900473ffffffffffffffffffffffffffffffffffffffff16905081565b600160003373ffffffffffffffffffffffffffffffffffffffff1673ffffffffffffffffffffffffffffffffffffffff16815260200190815260200160002054811115610642576040517f08c379a0000000000000000000000000000000000000000000000000000000008152600401610639906132e5565b60405180910390fd5b80600160003373ffffffffffffffffffffffffffffffffffffffff1673ffffffffffffffffffffffffffffffffffffffff168152602001908152602001600020600082825461069191906131e9565b925050819055503373ffffffffffffffffffffffffffffffffffffffff166108fc826005546106c09190613305565b9081150290604051600060405180830381858888f193505050501580156106eb573d6000803e3d6000fd5b5050565b60006020528060005260406000206000915090508060000160009054906101000a900473ffffffffffffffffffffffffffffffffffffffff169080600101549080600201805461073e9061338e565b80601f016020809104026020016040519081016040528092919081815260200182805461076a9061338e565b80156107b75780601f1061078c576101008083540402835291602001916107b7565b820191906000526020600020905b81548152906001019060200180831161079a57829003601f168201915b5050505050908060030180546107cc9061338e565b80601f01602080910402602001604051908101604052809291908181526020018280546107f89061338e565b80156108455780601f1061081a57610100808354040283529160200191610845565b820191906000526020600020905b81548152906001019060200180831161082857829003601f168201915b50505050509080600401805461085a9061338e565b80601f01602080910402602001604051908101604052809291908181526020018280546108869061338e565b80156108d35780601f106108a8576101008083540402835291602001916108d3565b820191906000526020600020905b8154815290600101906020018083116108b657829003601f168201915b5050505050908060060180546108e89061338e565b80601f01602080910402602001604051908101604052809291908181526020018280546109149061338e565b80156109615780601f1061093657610100808354040283529160200191610961565b820191906000526020600020905b81548152906001019060200180831161094457829003601f168201915b5050505050905086565b60055481565b6000806004600160048054905061098891906131e9565b81548110610999576109986133bf565b5b90600052602060002090600702016040518060e00160405290816000820160009054906101000a900473ffffffffffffffffffffffffffffffffffffffff1673ffffffffffffffffffffffffffffffffffffffff1673ffffffffffffffffffffffffffffffffffffffff16815260200160018201548152602001600282018054610a229061338e565b80601f0160208091040260200160405190810160405280929190818152602001828054610a4e9061338e565b8015610a9b5780601f10610a7057610100808354040283529160200191610a9b565b820191906000526020600020905b815481529060010190602001808311610a7e57829003601f168201915b50505050508152602001600382018054610ab49061338e565b80601f0160208091040260200160405190810160405280929190818152602001828054610ae09061338e565b8015610b2d5780601f10610b0257610100808354040283529160200191610b2d565b820191906000526020600020905b815481529060010190602001808311610b1057829003601f168201915b50505050508152602001600482018054610b469061338e565b80601f0160208091040260200160405190810160405280929190818152602001828054610b729061338e565b8015610bbf5780601f10610b9457610100808354040283529160200191610bbf565b820191906000526020600020905b815481529060010190602001808311610ba257829003601f168201915b5050505050815260200160058201805480602002602001604051908101604052809291908181526020016000905b82821015610c99578382906000526020600020018054610c0c9061338e565b80601f0160208091040260200160405190810160405280929190818152602001828054610c389061338e565b8015610c855780601f10610c5a57610100808354040283529160200191610c85565b820191906000526020600020905b815481529060010190602001808311610c6857829003601f168201915b505050505081526020019060010190610bed565b505050508152602001600682018054610cb19061338e565b80601f0160208091040260200160405190810160405280929190818152602001828054610cdd9061338e565b8015610d2a5780601f10610cff57610100808354040283529160200191610d2a565b820191906000526020600020905b815481529060010190602001808311610d0d57829003601f168201915b5050505050815250509050806020015191505090565b60606000600480549050905060005b818110156113f5576000600182610d66919061321d565b90505b828110156113e15760048181548110610d8557610d846133bf565b5b90600052602060002090600702016001015460048381548110610dab57610daa6133bf565b5b90600052602060002090600702016001015410156113ce57600060048281548110610dd957610dd86133bf565b5b90600052602060002090600702016040518060e00160405290816000820160009054906101000a900473ffffffffffffffffffffffffffffffffffffffff1673ffffffffffffffffffffffffffffffffffffffff1673ffffffffffffffffffffffffffffffffffffffff16815260200160018201548152602001600282018054610e629061338e565b80601f0160208091040260200160405190810160405280929190818152602001828054610e8e9061338e565b8015610edb5780601f10610eb057610100808354040283529160200191610edb565b820191906000526020600020905b815481529060010190602001808311610ebe57829003601f168201915b50505050508152602001600382018054610ef49061338e565b80601f0160208091040260200160405190810160405280929190818152602001828054610f209061338e565b8015610f6d5780601f10610f4257610100808354040283529160200191610f6d565b820191906000526020600020905b815481529060010190602001808311610f5057829003601f168201915b50505050508152602001600482018054610f869061338e565b80601f0160208091040260200160405190810160405280929190818152602001828054610fb29061338e565b8015610fff5780601f10610fd457610100808354040283529160200191610fff565b820191906000526020600020905b815481529060010190602001808311610fe257829003601f168201915b5050505050815260200160058201805480602002602001604051908101604052809291908181526020016000905b828210156110d957838290600052602060002001805461104c9061338e565b80601f01602080910402602001604051908101604052809291908181526020018280546110789061338e565b80156110c55780601f1061109a576101008083540402835291602001916110c5565b820191906000526020600020905b8154815290600101906020018083116110a857829003601f168201915b50505050508152602001906001019061102d565b5050505081526020016006820180546110f19061338e565b80601f016020809104026020016040519081016040528092919081815260200182805461111d9061338e565b801561116a5780601f1061113f5761010080835404028352916020019161116a565b820191906000526020600020905b81548152906001019060200180831161114d57829003601f168201915b505050505081525050905060048381548110611189576111886133bf565b5b9060005260206000209060070201600483815481106111ab576111aa6133bf565b5b90600052602060002090600702016000820160009054906101000a900473ffffffffffffffffffffffffffffffffffffffff168160000160006101000a81548173ffffffffffffffffffffffffffffffffffffffff021916908373ffffffffffffffffffffffffffffffffffffffff16021790555060018201548160010155600282018160020190805461123e9061338e565b611249929190612616565b50600382018160030190805461125e9061338e565b611269929190612616565b50600482018160040190805461127e9061338e565b611289929190612616565b5060058201816005019080546112a09291906126a3565b5060068201816006019080546112b59061338e565b6112c0929190612616565b5090505080600484815481106112d9576112d86133bf565b5b906000526020600020906007020160008201518160000160006101000a81548173ffffffffffffffffffffffffffffffffffffffff021916908373ffffffffffffffffffffffffffffffffffffffff16021790555060208201518160010155604082015181600201908051906020019061135492919061270b565b50606082015181600301908051906020019061137192919061270b565b50608082015181600401908051906020019061138e92919061270b565b5060a08201518160050190805190602001906113ab929190612791565b5060c08201518160060190805190602001906113c892919061270b565b50905050505b80806113d9906133ee565b915050610d69565b5080806113ed906133ee565b915050610d4f565b506004805480602002602001604051908101604052809291908181526020016000905b828210156117cb57838290600052602060002090600702016040518060e00160405290816000820160009054906101000a900473ffffffffffffffffffffffffffffffffffffffff1673ffffffffffffffffffffffffffffffffffffffff1673ffffffffffffffffffffffffffffffffffffffff168152602001600182015481526020016002820180546114ab9061338e565b80601f01602080910402602001604051908101604052809291908181526020018280546114d79061338e565b80156115245780601f106114f957610100808354040283529160200191611524565b820191906000526020600020905b81548152906001019060200180831161150757829003601f168201915b5050505050815260200160038201805461153d9061338e565b80601f01602080910402602001604051908101604052809291908181526020018280546115699061338e565b80156115b65780601f1061158b576101008083540402835291602001916115b6565b820191906000526020600020905b81548152906001019060200180831161159957829003601f168201915b505050505081526020016004820180546115cf9061338e565b80601f01602080910402602001604051908101604052809291908181526020018280546115fb9061338e565b80156116485780601f1061161d57610100808354040283529160200191611648565b820191906000526020600020905b81548152906001019060200180831161162b57829003601f168201915b5050505050815260200160058201805480602002602001604051908101604052809291908181526020016000905b828210156117225783829060005260206000200180546116959061338e565b80601f01602080910402602001604051908101604052809291908181526020018280546116c19061338e565b801561170e5780601f106116e35761010080835404028352916020019161170e565b820191906000526020600020905b8154815290600101906020018083116116f157829003601f168201915b505050505081526020019060010190611676565b50505050815260200160068201805461173a9061338e565b80601f01602080910402602001604051908101604052809291908181526020018280546117669061338e565b80156117b35780601f10611788576101008083540402835291602001916117b3565b820191906000526020600020905b81548152906001019060200180831161179657829003601f168201915b50505050508152505081526020019060010190611418565b5050505091505090565b84600081510361181a576040517f08c379a000000000000000000000000000000000000000000000000000000000815260040161181190613482565b60405180910390fd5b60006040518060e001604052803373ffffffffffffffffffffffffffffffffffffffff16815260200160008152602001888152602001878152602001868152602001858152602001848152509050806000803373ffffffffffffffffffffffffffffffffffffffff1673ffffffffffffffffffffffffffffffffffffffff16815260200190815260200160002060008201518160000160006101000a81548173ffffffffffffffffffffffffffffffffffffffff021916908373ffffffffffffffffffffffffffffffffffffffff16021790555060208201518160010155604082015181600201908051906020019061191492919061270b565b50606082015181600301908051906020019061193192919061270b565b50608082015181600401908051906020019061194e92919061270b565b5060a082015181600501908051906020019061196b929190612791565b5060c082015181600601908051906020019061198892919061270b565b50905050600481908060018154018082558091505060019003906000526020600020906007020160009091909190915060008201518160000160006101000a81548173ffffffffffffffffffffffffffffffffffffffff021916908373ffffffffffffffffffffffffffffffffffffffff160217905550602082015181600101556040820151816002019080519060200190611a2592919061270b565b506060820151816003019080519060200190611a4292919061270b565b506080820151816004019080519060200190611a5f92919061270b565b5060a0820151816005019080519060200190611a7c929190612791565b5060c0820151816006019080519060200190611a9992919061270b565b50505050505050505050565b6060600060046001600480549050611abd91906131e9565b81548110611ace57611acd6133bf565b5b90600052602060002090600702016040518060e00160405290816000820160009054906101000a900473ffffffffffffffffffffffffffffffffffffffff1673ffffffffffffffffffffffffffffffffffffffff1673ffffffffffffffffffffffffffffffffffffffff16815260200160018201548152602001600282018054611b579061338e565b80601f0160208091040260200160405190810160405280929190818152602001828054611b839061338e565b8015611bd05780601f10611ba557610100808354040283529160200191611bd0565b820191906000526020600020905b815481529060010190602001808311611bb357829003601f168201915b50505050508152602001600382018054611be99061338e565b80601f0160208091040260200160405190810160405280929190818152602001828054611c159061338e565b8015611c625780601f10611c3757610100808354040283529160200191611c62565b820191906000526020600020905b815481529060010190602001808311611c4557829003601f168201915b50505050508152602001600482018054611c7b9061338e565b80601f0160208091040260200160405190810160405280929190818152602001828054611ca79061338e565b8015611cf45780601f10611cc957610100808354040283529160200191611cf4565b820191906000526020600020905b815481529060010190602001808311611cd757829003601f168201915b5050505050815260200160058201805480602002602001604051908101604052809291908181526020016000905b82821015611dce578382906000526020600020018054611d419061338e565b80601f0160208091040260200160405190810160405280929190818152602001828054611d6d9061338e565b8015611dba5780601f10611d8f57610100808354040283529160200191611dba565b820191906000526020600020905b815481529060010190602001808311611d9d57829003601f168201915b505050505081526020019060010190611d22565b505050508152602001600682018054611de69061338e565b80601f0160208091040260200160405190810160405280929190818152602001828054611e129061338e565b8015611e5f5780601f10611e3457610100808354040283529160200191611e5f565b820191906000526020600020905b815481529060010190602001808311611e4257829003601f168201915b5050505050815250509050806040015191505090565b600260009054906101000a900473ffffffffffffffffffffffffffffffffffffffff1673ffffffffffffffffffffffffffffffffffffffff163373ffffffffffffffffffffffffffffffffffffffff1614611f05576040517f08c379a0000000000000000000000000000000000000000000000000000000008152600401611efc906134ee565b60405180910390fd5b6000611f0f610d40565b9050600081600081518110611f2757611f266133bf565b5b602002602001015190506000816000015190508073ffffffffffffffffffffffffffffffffffffffff166108fc479081150290604051600060405180830381858888f19350505050158015611f80573d6000803e3d6000fd5b50611f8961250d565b505050565b60016020528060005260406000206000915090505481565b60606004805480602002602001604051908101604052809291908181526020016000905b8282101561237d57838290600052602060002090600702016040518060e00160405290816000820160009054906101000a900473ffffffffffffffffffffffffffffffffffffffff1673ffffffffffffffffffffffffffffffffffffffff1673ffffffffffffffffffffffffffffffffffffffff1681526020016001820154815260200160028201805461205d9061338e565b80601f01602080910402602001604051908101604052809291908181526020018280546120899061338e565b80156120d65780601f106120ab576101008083540402835291602001916120d6565b820191906000526020600020905b8154815290600101906020018083116120b957829003601f168201915b505050505081526020016003820180546120ef9061338e565b80601f016020809104026020016040519081016040528092919081815260200182805461211b9061338e565b80156121685780601f1061213d57610100808354040283529160200191612168565b820191906000526020600020905b81548152906001019060200180831161214b57829003601f168201915b505050505081526020016004820180546121819061338e565b80601f01602080910402602001604051908101604052809291908181526020018280546121ad9061338e565b80156121fa5780601f106121cf576101008083540402835291602001916121fa565b820191906000526020600020905b8154815290600101906020018083116121dd57829003601f168201915b5050505050815260200160058201805480602002602001604051908101604052809291908181526020016000905b828210156122d45783829060005260206000200180546122479061338e565b80601f01602080910402602001604051908101604052809291908181526020018280546122739061338e565b80156122c05780601f10612295576101008083540402835291602001916122c0565b820191906000526020600020905b8154815290600101906020018083116122a357829003601f168201915b505050505081526020019060010190612228565b5050505081526020016006820180546122ec9061338e565b80601f01602080910402602001604051908101604052809291908181526020018280546123189061338e565b80156123655780601f1061233a57610100808354040283529160200191612365565b820191906000526020600020905b81548152906001019060200180831161234857829003601f168201915b50505050508152505081526020019060010190611fca565b50505050905090565b600360405180602001604052803373ffffffffffffffffffffffffffffffffffffffff168152509080600181540180825580915050600190039060005260206000200160009091909190915060008201518160000160006101000a81548173ffffffffffffffffffffffffffffffffffffffff021916908373ffffffffffffffffffffffffffffffffffffffff1602179055505050600554816124299190613305565b34101561246b576040517f08c379a00000000000000000000000000000000000000000000000000000000081526004016124629061355a565b60405180910390fd5b80600160003373ffffffffffffffffffffffffffffffffffffffff1673ffffffffffffffffffffffffffffffffffffffff16815260200190815260200160002060008282546124ba919061321d565b9250508190555050565b6000600160008373ffffffffffffffffffffffffffffffffffffffff1673ffffffffffffffffffffffffffffffffffffffff168152602001908152602001600020549050919050565b6000600480549050905060005b8181101561256057600060048281548110612538576125376133bf565b5b9060005260206000209060070201600101819055508080612558906133ee565b91505061251a565b506000600380549050905060005b818110156126115760008060006003848154811061258f5761258e6133bf565b5b9060005260206000200160000160009054906101000a900473ffffffffffffffffffffffffffffffffffffffff1673ffffffffffffffffffffffffffffffffffffffff1673ffffffffffffffffffffffffffffffffffffffff168152602001908152602001600020600101819055508080612609906133ee565b91505061256e565b505050565b8280546126229061338e565b90600052602060002090601f0160209004810192826126445760008555612692565b82601f106126555780548555612692565b8280016001018555821561269257600052602060002091601f016020900482015b82811115612691578254825591600101919060010190612676565b5b50905061269f91906127f1565b5090565b8280548282559060005260206000209081019282156126fa5760005260206000209182015b828111156126f95782829080546126de9061338e565b6126e9929190612616565b50916001019190600101906126c8565b5b509050612707919061280e565b5090565b8280546127179061338e565b90600052602060002090601f0160209004810192826127395760008555612780565b82601f1061275257805160ff1916838001178555612780565b82800160010185558215612780579182015b8281111561277f578251825591602001919060010190612764565b5b50905061278d91906127f1565b5090565b8280548282559060005260206000209081019282156127e0579160200282015b828111156127df5782518290805190602001906127cf92919061270b565b50916020019190600101906127b1565b5b5090506127ed919061280e565b5090565b5b8082111561280a5760008160009055506001016127f2565b5090565b5b8082111561282e57600081816128259190612832565b5060010161280f565b5090565b50805461283e9061338e565b6000825580601f10612850575061286f565b601f01602090049060005260206000209081019061286e91906127f1565b5b50565b6000604051905090565b600080fd5b600080fd5b6000819050919050565b61289981612886565b81146128a457600080fd5b50565b6000813590506128b681612890565b92915050565b600073ffffffffffffffffffffffffffffffffffffffff82169050919050565b60006128e7826128bc565b9050919050565b6128f7816128dc565b811461290257600080fd5b50565b600081359050612914816128ee565b92915050565b600080604083850312156129315761293061287c565b5b600061293f858286016128a7565b925050602061295085828601612905565b9150509250929050565b6000602082840312156129705761296f61287c565b5b600061297e84828501612905565b91505092915050565b61299081612886565b82525050565b60006020820190506129ab6000830184612987565b92915050565b6000602082840312156129c7576129c661287c565b5b60006129d5848285016128a7565b91505092915050565b6129e7816128dc565b82525050565b6000602082019050612a0260008301846129de565b92915050565b600081519050919050565b600082825260208201905092915050565b60005b83811015612a42578082015181840152602081019050612a27565b83811115612a51576000848401525b50505050565b6000601f19601f8301169050919050565b6000612a7382612a08565b612a7d8185612a13565b9350612a8d818560208601612a24565b612a9681612a57565b840191505092915050565b600060c082019050612ab660008301896129de565b612ac36020830188612987565b8181036040830152612ad58187612a68565b90508181036060830152612ae98186612a68565b90508181036080830152612afd8185612a68565b905081810360a0830152612b118184612a68565b9050979650505050505050565b600081519050919050565b600082825260208201905092915050565b6000819050602082019050919050565b612b53816128dc565b82525050565b612b6281612886565b82525050565b600082825260208201905092915050565b6000612b8482612a08565b612b8e8185612b68565b9350612b9e818560208601612a24565b612ba781612a57565b840191505092915050565b600081519050919050565b600082825260208201905092915050565b6000819050602082019050919050565b6000612bea8383612b79565b905092915050565b6000602082019050919050565b6000612c0a82612bb2565b612c148185612bbd565b935083602082028501612c2685612bce565b8060005b85811015612c625784840389528151612c438582612bde565b9450612c4e83612bf2565b925060208a01995050600181019050612c2a565b50829750879550505050505092915050565b600060e083016000830151612c8c6000860182612b4a565b506020830151612c9f6020860182612b59565b5060408301518482036040860152612cb78282612b79565b91505060608301518482036060860152612cd18282612b79565b91505060808301518482036080860152612ceb8282612b79565b91505060a083015184820360a0860152612d058282612bff565b91505060c083015184820360c0860152612d1f8282612b79565b9150508091505092915050565b6000612d388383612c74565b905092915050565b6000602082019050919050565b6000612d5882612b1e565b612d628185612b29565b935083602082028501612d7485612b3a565b8060005b85811015612db05784840389528151612d918582612d2c565b9450612d9c83612d40565b925060208a01995050600181019050612d78565b50829750879550505050505092915050565b60006020820190508181036000830152612ddc8184612d4d565b905092915050565b600080fd5b600080fd5b7f4e487b7100000000000000000000000000000000000000000000000000000000600052604160045260246000fd5b612e2682612a57565b810181811067ffffffffffffffff82111715612e4557612e44612dee565b5b80604052505050565b6000612e58612872565b9050612e648282612e1d565b919050565b600067ffffffffffffffff821115612e8457612e83612dee565b5b612e8d82612a57565b9050602081019050919050565b82818337600083830152505050565b6000612ebc612eb784612e69565b612e4e565b905082815260208101848484011115612ed857612ed7612de9565b5b612ee3848285612e9a565b509392505050565b600082601f830112612f0057612eff612de4565b5b8135612f10848260208601612ea9565b91505092915050565b600067ffffffffffffffff821115612f3457612f33612dee565b5b602082029050602081019050919050565b600080fd5b6000612f5d612f5884612f19565b612e4e565b90508083825260208201905060208402830185811115612f8057612f7f612f45565b5b835b81811015612fc757803567ffffffffffffffff811115612fa557612fa4612de4565b5b808601612fb28982612eeb565b85526020850194505050602081019050612f82565b5050509392505050565b600082601f830112612fe657612fe5612de4565b5b8135612ff6848260208601612f4a565b91505092915050565b600080600080600060a0868803121561301b5761301a61287c565b5b600086013567ffffffffffffffff81111561303957613038612881565b5b61304588828901612eeb565b955050602086013567ffffffffffffffff81111561306657613065612881565b5b61307288828901612eeb565b945050604086013567ffffffffffffffff81111561309357613092612881565b5b61309f88828901612eeb565b935050606086013567ffffffffffffffff8111156130c0576130bf612881565b5b6130cc88828901612fd1565b925050608086013567ffffffffffffffff8111156130ed576130ec612881565b5b6130f988828901612eeb565b9150509295509295909350565b600060208201905081810360008301526131208184612a68565b905092915050565b7f596f752063616e277420766f7465206d6f726520766f746573207468616e207960008201527f6f75206861766521000000000000000000000000000000000000000000000000602082015250565b6000613184602883612a13565b915061318f82613128565b604082019050919050565b600060208201905081810360008301526131b381613177565b9050919050565b7f4e487b7100000000000000000000000000000000000000000000000000000000600052601160045260246000fd5b60006131f482612886565b91506131ff83612886565b925082821015613212576132116131ba565b5b828203905092915050565b600061322882612886565b915061323383612886565b9250827fffffffffffffffffffffffffffffffffffffffffffffffffffffffffffffffff03821115613268576132676131ba565b5b828201905092915050565b7f7265717565737465642063616e63656c20766f7465732065786365656465642060008201527f74686520746f74616c20766f74657320617661696c61626c6500000000000000602082015250565b60006132cf603983612a13565b91506132da82613273565b604082019050919050565b600060208201905081810360008301526132fe816132c2565b9050919050565b600061331082612886565b915061331b83612886565b9250817fffffffffffffffffffffffffffffffffffffffffffffffffffffffffffffffff0483118215151615613354576133536131ba565b5b828202905092915050565b7f4e487b7100000000000000000000000000000000000000000000000000000000600052602260045260246000fd5b600060028204905060018216806133a657607f821691505b6020821081036133b9576133b861335f565b5b50919050565b7f4e487b7100000000000000000000000000000000000000000000000000000000600052603260045260246000fd5b60006133f982612886565b91507fffffffffffffffffffffffffffffffffffffffffffffffffffffffffffffffff820361342b5761342a6131ba565b5b600182019050919050565b7f446f67206e616d652063616e206e6f7420626520656d70747921000000000000600082015250565b600061346c601a83612a13565b915061347782613436565b602082019050919050565b6000602082019050818103600083015261349b8161345f565b9050919050565b7f6f6e6c79207468652061646d696e2063616e20656e6420766f74650000000000600082015250565b60006134d8601b83612a13565b91506134e3826134a2565b602082019050919050565b60006020820190508181036000830152613507816134cb565b9050919050565b7f4e6f7420656e6f756768206d6f6e657900000000000000000000000000000000600082015250565b6000613544601083612a13565b915061354f8261350e565b602082019050919050565b6000602082019050818103600083015261357381613537565b905091905056fea264697066735822122002258ce08c331b9d48f219eb6617baca9cf7c71074be888f726de16732e7667964736f6c634300080d0033",
  "immutableReferences": {},
  "source": "//SPDX-License-Identifier: MIT\npragma solidity ^0.8.0;\n\ncontract PuppyVote{\n\n    struct User{\n        address userAddress; \n    } \n    \n    struct Dog{\n        address ownerAddress; \n        uint numVote;\n        string puppyName;\n        string gender;\n        string dateOfBirth;\n        string[] tags;\n        string description;\n        // one variable for picture \n        // string dogPicture;\n    }\n\n    mapping(address => Dog) public adopt;   // a user has a dog\n    mapping(address => uint256) public userVoteBalance;// the number of votes user has confirmed\n    \n    address owner;\n    User[] public users;\n    Dog[] dogs;\n    \n    uint public votePrice;\n\n    constructor() {\n        owner = msg.sender;\n        votePrice = 100000000000000000; // 0.1 ether\n    }\n\n    modifier notEmpty (string memory _input) {\n        require(bytes(_input).length!= 0, \"Dog name can not be empty!\");\n        _;\n    }\n\n    function createDogProfile(string memory _name, string memory _gender, string memory _birthday, string[] memory _tags, string memory _description) public notEmpty (_name){\n        //users.push(User(msg.sender)); \n        //get info from web \n        Dog memory newDog = Dog(msg.sender, 0, _name, _gender, _birthday, _tags, _description);\n        adopt[msg.sender] = newDog;\n        dogs.push(newDog);\n    }\n    \n    // there should be some input protection in the front end\n    function buyVote(uint256 _buyVoteNum) public payable{\n        users.push(User(msg.sender));\n        require(msg.value >= _buyVoteNum * votePrice, \"Not enough money\"); //transfer to sc addr by default\n        userVoteBalance[msg.sender] += _buyVoteNum;\n        //payable(owner).transfer(_buyVoteNum * votePrice);\n        // addressshg(this): the address of the smart contract\n        //transferMoney(address(this), _buyVoteNum);\n        //bool flag = payable(address(this)).send(100000000000000000);\n        //require(flag == true, \"failure of sending the money\");\n        \n        //payable(address(this)).transfer(votePrice);\n    }\n\n    function cancelOrder(uint256 _cancelVoteNum) public payable{\n        require(_cancelVoteNum <= userVoteBalance[msg.sender], \"requested cancel votes exceeded the total votes available\");\n        userVoteBalance[msg.sender] -= _cancelVoteNum;\n        payable(msg.sender).transfer(votePrice * _cancelVoteNum);\n    }\n\n    // to: get the money, source of pain\n    // function transferMoney(address _to, uint256 _voteNum) public payable returns (bool success) {\n    //     require(msg.value >= _voteNum * votePrice, \"Not enough ether\");\n    //     payable(_to).transfer(_voteNum * votePrice);\n    //     return true;\n    // }\n\n    function vote(uint256 _voteNum, address dogOwner) public{\n        require(_voteNum <= userVoteBalance[msg.sender], \"You can't vote more votes than you have!\");\n        userVoteBalance[msg.sender] -= _voteNum;\n        adopt[dogOwner].numVote += _voteNum;//update dog's vote\n        rank();//update leader board\n        // need to update\n    }\n\n    // calculate the winner, and return money to the winner\n    function endVote() public payable{\n        require(msg.sender == owner, \"only the admin can end vote\");\n        Dog[] memory result = rank();\n        // the winning dog\n        Dog memory winningDog = result[0];\n        address winner = winningDog.ownerAddress;\n        payable(winner).transfer(address(this).balance);\n        //payable(owner).transfer(address(this).balance);//transfer money back to owner\n        reset();\n    }\n\n    function rank() public returns (Dog[] memory){\n        uint256 l = dogs.length;\n        for (uint i = 0; i < l; i++) {\n            for (uint j = i + 1; j < l; j++) {\n                if(dogs[i].numVote < dogs[j].numVote){\n                    Dog memory tmp = dogs[j];\n                    dogs[j] = dogs[i];\n                    dogs[i] = tmp;\n                }\n            }\n        }\n        return dogs;\n    }\n\n    function reset() public {\n        uint256 l = dogs.length;\n        for (uint i = 0; i < l; i++) {\n            dogs[i].numVote=0;//reset to zero\n        }\n        uint256 len = users.length;\n\n        for (uint i = 0; i < len; i++) {\n            adopt[users[i].userAddress].numVote=0;//reset to zero\n        }\n    }\n    \n    function getDogs() public view returns (Dog[] memory) {\n        return dogs;\n    }\n\n    function getLastDogName() public view returns (string memory) {\n        Dog memory dog = dogs[dogs.length-1];\n        return dog.puppyName;\n    }\n\n    function getLastDogVote() public view returns (uint256) {\n        Dog memory dog = dogs[dogs.length-1];\n        return dog.numVote;\n    }\n\n    function getUserVote(address addr) public view returns (uint256 ) {\n        return userVoteBalance[addr];\n    }\n\n    function getAdoptDogVote(address addr) public view returns (uint256 ) {\n        return adopt[addr].numVote;\n    }\n\n       //get balance\n    function getBalance() public view returns (uint) {\n        return address(this).balance;\n    }\n}\n",
  "sourcePath": "/Users/miley/Desktop/571G/571G_Project/my-app/src/contracts/PuppyVote.sol",
  "compiler": {
    "name": "solc",
    "version": "0.8.13+commit.abaa5c0e.Emscripten.clang"
  },
  "schemaVersion": "3.4.6",
  "updatedAt": "2022-04-03T01:42:51.086Z",
  "networkType": "ethereum",
  "devdoc": {
    "kind": "dev",
    "methods": {},
    "version": 1
  },
  "userdoc": {
    "kind": "user",
    "methods": {},
    "version": 1
  }
}