{
  "contractName": "PuppyVote",
  "abi": [
    {
      "inputs": [],
      "stateMutability": "nonpayable",
      "type": "constructor"
    },
    {
      "inputs": [
        {
          "internalType": "address",
          "name": "",
          "type": "address"
        }
      ],
      "name": "adopt",
      "outputs": [
        {
          "internalType": "address",
          "name": "ownerAddress",
          "type": "address"
        },
        {
          "internalType": "uint256",
          "name": "numVote",
          "type": "uint256"
        },
        {
          "internalType": "string",
          "name": "puppyName",
          "type": "string"
        },
        {
          "internalType": "string",
          "name": "gender",
          "type": "string"
        },
        {
          "internalType": "string",
          "name": "dateOfBirth",
          "type": "string"
        },
        {
          "internalType": "string",
          "name": "description",
          "type": "string"
        },
        {
          "internalType": "string",
          "name": "dogPicture",
          "type": "string"
        }
      ],
      "stateMutability": "view",
      "type": "function",
      "constant": true
    },
    {
      "inputs": [
        {
          "internalType": "address",
          "name": "",
          "type": "address"
        }
      ],
      "name": "userVoteBalance",
      "outputs": [
        {
          "internalType": "uint256",
          "name": "",
          "type": "uint256"
        }
      ],
      "stateMutability": "view",
      "type": "function",
      "constant": true
    },
    {
      "inputs": [
        {
          "internalType": "uint256",
          "name": "",
          "type": "uint256"
        }
      ],
      "name": "users",
      "outputs": [
        {
          "internalType": "address",
          "name": "userAddress",
          "type": "address"
        }
      ],
      "stateMutability": "view",
      "type": "function",
      "constant": true
    },
    {
      "inputs": [],
      "name": "votePrice",
      "outputs": [
        {
          "internalType": "uint256",
          "name": "",
          "type": "uint256"
        }
      ],
      "stateMutability": "view",
      "type": "function",
      "constant": true
    },
    {
      "inputs": [
        {
          "internalType": "string",
          "name": "_name",
          "type": "string"
        },
        {
          "internalType": "string",
          "name": "_gender",
          "type": "string"
        },
        {
          "internalType": "string",
          "name": "_birthday",
          "type": "string"
        },
        {
          "internalType": "string[]",
          "name": "_tags",
          "type": "string[]"
        },
        {
          "internalType": "string",
          "name": "_description",
          "type": "string"
        },
        {
          "internalType": "string",
          "name": "_dogPicture",
          "type": "string"
        }
      ],
      "name": "createDogProfile",
      "outputs": [],
      "stateMutability": "payable",
      "type": "function",
      "payable": true
    },
    {
      "inputs": [
        {
          "internalType": "uint256",
          "name": "_buyVoteNum",
          "type": "uint256"
        }
      ],
      "name": "buyVote",
      "outputs": [],
      "stateMutability": "payable",
      "type": "function",
      "payable": true
    },
    {
      "inputs": [
        {
          "internalType": "uint256",
          "name": "_cancelVoteNum",
          "type": "uint256"
        }
      ],
      "name": "cancelOrder",
      "outputs": [],
      "stateMutability": "payable",
      "type": "function",
      "payable": true
    },
    {
      "inputs": [
        {
          "internalType": "uint256",
          "name": "_voteNum",
          "type": "uint256"
        },
        {
          "internalType": "address",
          "name": "dogOwner",
          "type": "address"
        }
      ],
      "name": "vote",
      "outputs": [],
      "stateMutability": "nonpayable",
      "type": "function"
    },
    {
      "inputs": [],
      "name": "endVote",
      "outputs": [],
      "stateMutability": "payable",
      "type": "function",
      "payable": true
    },
    {
      "inputs": [],
      "name": "rank",
      "outputs": [
        {
          "components": [
            {
              "internalType": "address",
              "name": "ownerAddress",
              "type": "address"
            },
            {
              "internalType": "uint256",
              "name": "numVote",
              "type": "uint256"
            },
            {
              "internalType": "string",
              "name": "puppyName",
              "type": "string"
            },
            {
              "internalType": "string",
              "name": "gender",
              "type": "string"
            },
            {
              "internalType": "string",
              "name": "dateOfBirth",
              "type": "string"
            },
            {
              "internalType": "string[]",
              "name": "tags",
              "type": "string[]"
            },
            {
              "internalType": "string",
              "name": "description",
              "type": "string"
            },
            {
              "internalType": "string",
              "name": "dogPicture",
              "type": "string"
            }
          ],
          "internalType": "struct PuppyVote.Dog[]",
          "name": "",
          "type": "tuple[]"
        }
      ],
      "stateMutability": "nonpayable",
      "type": "function"
    },
    {
      "inputs": [],
      "name": "reset",
      "outputs": [],
      "stateMutability": "nonpayable",
      "type": "function"
    },
    {
      "inputs": [],
      "name": "getDogs",
      "outputs": [
        {
          "components": [
            {
              "internalType": "address",
              "name": "ownerAddress",
              "type": "address"
            },
            {
              "internalType": "uint256",
              "name": "numVote",
              "type": "uint256"
            },
            {
              "internalType": "string",
              "name": "puppyName",
              "type": "string"
            },
            {
              "internalType": "string",
              "name": "gender",
              "type": "string"
            },
            {
              "internalType": "string",
              "name": "dateOfBirth",
              "type": "string"
            },
            {
              "internalType": "string[]",
              "name": "tags",
              "type": "string[]"
            },
            {
              "internalType": "string",
              "name": "description",
              "type": "string"
            },
            {
              "internalType": "string",
              "name": "dogPicture",
              "type": "string"
            }
          ],
          "internalType": "struct PuppyVote.Dog[]",
          "name": "",
          "type": "tuple[]"
        }
      ],
      "stateMutability": "view",
      "type": "function",
      "constant": true
    },
    {
      "inputs": [
        {
          "internalType": "uint256",
          "name": "index",
          "type": "uint256"
        }
      ],
      "name": "getDogByIndex",
      "outputs": [
        {
          "internalType": "string",
          "name": "",
          "type": "string"
        },
        {
          "internalType": "string",
          "name": "",
          "type": "string"
        },
        {
          "internalType": "string",
          "name": "",
          "type": "string"
        },
        {
          "internalType": "string[]",
          "name": "",
          "type": "string[]"
        },
        {
          "internalType": "string",
          "name": "",
          "type": "string"
        },
        {
          "internalType": "string",
          "name": "",
          "type": "string"
        }
      ],
      "stateMutability": "view",
      "type": "function",
      "constant": true
    },
    {
      "inputs": [],
      "name": "getLastDogName",
      "outputs": [
        {
          "internalType": "string",
          "name": "",
          "type": "string"
        }
      ],
      "stateMutability": "view",
      "type": "function",
      "constant": true
    },
    {
      "inputs": [],
      "name": "getLastDogVote",
      "outputs": [
        {
          "internalType": "uint256",
          "name": "",
          "type": "uint256"
        }
      ],
      "stateMutability": "view",
      "type": "function",
      "constant": true
    },
    {
      "inputs": [
        {
          "internalType": "address",
          "name": "addr",
          "type": "address"
        }
      ],
      "name": "getUserVote",
      "outputs": [
        {
          "internalType": "uint256",
          "name": "",
          "type": "uint256"
        }
      ],
      "stateMutability": "view",
      "type": "function",
      "constant": true
    },
    {
      "inputs": [
        {
          "internalType": "address",
          "name": "addr",
          "type": "address"
        }
      ],
      "name": "getAdoptDogVote",
      "outputs": [
        {
          "internalType": "uint256",
          "name": "",
          "type": "uint256"
        }
      ],
      "stateMutability": "view",
      "type": "function",
      "constant": true
    },
    {
      "inputs": [],
      "name": "getBalance",
      "outputs": [
        {
          "internalType": "uint256",
          "name": "",
          "type": "uint256"
        }
      ],
      "stateMutability": "view",
      "type": "function",
      "constant": true
    }
  ],
  "bytecode": "0x608060405234801561001057600080fd5b5033600260006101000a81548173ffffffffffffffffffffffffffffffffffffffff021916908373ffffffffffffffffffffffffffffffffffffffff16021790555067016345785d8a00006005819055506140ae806100706000396000f3fe6080604052600436106101095760003560e01c8063934209ce11610095578063c8b1467a11610064578063c8b1467a1461034f578063cb80ed271461038c578063d1a3a634146103b7578063d4923d4e146103d3578063d826f88f1461041057610109565b8063934209ce146102ad5780639d08ccb0146102d8578063aa9460e31461031a578063b92239461461034557610109565b8063365b98b2116100dc578063365b98b2146101bb578063514fcac7146101f8578063616fca9b14610214578063860c851a1461025757806391da91c21461028257610109565b806302d947ef1461010e57806310c6be2b1461013757806312065fe014610174578063266dc65f1461019f575b600080fd5b34801561011a57600080fd5b5061013560048036038101906101309190613217565b610427565b005b34801561014357600080fd5b5061015e60048036038101906101599190613257565b610564565b60405161016b9190613293565b60405180910390f35b34801561018057600080fd5b506101896105af565b6040516101969190613293565b60405180910390f35b6101b960048036038101906101b491906134da565b6105b7565b005b3480156101c757600080fd5b506101e260048036038101906101dd919061360f565b61090e565b6040516101ef919061364b565b60405180910390f35b610212600480360381019061020d919061360f565b610958565b005b34801561022057600080fd5b5061023b60048036038101906102369190613257565b610a87565b60405161024e97969594939291906136ee565b60405180910390f35b34801561026357600080fd5b5061026c610d91565b6040516102799190613293565b60405180910390f35b34801561028e57600080fd5b50610297610d97565b6040516102a49190613293565b60405180910390f35b3480156102b957600080fd5b506102c26111f9565b6040516102cf9190613a3f565b60405180910390f35b3480156102e457600080fd5b506102ff60048036038101906102fa919061360f565b611df1565b60405161031196959493929190613ae7565b60405180910390f35b34801561032657600080fd5b5061032f61227c565b60405161033c9190613b72565b60405180910390f35b61034d6126df565b005b34801561035b57600080fd5b5061037660048036038101906103719190613257565b6127f8565b6040516103839190613293565b60405180910390f35b34801561039857600080fd5b506103a1612810565b6040516103ae9190613a3f565b60405180910390f35b6103d160048036038101906103cc919061360f565b612c83565b005b3480156103df57600080fd5b506103fa60048036038101906103f59190613257565b612dc1565b6040516104079190613293565b60405180910390f35b34801561041c57600080fd5b50610425612e0a565b005b600160003373ffffffffffffffffffffffffffffffffffffffff1673ffffffffffffffffffffffffffffffffffffffff168152602001908152602001600020548211156104a9576040517f08c379a00000000000000000000000000000000000000000000000000000000081526004016104a090613c06565b60405180910390fd5b81600160003373ffffffffffffffffffffffffffffffffffffffff1673ffffffffffffffffffffffffffffffffffffffff16815260200190815260200160002060008282546104f89190613c55565b92505081905550816000808373ffffffffffffffffffffffffffffffffffffffff1673ffffffffffffffffffffffffffffffffffffffff16815260200190815260200160002060010160008282546105509190613c89565b9250508190555061055f6111f9565b505050565b60008060008373ffffffffffffffffffffffffffffffffffffffff1673ffffffffffffffffffffffffffffffffffffffff168152602001908152602001600020600101549050919050565b600047905090565b8560008151036105fc576040517f08c379a00000000000000000000000000000000000000000000000000000000081526004016105f390613d2b565b60405180910390fd5b600554341015610641576040517f08c379a000000000000000000000000000000000000000000000000000000000815260040161063890613dbd565b60405180910390fd5b60006040518061010001604052803373ffffffffffffffffffffffffffffffffffffffff16815260200160008152602001898152602001888152602001878152602001868152602001858152602001848152509050806000803373ffffffffffffffffffffffffffffffffffffffff1673ffffffffffffffffffffffffffffffffffffffff16815260200190815260200160002060008201518160000160006101000a81548173ffffffffffffffffffffffffffffffffffffffff021916908373ffffffffffffffffffffffffffffffffffffffff160217905550602082015181600101556040820151816002019080519060200190610742929190612f13565b50606082015181600301908051906020019061075f929190612f13565b50608082015181600401908051906020019061077c929190612f13565b5060a0820151816005019080519060200190610799929190612f99565b5060c08201518160060190805190602001906107b6929190612f13565b5060e08201518160070190805190602001906107d3929190612f13565b50905050600481908060018154018082558091505060019003906000526020600020906008020160009091909190915060008201518160000160006101000a81548173ffffffffffffffffffffffffffffffffffffffff021916908373ffffffffffffffffffffffffffffffffffffffff160217905550602082015181600101556040820151816002019080519060200190610870929190612f13565b50606082015181600301908051906020019061088d929190612f13565b5060808201518160040190805190602001906108aa929190612f13565b5060a08201518160050190805190602001906108c7929190612f99565b5060c08201518160060190805190602001906108e4929190612f13565b5060e0820151816007019080519060200190610901929190612f13565b5050505050505050505050565b6003818154811061091e57600080fd5b906000526020600020016000915090508060000160009054906101000a900473ffffffffffffffffffffffffffffffffffffffff16905081565b600160003373ffffffffffffffffffffffffffffffffffffffff1673ffffffffffffffffffffffffffffffffffffffff168152602001908152602001600020548111156109da576040517f08c379a00000000000000000000000000000000000000000000000000000000081526004016109d190613e4f565b60405180910390fd5b80600160003373ffffffffffffffffffffffffffffffffffffffff1673ffffffffffffffffffffffffffffffffffffffff1681526020019081526020016000206000828254610a299190613c55565b925050819055503373ffffffffffffffffffffffffffffffffffffffff166108fc82600554610a589190613e6f565b9081150290604051600060405180830381858888f19350505050158015610a83573d6000803e3d6000fd5b5050565b60006020528060005260406000206000915090508060000160009054906101000a900473ffffffffffffffffffffffffffffffffffffffff1690806001015490806002018054610ad690613ef8565b80601f0160208091040260200160405190810160405280929190818152602001828054610b0290613ef8565b8015610b4f5780601f10610b2457610100808354040283529160200191610b4f565b820191906000526020600020905b815481529060010190602001808311610b3257829003601f168201915b505050505090806003018054610b6490613ef8565b80601f0160208091040260200160405190810160405280929190818152602001828054610b9090613ef8565b8015610bdd5780601f10610bb257610100808354040283529160200191610bdd565b820191906000526020600020905b815481529060010190602001808311610bc057829003601f168201915b505050505090806004018054610bf290613ef8565b80601f0160208091040260200160405190810160405280929190818152602001828054610c1e90613ef8565b8015610c6b5780601f10610c4057610100808354040283529160200191610c6b565b820191906000526020600020905b815481529060010190602001808311610c4e57829003601f168201915b505050505090806006018054610c8090613ef8565b80601f0160208091040260200160405190810160405280929190818152602001828054610cac90613ef8565b8015610cf95780601f10610cce57610100808354040283529160200191610cf9565b820191906000526020600020905b815481529060010190602001808311610cdc57829003601f168201915b505050505090806007018054610d0e90613ef8565b80601f0160208091040260200160405190810160405280929190818152602001828054610d3a90613ef8565b8015610d875780601f10610d5c57610100808354040283529160200191610d87565b820191906000526020600020905b815481529060010190602001808311610d6a57829003601f168201915b5050505050905087565b60055481565b60008060046001600480549050610dae9190613c55565b81548110610dbf57610dbe613f29565b5b9060005260206000209060080201604051806101000160405290816000820160009054906101000a900473ffffffffffffffffffffffffffffffffffffffff1673ffffffffffffffffffffffffffffffffffffffff1673ffffffffffffffffffffffffffffffffffffffff16815260200160018201548152602001600282018054610e4990613ef8565b80601f0160208091040260200160405190810160405280929190818152602001828054610e7590613ef8565b8015610ec25780601f10610e9757610100808354040283529160200191610ec2565b820191906000526020600020905b815481529060010190602001808311610ea557829003601f168201915b50505050508152602001600382018054610edb90613ef8565b80601f0160208091040260200160405190810160405280929190818152602001828054610f0790613ef8565b8015610f545780601f10610f2957610100808354040283529160200191610f54565b820191906000526020600020905b815481529060010190602001808311610f3757829003601f168201915b50505050508152602001600482018054610f6d90613ef8565b80601f0160208091040260200160405190810160405280929190818152602001828054610f9990613ef8565b8015610fe65780601f10610fbb57610100808354040283529160200191610fe6565b820191906000526020600020905b815481529060010190602001808311610fc957829003601f168201915b5050505050815260200160058201805480602002602001604051908101604052809291908181526020016000905b828210156110c057838290600052602060002001805461103390613ef8565b80601f016020809104026020016040519081016040528092919081815260200182805461105f90613ef8565b80156110ac5780601f10611081576101008083540402835291602001916110ac565b820191906000526020600020905b81548152906001019060200180831161108f57829003601f168201915b505050505081526020019060010190611014565b5050505081526020016006820180546110d890613ef8565b80601f016020809104026020016040519081016040528092919081815260200182805461110490613ef8565b80156111515780601f1061112657610100808354040283529160200191611151565b820191906000526020600020905b81548152906001019060200180831161113457829003601f168201915b5050505050815260200160078201805461116a90613ef8565b80601f016020809104026020016040519081016040528092919081815260200182805461119690613ef8565b80156111e35780601f106111b8576101008083540402835291602001916111e3565b820191906000526020600020905b8154815290600101906020018083116111c657829003601f168201915b5050505050815250509050806020015191505090565b60606000600480549050905060005b8181101561197e57600060018261121f9190613c89565b90505b8281101561196a576004818154811061123e5761123d613f29565b5b9060005260206000209060080201600101546004838154811061126457611263613f29565b5b90600052602060002090600802016001015410156119575760006004828154811061129257611291613f29565b5b9060005260206000209060080201604051806101000160405290816000820160009054906101000a900473ffffffffffffffffffffffffffffffffffffffff1673ffffffffffffffffffffffffffffffffffffffff1673ffffffffffffffffffffffffffffffffffffffff1681526020016001820154815260200160028201805461131c90613ef8565b80601f016020809104026020016040519081016040528092919081815260200182805461134890613ef8565b80156113955780601f1061136a57610100808354040283529160200191611395565b820191906000526020600020905b81548152906001019060200180831161137857829003601f168201915b505050505081526020016003820180546113ae90613ef8565b80601f01602080910402602001604051908101604052809291908181526020018280546113da90613ef8565b80156114275780601f106113fc57610100808354040283529160200191611427565b820191906000526020600020905b81548152906001019060200180831161140a57829003601f168201915b5050505050815260200160048201805461144090613ef8565b80601f016020809104026020016040519081016040528092919081815260200182805461146c90613ef8565b80156114b95780601f1061148e576101008083540402835291602001916114b9565b820191906000526020600020905b81548152906001019060200180831161149c57829003601f168201915b5050505050815260200160058201805480602002602001604051908101604052809291908181526020016000905b8282101561159357838290600052602060002001805461150690613ef8565b80601f016020809104026020016040519081016040528092919081815260200182805461153290613ef8565b801561157f5780601f106115545761010080835404028352916020019161157f565b820191906000526020600020905b81548152906001019060200180831161156257829003601f168201915b5050505050815260200190600101906114e7565b5050505081526020016006820180546115ab90613ef8565b80601f01602080910402602001604051908101604052809291908181526020018280546115d790613ef8565b80156116245780601f106115f957610100808354040283529160200191611624565b820191906000526020600020905b81548152906001019060200180831161160757829003601f168201915b5050505050815260200160078201805461163d90613ef8565b80601f016020809104026020016040519081016040528092919081815260200182805461166990613ef8565b80156116b65780601f1061168b576101008083540402835291602001916116b6565b820191906000526020600020905b81548152906001019060200180831161169957829003601f168201915b5050505050815250509050600483815481106116d5576116d4613f29565b5b9060005260206000209060080201600483815481106116f7576116f6613f29565b5b90600052602060002090600802016000820160009054906101000a900473ffffffffffffffffffffffffffffffffffffffff168160000160006101000a81548173ffffffffffffffffffffffffffffffffffffffff021916908373ffffffffffffffffffffffffffffffffffffffff16021790555060018201548160010155600282018160020190805461178a90613ef8565b611795929190612ff9565b5060038201816003019080546117aa90613ef8565b6117b5929190612ff9565b5060048201816004019080546117ca90613ef8565b6117d5929190612ff9565b5060058201816005019080546117ec929190613086565b50600682018160060190805461180190613ef8565b61180c929190612ff9565b50600782018160070190805461182190613ef8565b61182c929190612ff9565b50905050806004848154811061184557611844613f29565b5b906000526020600020906008020160008201518160000160006101000a81548173ffffffffffffffffffffffffffffffffffffffff021916908373ffffffffffffffffffffffffffffffffffffffff1602179055506020820151816001015560408201518160020190805190602001906118c0929190612f13565b5060608201518160030190805190602001906118dd929190612f13565b5060808201518160040190805190602001906118fa929190612f13565b5060a0820151816005019080519060200190611917929190612f99565b5060c0820151816006019080519060200190611934929190612f13565b5060e0820151816007019080519060200190611951929190612f13565b50905050505b808061196290613f58565b915050611222565b50808061197690613f58565b915050611208565b506004805480602002602001604051908101604052809291908181526020016000905b82821015611de75783829060005260206000209060080201604051806101000160405290816000820160009054906101000a900473ffffffffffffffffffffffffffffffffffffffff1673ffffffffffffffffffffffffffffffffffffffff1673ffffffffffffffffffffffffffffffffffffffff16815260200160018201548152602001600282018054611a3590613ef8565b80601f0160208091040260200160405190810160405280929190818152602001828054611a6190613ef8565b8015611aae5780601f10611a8357610100808354040283529160200191611aae565b820191906000526020600020905b815481529060010190602001808311611a9157829003601f168201915b50505050508152602001600382018054611ac790613ef8565b80601f0160208091040260200160405190810160405280929190818152602001828054611af390613ef8565b8015611b405780601f10611b1557610100808354040283529160200191611b40565b820191906000526020600020905b815481529060010190602001808311611b2357829003601f168201915b50505050508152602001600482018054611b5990613ef8565b80601f0160208091040260200160405190810160405280929190818152602001828054611b8590613ef8565b8015611bd25780601f10611ba757610100808354040283529160200191611bd2565b820191906000526020600020905b815481529060010190602001808311611bb557829003601f168201915b5050505050815260200160058201805480602002602001604051908101604052809291908181526020016000905b82821015611cac578382906000526020600020018054611c1f90613ef8565b80601f0160208091040260200160405190810160405280929190818152602001828054611c4b90613ef8565b8015611c985780601f10611c6d57610100808354040283529160200191611c98565b820191906000526020600020905b815481529060010190602001808311611c7b57829003601f168201915b505050505081526020019060010190611c00565b505050508152602001600682018054611cc490613ef8565b80601f0160208091040260200160405190810160405280929190818152602001828054611cf090613ef8565b8015611d3d5780601f10611d1257610100808354040283529160200191611d3d565b820191906000526020600020905b815481529060010190602001808311611d2057829003601f168201915b50505050508152602001600782018054611d5690613ef8565b80601f0160208091040260200160405190810160405280929190818152602001828054611d8290613ef8565b8015611dcf5780601f10611da457610100808354040283529160200191611dcf565b820191906000526020600020905b815481529060010190602001808311611db257829003601f168201915b505050505081525050815260200190600101906119a1565b5050505091505090565b60608060608060608060048781548110611e0e57611e0d613f29565b5b906000526020600020906008020160020160048881548110611e3357611e32613f29565b5b906000526020600020906008020160030160048981548110611e5857611e57613f29565b5b906000526020600020906008020160040160048a81548110611e7d57611e7c613f29565b5b906000526020600020906008020160050160048b81548110611ea257611ea1613f29565b5b906000526020600020906008020160060160048c81548110611ec757611ec6613f29565b5b9060005260206000209060080201600701858054611ee490613ef8565b80601f0160208091040260200160405190810160405280929190818152602001828054611f1090613ef8565b8015611f5d5780601f10611f3257610100808354040283529160200191611f5d565b820191906000526020600020905b815481529060010190602001808311611f4057829003601f168201915b50505050509550848054611f7090613ef8565b80601f0160208091040260200160405190810160405280929190818152602001828054611f9c90613ef8565b8015611fe95780601f10611fbe57610100808354040283529160200191611fe9565b820191906000526020600020905b815481529060010190602001808311611fcc57829003601f168201915b50505050509450838054611ffc90613ef8565b80601f016020809104026020016040519081016040528092919081815260200182805461202890613ef8565b80156120755780601f1061204a57610100808354040283529160200191612075565b820191906000526020600020905b81548152906001019060200180831161205857829003601f168201915b5050505050935082805480602002602001604051908101604052809291908181526020016000905b828210156121495783829060005260206000200180546120bc90613ef8565b80601f01602080910402602001604051908101604052809291908181526020018280546120e890613ef8565b80156121355780601f1061210a57610100808354040283529160200191612135565b820191906000526020600020905b81548152906001019060200180831161211857829003601f168201915b50505050508152602001906001019061209d565b50505050925081805461215b90613ef8565b80601f016020809104026020016040519081016040528092919081815260200182805461218790613ef8565b80156121d45780601f106121a9576101008083540402835291602001916121d4565b820191906000526020600020905b8154815290600101906020018083116121b757829003601f168201915b505050505091508080546121e790613ef8565b80601f016020809104026020016040519081016040528092919081815260200182805461221390613ef8565b80156122605780601f1061223557610100808354040283529160200191612260565b820191906000526020600020905b81548152906001019060200180831161224357829003601f168201915b5050505050905095509550955095509550955091939550919395565b60606000600460016004805490506122949190613c55565b815481106122a5576122a4613f29565b5b9060005260206000209060080201604051806101000160405290816000820160009054906101000a900473ffffffffffffffffffffffffffffffffffffffff1673ffffffffffffffffffffffffffffffffffffffff1673ffffffffffffffffffffffffffffffffffffffff1681526020016001820154815260200160028201805461232f90613ef8565b80601f016020809104026020016040519081016040528092919081815260200182805461235b90613ef8565b80156123a85780601f1061237d576101008083540402835291602001916123a8565b820191906000526020600020905b81548152906001019060200180831161238b57829003601f168201915b505050505081526020016003820180546123c190613ef8565b80601f01602080910402602001604051908101604052809291908181526020018280546123ed90613ef8565b801561243a5780601f1061240f5761010080835404028352916020019161243a565b820191906000526020600020905b81548152906001019060200180831161241d57829003601f168201915b5050505050815260200160048201805461245390613ef8565b80601f016020809104026020016040519081016040528092919081815260200182805461247f90613ef8565b80156124cc5780601f106124a1576101008083540402835291602001916124cc565b820191906000526020600020905b8154815290600101906020018083116124af57829003601f168201915b5050505050815260200160058201805480602002602001604051908101604052809291908181526020016000905b828210156125a657838290600052602060002001805461251990613ef8565b80601f016020809104026020016040519081016040528092919081815260200182805461254590613ef8565b80156125925780601f1061256757610100808354040283529160200191612592565b820191906000526020600020905b81548152906001019060200180831161257557829003601f168201915b5050505050815260200190600101906124fa565b5050505081526020016006820180546125be90613ef8565b80601f01602080910402602001604051908101604052809291908181526020018280546125ea90613ef8565b80156126375780601f1061260c57610100808354040283529160200191612637565b820191906000526020600020905b81548152906001019060200180831161261a57829003601f168201915b5050505050815260200160078201805461265090613ef8565b80601f016020809104026020016040519081016040528092919081815260200182805461267c90613ef8565b80156126c95780601f1061269e576101008083540402835291602001916126c9565b820191906000526020600020905b8154815290600101906020018083116126ac57829003601f168201915b5050505050815250509050806040015191505090565b600260009054906101000a900473ffffffffffffffffffffffffffffffffffffffff1673ffffffffffffffffffffffffffffffffffffffff163373ffffffffffffffffffffffffffffffffffffffff161461276f576040517f08c379a000000000000000000000000000000000000000000000000000000000815260040161276690613fec565b60405180910390fd5b60006127796111f9565b905060008160008151811061279157612790613f29565b5b602002602001015190506000816000015190508073ffffffffffffffffffffffffffffffffffffffff166108fc479081150290604051600060405180830381858888f193505050501580156127ea573d6000803e3d6000fd5b506127f3612e0a565b505050565b60016020528060005260406000206000915090505481565b60606004805480602002602001604051908101604052809291908181526020016000905b82821015612c7a5783829060005260206000209060080201604051806101000160405290816000820160009054906101000a900473ffffffffffffffffffffffffffffffffffffffff1673ffffffffffffffffffffffffffffffffffffffff1673ffffffffffffffffffffffffffffffffffffffff168152602001600182015481526020016002820180546128c890613ef8565b80601f01602080910402602001604051908101604052809291908181526020018280546128f490613ef8565b80156129415780601f1061291657610100808354040283529160200191612941565b820191906000526020600020905b81548152906001019060200180831161292457829003601f168201915b5050505050815260200160038201805461295a90613ef8565b80601f016020809104026020016040519081016040528092919081815260200182805461298690613ef8565b80156129d35780601f106129a8576101008083540402835291602001916129d3565b820191906000526020600020905b8154815290600101906020018083116129b657829003601f168201915b505050505081526020016004820180546129ec90613ef8565b80601f0160208091040260200160405190810160405280929190818152602001828054612a1890613ef8565b8015612a655780601f10612a3a57610100808354040283529160200191612a65565b820191906000526020600020905b815481529060010190602001808311612a4857829003601f168201915b5050505050815260200160058201805480602002602001604051908101604052809291908181526020016000905b82821015612b3f578382906000526020600020018054612ab290613ef8565b80601f0160208091040260200160405190810160405280929190818152602001828054612ade90613ef8565b8015612b2b5780601f10612b0057610100808354040283529160200191612b2b565b820191906000526020600020905b815481529060010190602001808311612b0e57829003601f168201915b505050505081526020019060010190612a93565b505050508152602001600682018054612b5790613ef8565b80601f0160208091040260200160405190810160405280929190818152602001828054612b8390613ef8565b8015612bd05780601f10612ba557610100808354040283529160200191612bd0565b820191906000526020600020905b815481529060010190602001808311612bb357829003601f168201915b50505050508152602001600782018054612be990613ef8565b80601f0160208091040260200160405190810160405280929190818152602001828054612c1590613ef8565b8015612c625780601f10612c3757610100808354040283529160200191612c62565b820191906000526020600020905b815481529060010190602001808311612c4557829003601f168201915b50505050508152505081526020019060010190612834565b50505050905090565b600360405180602001604052803373ffffffffffffffffffffffffffffffffffffffff168152509080600181540180825580915050600190039060005260206000200160009091909190915060008201518160000160006101000a81548173ffffffffffffffffffffffffffffffffffffffff021916908373ffffffffffffffffffffffffffffffffffffffff160217905550505060055481612d269190613e6f565b341015612d68576040517f08c379a0000000000000000000000000000000000000000000000000000000008152600401612d5f90614058565b60405180910390fd5b80600160003373ffffffffffffffffffffffffffffffffffffffff1673ffffffffffffffffffffffffffffffffffffffff1681526020019081526020016000206000828254612db79190613c89565b9250508190555050565b6000600160008373ffffffffffffffffffffffffffffffffffffffff1673ffffffffffffffffffffffffffffffffffffffff168152602001908152602001600020549050919050565b6000600480549050905060005b81811015612e5d57600060048281548110612e3557612e34613f29565b5b9060005260206000209060080201600101819055508080612e5590613f58565b915050612e17565b506000600380549050905060005b81811015612f0e57600080600060038481548110612e8c57612e8b613f29565b5b9060005260206000200160000160009054906101000a900473ffffffffffffffffffffffffffffffffffffffff1673ffffffffffffffffffffffffffffffffffffffff1673ffffffffffffffffffffffffffffffffffffffff168152602001908152602001600020600101819055508080612f0690613f58565b915050612e6b565b505050565b828054612f1f90613ef8565b90600052602060002090601f016020900481019282612f415760008555612f88565b82601f10612f5a57805160ff1916838001178555612f88565b82800160010185558215612f88579182015b82811115612f87578251825591602001919060010190612f6c565b5b509050612f9591906130ee565b5090565b828054828255906000526020600020908101928215612fe8579160200282015b82811115612fe7578251829080519060200190612fd7929190612f13565b5091602001919060010190612fb9565b5b509050612ff5919061310b565b5090565b82805461300590613ef8565b90600052602060002090601f0160209004810192826130275760008555613075565b82601f106130385780548555613075565b8280016001018555821561307557600052602060002091601f016020900482015b82811115613074578254825591600101919060010190613059565b5b50905061308291906130ee565b5090565b8280548282559060005260206000209081019282156130dd5760005260206000209182015b828111156130dc5782829080546130c190613ef8565b6130cc929190612ff9565b50916001019190600101906130ab565b5b5090506130ea919061310b565b5090565b5b808211156131075760008160009055506001016130ef565b5090565b5b8082111561312b5760008181613122919061312f565b5060010161310c565b5090565b50805461313b90613ef8565b6000825580601f1061314d575061316c565b601f01602090049060005260206000209081019061316b91906130ee565b5b50565b6000604051905090565b600080fd5b600080fd5b6000819050919050565b61319681613183565b81146131a157600080fd5b50565b6000813590506131b38161318d565b92915050565b600073ffffffffffffffffffffffffffffffffffffffff82169050919050565b60006131e4826131b9565b9050919050565b6131f4816131d9565b81146131ff57600080fd5b50565b600081359050613211816131eb565b92915050565b6000806040838503121561322e5761322d613179565b5b600061323c858286016131a4565b925050602061324d85828601613202565b9150509250929050565b60006020828403121561326d5761326c613179565b5b600061327b84828501613202565b91505092915050565b61328d81613183565b82525050565b60006020820190506132a86000830184613284565b92915050565b600080fd5b600080fd5b6000601f19601f8301169050919050565b7f4e487b7100000000000000000000000000000000000000000000000000000000600052604160045260246000fd5b613301826132b8565b810181811067ffffffffffffffff821117156133205761331f6132c9565b5b80604052505050565b600061333361316f565b905061333f82826132f8565b919050565b600067ffffffffffffffff82111561335f5761335e6132c9565b5b613368826132b8565b9050602081019050919050565b82818337600083830152505050565b600061339761339284613344565b613329565b9050828152602081018484840111156133b3576133b26132b3565b5b6133be848285613375565b509392505050565b600082601f8301126133db576133da6132ae565b5b81356133eb848260208601613384565b91505092915050565b600067ffffffffffffffff82111561340f5761340e6132c9565b5b602082029050602081019050919050565b600080fd5b6000613438613433846133f4565b613329565b9050808382526020820190506020840283018581111561345b5761345a613420565b5b835b818110156134a257803567ffffffffffffffff8111156134805761347f6132ae565b5b80860161348d89826133c6565b8552602085019450505060208101905061345d565b5050509392505050565b600082601f8301126134c1576134c06132ae565b5b81356134d1848260208601613425565b91505092915050565b60008060008060008060c087890312156134f7576134f6613179565b5b600087013567ffffffffffffffff8111156135155761351461317e565b5b61352189828a016133c6565b965050602087013567ffffffffffffffff8111156135425761354161317e565b5b61354e89828a016133c6565b955050604087013567ffffffffffffffff81111561356f5761356e61317e565b5b61357b89828a016133c6565b945050606087013567ffffffffffffffff81111561359c5761359b61317e565b5b6135a889828a016134ac565b935050608087013567ffffffffffffffff8111156135c9576135c861317e565b5b6135d589828a016133c6565b92505060a087013567ffffffffffffffff8111156135f6576135f561317e565b5b61360289828a016133c6565b9150509295509295509295565b60006020828403121561362557613624613179565b5b6000613633848285016131a4565b91505092915050565b613645816131d9565b82525050565b6000602082019050613660600083018461363c565b92915050565b600081519050919050565b600082825260208201905092915050565b60005b838110156136a0578082015181840152602081019050613685565b838111156136af576000848401525b50505050565b60006136c082613666565b6136ca8185613671565b93506136da818560208601613682565b6136e3816132b8565b840191505092915050565b600060e082019050613703600083018a61363c565b6137106020830189613284565b818103604083015261372281886136b5565b9050818103606083015261373681876136b5565b9050818103608083015261374a81866136b5565b905081810360a083015261375e81856136b5565b905081810360c083015261377281846136b5565b905098975050505050505050565b600081519050919050565b600082825260208201905092915050565b6000819050602082019050919050565b6137b5816131d9565b82525050565b6137c481613183565b82525050565b600082825260208201905092915050565b60006137e682613666565b6137f081856137ca565b9350613800818560208601613682565b613809816132b8565b840191505092915050565b600081519050919050565b600082825260208201905092915050565b6000819050602082019050919050565b600061384c83836137db565b905092915050565b6000602082019050919050565b600061386c82613814565b613876818561381f565b93508360208202850161388885613830565b8060005b858110156138c457848403895281516138a58582613840565b94506138b083613854565b925060208a0199505060018101905061388c565b50829750879550505050505092915050565b6000610100830160008301516138ef60008601826137ac565b50602083015161390260208601826137bb565b506040830151848203604086015261391a82826137db565b9150506060830151848203606086015261393482826137db565b9150506080830151848203608086015261394e82826137db565b91505060a083015184820360a08601526139688282613861565b91505060c083015184820360c086015261398282826137db565b91505060e083015184820360e086015261399c82826137db565b9150508091505092915050565b60006139b583836138d6565b905092915050565b6000602082019050919050565b60006139d582613780565b6139df818561378b565b9350836020820285016139f18561379c565b8060005b85811015613a2d5784840389528151613a0e85826139a9565b9450613a19836139bd565b925060208a019950506001810190506139f5565b50829750879550505050505092915050565b60006020820190508181036000830152613a5981846139ca565b905092915050565b600082825260208201905092915050565b6000613a7d82613814565b613a878185613a61565b935083602082028501613a9985613830565b8060005b85811015613ad55784840389528151613ab68582613840565b9450613ac183613854565b925060208a01995050600181019050613a9d565b50829750879550505050505092915050565b600060c0820190508181036000830152613b0181896136b5565b90508181036020830152613b1581886136b5565b90508181036040830152613b2981876136b5565b90508181036060830152613b3d8186613a72565b90508181036080830152613b5181856136b5565b905081810360a0830152613b6581846136b5565b9050979650505050505050565b60006020820190508181036000830152613b8c81846136b5565b905092915050565b7f596f752063616e277420766f7465206d6f726520766f746573207468616e207960008201527f6f75206861766521000000000000000000000000000000000000000000000000602082015250565b6000613bf0602883613671565b9150613bfb82613b94565b604082019050919050565b60006020820190508181036000830152613c1f81613be3565b9050919050565b7f4e487b7100000000000000000000000000000000000000000000000000000000600052601160045260246000fd5b6000613c6082613183565b9150613c6b83613183565b925082821015613c7e57613c7d613c26565b5b828203905092915050565b6000613c9482613183565b9150613c9f83613183565b9250827fffffffffffffffffffffffffffffffffffffffffffffffffffffffffffffffff03821115613cd457613cd3613c26565b5b828201905092915050565b7f446f67206e616d652063616e206e6f7420626520656d70747921000000000000600082015250565b6000613d15601a83613671565b9150613d2082613cdf565b602082019050919050565b60006020820190508181036000830152613d4481613d08565b9050919050565b7f4e6f7420656e6f756768206d6f6e657920746f20637265617465206120646f6760008201527f2070726f66696c65000000000000000000000000000000000000000000000000602082015250565b6000613da7602883613671565b9150613db282613d4b565b604082019050919050565b60006020820190508181036000830152613dd681613d9a565b9050919050565b7f7265717565737465642063616e63656c20766f7465732065786365656465642060008201527f74686520746f74616c20766f74657320617661696c61626c6500000000000000602082015250565b6000613e39603983613671565b9150613e4482613ddd565b604082019050919050565b60006020820190508181036000830152613e6881613e2c565b9050919050565b6000613e7a82613183565b9150613e8583613183565b9250817fffffffffffffffffffffffffffffffffffffffffffffffffffffffffffffffff0483118215151615613ebe57613ebd613c26565b5b828202905092915050565b7f4e487b7100000000000000000000000000000000000000000000000000000000600052602260045260246000fd5b60006002820490506001821680613f1057607f821691505b602082108103613f2357613f22613ec9565b5b50919050565b7f4e487b7100000000000000000000000000000000000000000000000000000000600052603260045260246000fd5b6000613f6382613183565b91507fffffffffffffffffffffffffffffffffffffffffffffffffffffffffffffffff8203613f9557613f94613c26565b5b600182019050919050565b7f6f6e6c79207468652061646d696e2063616e20656e6420766f74650000000000600082015250565b6000613fd6601b83613671565b9150613fe182613fa0565b602082019050919050565b6000602082019050818103600083015261400581613fc9565b9050919050565b7f4e6f7420656e6f756768206d6f6e657920746f20627579206120766f74650000600082015250565b6000614042601e83613671565b915061404d8261400c565b602082019050919050565b6000602082019050818103600083015261407181614035565b905091905056fea2646970667358221220b8ceeb94f738dacc918c486c25b29d4e3d85fecfcd5eeba91854f9893dfef09464736f6c634300080d0033",
  "immutableReferences": {},
  "source": "//SPDX-License-Identifier: MIT\npragma solidity ^0.8.0;\n\ncontract PuppyVote{\n\n    struct User{\n        address userAddress; \n    } \n    \n    struct Dog{\n        address ownerAddress; \n        uint numVote;\n        string puppyName;\n        string gender;\n        string dateOfBirth;\n        string[] tags;\n        string description;\n        // one variable for picture \n        string dogPicture;\n    }\n\n    mapping(address => Dog) public adopt;   // a user has a dog\n    mapping(address => uint256) public userVoteBalance;// the number of votes user has confirmed\n    \n    address owner;\n    User[] public users;\n    Dog[] dogs;\n    \n    uint public votePrice;\n\n    constructor() {\n        owner = msg.sender;\n        votePrice = 100000000000000000; // 0.1 ether\n    }\n\n    modifier notEmpty (string memory _input) {\n        require(bytes(_input).length!= 0, \"Dog name can not be empty!\");\n        _;\n    }\n\n    function createDogProfile(string memory _name, string memory _gender, string memory _birthday, string[] memory _tags, string memory _description, string memory _dogPicture) public payable notEmpty (_name){\n        //users.push(User(msg.sender)); \n        //get info from web \n        require(msg.value >= votePrice, \"Not enough money to create a dog profile\"); //transfer to sc addr by default\n        Dog memory newDog = Dog(msg.sender, 0, _name, _gender, _birthday, _tags, _description, _dogPicture);\n        adopt[msg.sender] = newDog;\n        dogs.push(newDog);\n    }\n    \n    // there should be some input protection in the front end\n    function buyVote(uint256 _buyVoteNum) public payable{\n        users.push(User(msg.sender));\n        require(msg.value >= _buyVoteNum * votePrice, \"Not enough money to buy a vote\"); //transfer to sc addr by default\n        userVoteBalance[msg.sender] += _buyVoteNum;\n        //payable(owner).transfer(_buyVoteNum * votePrice);\n        // addressshg(this): the address of the smart contract\n        //transferMoney(address(this), _buyVoteNum);\n        //bool flag = payable(address(this)).send(100000000000000000);\n        //require(flag == true, \"failure of sending the money\");\n        \n        //payable(address(this)).transfer(votePrice);\n    }\n\n    function cancelOrder(uint256 _cancelVoteNum) public payable{\n        require(_cancelVoteNum <= userVoteBalance[msg.sender], \"requested cancel votes exceeded the total votes available\");\n        userVoteBalance[msg.sender] -= _cancelVoteNum;\n        payable(msg.sender).transfer(votePrice * _cancelVoteNum);\n    }\n\n    // to: get the money, source of pain\n    // function transferMoney(address _to, uint256 _voteNum) public payable returns (bool success) {\n    //     require(msg.value >= _voteNum * votePrice, \"Not enough ether\");\n    //     payable(_to).transfer(_voteNum * votePrice);\n    //     return true;\n    // }\n\n    function vote(uint256 _voteNum, address dogOwner) public{\n        require(_voteNum <= userVoteBalance[msg.sender], \"You can't vote more votes than you have!\");\n        userVoteBalance[msg.sender] -= _voteNum;\n        adopt[dogOwner].numVote += _voteNum;//update dog's vote\n        rank();//update leader board\n        // need to update\n    }\n\n    // calculate the winner, and return money to the winner\n    function endVote() public payable{\n        require(msg.sender == owner, \"only the admin can end vote\");\n        Dog[] memory result = rank();\n        // the winning dog\n        Dog memory winningDog = result[0];\n        address winner = winningDog.ownerAddress;\n        payable(winner).transfer(address(this).balance);\n        //payable(owner).transfer(address(this).balance);//transfer money back to owner\n        reset();\n    }\n\n    function rank() public returns (Dog[] memory){\n        uint256 l = dogs.length;\n        for (uint i = 0; i < l; i++) {\n            for (uint j = i + 1; j < l; j++) {\n                if(dogs[i].numVote < dogs[j].numVote){\n                    Dog memory tmp = dogs[j];\n                    dogs[j] = dogs[i];\n                    dogs[i] = tmp;\n                }\n            }\n        }\n        return dogs;\n    }\n\n    function reset() public {\n        uint256 l = dogs.length;\n        for (uint i = 0; i < l; i++) {\n            dogs[i].numVote=0;//reset to zero\n        }\n        uint256 len = users.length;\n\n        for (uint i = 0; i < len; i++) {\n            adopt[users[i].userAddress].numVote=0;//reset to zero\n        }\n    }\n    \n    function getDogs() public view returns (Dog[] memory) {\n        return dogs;\n    }\n\n    function getDogByIndex(uint index) public view returns(string memory, string memory, string memory, string[] memory, string memory, string memory) {\n        return (dogs[index].puppyName, dogs[index].gender, dogs[index].dateOfBirth, dogs[index].tags, dogs[index].description, dogs[index].dogPicture);\n    }\n\n    function getLastDogName() public view returns (string memory) {\n        Dog memory dog = dogs[dogs.length-1];\n        return dog.puppyName;\n    }\n\n    function getLastDogVote() public view returns (uint256) {\n        Dog memory dog = dogs[dogs.length-1];\n        return dog.numVote;\n    }\n\n    function getUserVote(address addr) public view returns (uint256 ) {\n        return userVoteBalance[addr];\n    }\n\n    function getAdoptDogVote(address addr) public view returns (uint256 ) {\n        return adopt[addr].numVote;\n    }\n\n       //get balance\n    function getBalance() public view returns (uint) {\n        return address(this).balance;\n    }\n}\n",
  "sourcePath": "/Users/hannahwong/Desktop/571G_project/571G_Project/my-app/src/contracts/PuppyVote.sol",
  "compiler": {
    "name": "solc",
    "version": "0.8.13+commit.abaa5c0e.Emscripten.clang"
  },
  "schemaVersion": "3.4.6",
  "updatedAt": "2022-04-04T06:01:26.897Z",
  "networkType": "ethereum",
  "devdoc": {
    "kind": "dev",
    "methods": {},
    "version": 1
  },
  "userdoc": {
    "kind": "user",
    "methods": {},
    "version": 1
  }
}