{
  "contractName": "PuppyVote",
  "abi": [
    {
      "inputs": [],
      "stateMutability": "nonpayable",
      "type": "constructor"
    },
    {
      "inputs": [
        {
          "internalType": "address",
          "name": "",
          "type": "address"
        }
      ],
      "name": "adopt",
      "outputs": [
        {
          "internalType": "address",
          "name": "ownerAddress",
          "type": "address"
        },
        {
          "internalType": "uint256",
          "name": "numVote",
          "type": "uint256"
        },
        {
          "internalType": "string",
          "name": "puppyName",
          "type": "string"
        },
        {
          "internalType": "string",
          "name": "gender",
          "type": "string"
        },
        {
          "internalType": "string",
          "name": "dateOfBirth",
          "type": "string"
        },
        {
          "internalType": "string",
          "name": "description",
          "type": "string"
        },
        {
          "internalType": "string",
          "name": "dogPicture",
          "type": "string"
        }
      ],
      "stateMutability": "view",
      "type": "function"
    },
    {
      "inputs": [
        {
          "internalType": "address",
          "name": "",
          "type": "address"
        }
      ],
      "name": "userVoteBalance",
      "outputs": [
        {
          "internalType": "uint256",
          "name": "",
          "type": "uint256"
        }
      ],
      "stateMutability": "view",
      "type": "function"
    },
    {
      "inputs": [
        {
          "internalType": "uint256",
          "name": "",
          "type": "uint256"
        }
      ],
      "name": "users",
      "outputs": [
        {
          "internalType": "address",
          "name": "userAddress",
          "type": "address"
        }
      ],
      "stateMutability": "view",
      "type": "function"
    },
    {
      "inputs": [],
      "name": "votePrice",
      "outputs": [
        {
          "internalType": "uint256",
          "name": "",
          "type": "uint256"
        }
      ],
      "stateMutability": "view",
      "type": "function"
    },
    {
      "inputs": [
        {
          "internalType": "string",
          "name": "_name",
          "type": "string"
        },
        {
          "internalType": "string",
          "name": "_gender",
          "type": "string"
        },
        {
          "internalType": "string",
          "name": "_birthday",
          "type": "string"
        },
        {
          "internalType": "string[]",
          "name": "_tags",
          "type": "string[]"
        },
        {
          "internalType": "string",
          "name": "_description",
          "type": "string"
        },
        {
          "internalType": "string",
          "name": "_dogPicture",
          "type": "string"
        }
      ],
      "name": "createDogProfile",
      "outputs": [],
      "stateMutability": "payable",
      "type": "function"
    },
    {
      "inputs": [
        {
          "internalType": "string",
          "name": "_dogName",
          "type": "string"
        }
      ],
      "name": "deleteDogProfile",
      "outputs": [
        {
          "components": [
            {
              "internalType": "address",
              "name": "ownerAddress",
              "type": "address"
            },
            {
              "internalType": "uint256",
              "name": "numVote",
              "type": "uint256"
            },
            {
              "internalType": "string",
              "name": "puppyName",
              "type": "string"
            },
            {
              "internalType": "string",
              "name": "gender",
              "type": "string"
            },
            {
              "internalType": "string",
              "name": "dateOfBirth",
              "type": "string"
            },
            {
              "internalType": "string[]",
              "name": "tags",
              "type": "string[]"
            },
            {
              "internalType": "string",
              "name": "description",
              "type": "string"
            },
            {
              "internalType": "string",
              "name": "dogPicture",
              "type": "string"
            }
          ],
          "internalType": "struct PuppyVote.Dog[]",
          "name": "",
          "type": "tuple[]"
        }
      ],
      "stateMutability": "nonpayable",
      "type": "function"
    },
    {
      "inputs": [
        {
          "internalType": "uint256",
          "name": "_buyVoteNum",
          "type": "uint256"
        }
      ],
      "name": "buyVote",
      "outputs": [],
      "stateMutability": "payable",
      "type": "function"
    },
    {
      "inputs": [
        {
          "internalType": "uint256",
          "name": "_cancelVoteNum",
          "type": "uint256"
        }
      ],
      "name": "cancelOrder",
      "outputs": [],
      "stateMutability": "payable",
      "type": "function"
    },
    {
      "inputs": [
        {
          "internalType": "uint256",
          "name": "_voteNum",
          "type": "uint256"
        },
        {
          "internalType": "string",
          "name": "_dogName",
          "type": "string"
        },
        {
          "internalType": "address",
          "name": "dogOwner",
          "type": "address"
        }
      ],
      "name": "vote",
      "outputs": [],
      "stateMutability": "nonpayable",
      "type": "function"
    },
    {
      "inputs": [],
      "name": "endVote",
      "outputs": [],
      "stateMutability": "payable",
      "type": "function"
    },
    {
      "inputs": [],
      "name": "rank",
      "outputs": [
        {
          "components": [
            {
              "internalType": "address",
              "name": "ownerAddress",
              "type": "address"
            },
            {
              "internalType": "uint256",
              "name": "numVote",
              "type": "uint256"
            },
            {
              "internalType": "string",
              "name": "puppyName",
              "type": "string"
            },
            {
              "internalType": "string",
              "name": "gender",
              "type": "string"
            },
            {
              "internalType": "string",
              "name": "dateOfBirth",
              "type": "string"
            },
            {
              "internalType": "string[]",
              "name": "tags",
              "type": "string[]"
            },
            {
              "internalType": "string",
              "name": "description",
              "type": "string"
            },
            {
              "internalType": "string",
              "name": "dogPicture",
              "type": "string"
            }
          ],
          "internalType": "struct PuppyVote.Dog[]",
          "name": "",
          "type": "tuple[]"
        }
      ],
      "stateMutability": "nonpayable",
      "type": "function"
    },
    {
      "inputs": [],
      "name": "reset",
      "outputs": [],
      "stateMutability": "nonpayable",
      "type": "function"
    },
    {
      "inputs": [],
      "name": "getDogs",
      "outputs": [
        {
          "components": [
            {
              "internalType": "address",
              "name": "ownerAddress",
              "type": "address"
            },
            {
              "internalType": "uint256",
              "name": "numVote",
              "type": "uint256"
            },
            {
              "internalType": "string",
              "name": "puppyName",
              "type": "string"
            },
            {
              "internalType": "string",
              "name": "gender",
              "type": "string"
            },
            {
              "internalType": "string",
              "name": "dateOfBirth",
              "type": "string"
            },
            {
              "internalType": "string[]",
              "name": "tags",
              "type": "string[]"
            },
            {
              "internalType": "string",
              "name": "description",
              "type": "string"
            },
            {
              "internalType": "string",
              "name": "dogPicture",
              "type": "string"
            }
          ],
          "internalType": "struct PuppyVote.Dog[]",
          "name": "",
          "type": "tuple[]"
        }
      ],
      "stateMutability": "view",
      "type": "function"
    },
    {
      "inputs": [
        {
          "internalType": "uint256",
          "name": "index",
          "type": "uint256"
        }
      ],
      "name": "getDogByIndex",
      "outputs": [
        {
          "internalType": "string",
          "name": "",
          "type": "string"
        },
        {
          "internalType": "string",
          "name": "",
          "type": "string"
        },
        {
          "internalType": "string",
          "name": "",
          "type": "string"
        },
        {
          "internalType": "string[]",
          "name": "",
          "type": "string[]"
        },
        {
          "internalType": "string",
          "name": "",
          "type": "string"
        },
        {
          "internalType": "string",
          "name": "",
          "type": "string"
        }
      ],
      "stateMutability": "view",
      "type": "function"
    },
    {
      "inputs": [],
      "name": "getLastDogName",
      "outputs": [
        {
          "internalType": "string",
          "name": "",
          "type": "string"
        }
      ],
      "stateMutability": "view",
      "type": "function"
    },
    {
      "inputs": [],
      "name": "getLastDogVote",
      "outputs": [
        {
          "internalType": "uint256",
          "name": "",
          "type": "uint256"
        }
      ],
      "stateMutability": "view",
      "type": "function"
    },
    {
      "inputs": [
        {
          "internalType": "address",
          "name": "addr",
          "type": "address"
        }
      ],
      "name": "getUserVote",
      "outputs": [
        {
          "internalType": "uint256",
          "name": "",
          "type": "uint256"
        }
      ],
      "stateMutability": "view",
      "type": "function"
    },
    {
      "inputs": [
        {
          "internalType": "address",
          "name": "addr",
          "type": "address"
        }
      ],
      "name": "getAdoptDogVote",
      "outputs": [
        {
          "internalType": "uint256",
          "name": "",
          "type": "uint256"
        }
      ],
      "stateMutability": "view",
      "type": "function"
    },
    {
      "inputs": [],
      "name": "getBalance",
      "outputs": [
        {
          "internalType": "uint256",
          "name": "",
          "type": "uint256"
        }
      ],
      "stateMutability": "view",
      "type": "function"
    },
    {
      "inputs": [],
      "name": "getAdmin",
      "outputs": [
        {
          "internalType": "address",
          "name": "admin",
          "type": "address"
        }
      ],
      "stateMutability": "view",
      "type": "function"
    }
  ],
  "bytecode": "0x608060405234801561001057600080fd5b5033600260006101000a81548173ffffffffffffffffffffffffffffffffffffffff021916908373ffffffffffffffffffffffffffffffffffffffff16021790555067016345785d8a0000600581905550614b99806100706000396000f3fe60806040526004361061011f5760003560e01c806391da91c2116100a0578063c8b1467a11610064578063c8b1467a146103cd578063cb80ed271461040a578063d1a3a63414610435578063d4923d4e14610451578063d826f88f1461048e5761011f565b806391da91c214610300578063934209ce1461032b5780639d08ccb014610356578063aa9460e314610398578063b9223946146103c35761011f565b80634458d62a116100e75780634458d62a1461020e578063514fcac71461024b578063616fca9b146102675780636e9960c3146102aa578063860c851a146102d55761011f565b806310c6be2b1461012457806312065fe014610161578063266dc65f1461018c578063337f611e146101a8578063365b98b2146101d1575b600080fd5b34801561013057600080fd5b5061014b60048036038101906101469190613b6f565b6104a5565b6040516101589190613bb5565b60405180910390f35b34801561016d57600080fd5b506101766104f0565b6040516101839190613bb5565b60405180910390f35b6101a660048036038101906101a19190613dfc565b6104f8565b005b3480156101b457600080fd5b506101cf60048036038101906101ca9190613f5d565b61084f565b005b3480156101dd57600080fd5b506101f860048036038101906101f39190613fcc565b610ab8565b6040516102059190614008565b60405180910390f35b34801561021a57600080fd5b5061023560048036038101906102309190614023565b610b02565b6040516102429190614369565b60405180910390f35b61026560048036038101906102609190613fcc565b61129b565b005b34801561027357600080fd5b5061028e60048036038101906102899190613b6f565b6113ca565b6040516102a197969594939291906143d5565b60405180910390f35b3480156102b657600080fd5b506102bf6116d4565b6040516102cc9190614008565b60405180910390f35b3480156102e157600080fd5b506102ea6116fe565b6040516102f79190613bb5565b60405180910390f35b34801561030c57600080fd5b50610315611704565b6040516103229190613bb5565b60405180910390f35b34801561033757600080fd5b50610340611b66565b60405161034d9190614369565b60405180910390f35b34801561036257600080fd5b5061037d60048036038101906103789190613fcc565b61275e565b60405161038f969594939291906144ed565b60405180910390f35b3480156103a457600080fd5b506103ad612be9565b6040516103ba9190614578565b60405180910390f35b6103cb61304c565b005b3480156103d957600080fd5b506103f460048036038101906103ef9190613b6f565b613165565b6040516104019190613bb5565b60405180910390f35b34801561041657600080fd5b5061041f61317d565b60405161042c9190614369565b60405180910390f35b61044f600480360381019061044a9190613fcc565b6135f0565b005b34801561045d57600080fd5b5061047860048036038101906104739190613b6f565b61372e565b6040516104859190613bb5565b60405180910390f35b34801561049a57600080fd5b506104a3613777565b005b60008060008373ffffffffffffffffffffffffffffffffffffffff1673ffffffffffffffffffffffffffffffffffffffff168152602001908152602001600020600101549050919050565b600047905090565b85600081510361053d576040517f08c379a0000000000000000000000000000000000000000000000000000000008152600401610534906145e6565b60405180910390fd5b600554341015610582576040517f08c379a000000000000000000000000000000000000000000000000000000000815260040161057990614678565b60405180910390fd5b60006040518061010001604052803373ffffffffffffffffffffffffffffffffffffffff16815260200160008152602001898152602001888152602001878152602001868152602001858152602001848152509050806000803373ffffffffffffffffffffffffffffffffffffffff1673ffffffffffffffffffffffffffffffffffffffff16815260200190815260200160002060008201518160000160006101000a81548173ffffffffffffffffffffffffffffffffffffffff021916908373ffffffffffffffffffffffffffffffffffffffff160217905550602082015181600101556040820151816002019080519060200190610683929190613880565b5060608201518160030190805190602001906106a0929190613880565b5060808201518160040190805190602001906106bd929190613880565b5060a08201518160050190805190602001906106da929190613906565b5060c08201518160060190805190602001906106f7929190613880565b5060e0820151816007019080519060200190610714929190613880565b50905050600481908060018154018082558091505060019003906000526020600020906008020160009091909190915060008201518160000160006101000a81548173ffffffffffffffffffffffffffffffffffffffff021916908373ffffffffffffffffffffffffffffffffffffffff1602179055506020820151816001015560408201518160020190805190602001906107b1929190613880565b5060608201518160030190805190602001906107ce929190613880565b5060808201518160040190805190602001906107eb929190613880565b5060a0820151816005019080519060200190610808929190613906565b5060c0820151816006019080519060200190610825929190613880565b5060e0820151816007019080519060200190610842929190613880565b5050505050505050505050565b600160003373ffffffffffffffffffffffffffffffffffffffff1673ffffffffffffffffffffffffffffffffffffffff168152602001908152602001600020548311156108d1576040517f08c379a00000000000000000000000000000000000000000000000000000000081526004016108c89061470a565b60405180910390fd5b82600160003373ffffffffffffffffffffffffffffffffffffffff1673ffffffffffffffffffffffffffffffffffffffff16815260200190815260200160002060008282546109209190614759565b92505081905550826000808373ffffffffffffffffffffffffffffffffffffffff1673ffffffffffffffffffffffffffffffffffffffff1681526020019081526020016000206001016000828254610978919061478d565b925050819055506000600480549050905060005b81811015610aa8578273ffffffffffffffffffffffffffffffffffffffff16600482815481106109bf576109be6147e3565b5b906000526020600020906008020160000160009054906101000a900473ffffffffffffffffffffffffffffffffffffffff1673ffffffffffffffffffffffffffffffffffffffff16148015610a535750838051906020012060048281548110610a2b57610a2a6147e3565b5b9060005260206000209060080201600201604051610a499190614911565b6040518091039020145b15610a95578460048281548110610a6d57610a6c6147e3565b5b90600052602060002090600802016001016000828254610a8d919061478d565b925050819055505b8080610aa090614928565b91505061098c565b50610ab1611b66565b5050505050565b60038181548110610ac857600080fd5b906000526020600020016000915090508060000160009054906101000a900473ffffffffffffffffffffffffffffffffffffffff16905081565b60606000600480549050905060005b81811015610d6c573373ffffffffffffffffffffffffffffffffffffffff1660048281548110610b4457610b436147e3565b5b906000526020600020906008020160000160009054906101000a900473ffffffffffffffffffffffffffffffffffffffff1673ffffffffffffffffffffffffffffffffffffffff16148015610bd85750838051906020012060048281548110610bb057610baf6147e3565b5b9060005260206000209060080201600201604051610bce9190614911565b6040518091039020145b15610d59576004600183610bec9190614759565b81548110610bfd57610bfc6147e3565b5b906000526020600020906008020160048281548110610c1f57610c1e6147e3565b5b90600052602060002090600802016000820160009054906101000a900473ffffffffffffffffffffffffffffffffffffffff168160000160006101000a81548173ffffffffffffffffffffffffffffffffffffffff021916908373ffffffffffffffffffffffffffffffffffffffff160217905550600182015481600101556002820181600201908054610cb290614841565b610cbd929190613966565b506003820181600301908054610cd290614841565b610cdd929190613966565b506004820181600401908054610cf290614841565b610cfd929190613966565b506005820181600501908054610d149291906139f3565b506006820181600601908054610d2990614841565b610d34929190613966565b506007820181600701908054610d4990614841565b610d54929190613966565b509050505b8080610d6490614928565b915050610b11565b506004805480610d7f57610d7e614970565b5b6001900381819060005260206000209060080201600080820160006101000a81549073ffffffffffffffffffffffffffffffffffffffff02191690556001820160009055600282016000610dd39190613a5b565b600382016000610de39190613a5b565b600482016000610df39190613a5b565b600582016000610e039190613a9b565b600682016000610e139190613a5b565b600782016000610e239190613a5b565b505090556004805480602002602001604051908101604052809291908181526020016000905b8282101561128f5783829060005260206000209060080201604051806101000160405290816000820160009054906101000a900473ffffffffffffffffffffffffffffffffffffffff1673ffffffffffffffffffffffffffffffffffffffff1673ffffffffffffffffffffffffffffffffffffffff16815260200160018201548152602001600282018054610edd90614841565b80601f0160208091040260200160405190810160405280929190818152602001828054610f0990614841565b8015610f565780601f10610f2b57610100808354040283529160200191610f56565b820191906000526020600020905b815481529060010190602001808311610f3957829003601f168201915b50505050508152602001600382018054610f6f90614841565b80601f0160208091040260200160405190810160405280929190818152602001828054610f9b90614841565b8015610fe85780601f10610fbd57610100808354040283529160200191610fe8565b820191906000526020600020905b815481529060010190602001808311610fcb57829003601f168201915b5050505050815260200160048201805461100190614841565b80601f016020809104026020016040519081016040528092919081815260200182805461102d90614841565b801561107a5780601f1061104f5761010080835404028352916020019161107a565b820191906000526020600020905b81548152906001019060200180831161105d57829003601f168201915b5050505050815260200160058201805480602002602001604051908101604052809291908181526020016000905b828210156111545783829060005260206000200180546110c790614841565b80601f01602080910402602001604051908101604052809291908181526020018280546110f390614841565b80156111405780601f1061111557610100808354040283529160200191611140565b820191906000526020600020905b81548152906001019060200180831161112357829003601f168201915b5050505050815260200190600101906110a8565b50505050815260200160068201805461116c90614841565b80601f016020809104026020016040519081016040528092919081815260200182805461119890614841565b80156111e55780601f106111ba576101008083540402835291602001916111e5565b820191906000526020600020905b8154815290600101906020018083116111c857829003601f168201915b505050505081526020016007820180546111fe90614841565b80601f016020809104026020016040519081016040528092919081815260200182805461122a90614841565b80156112775780601f1061124c57610100808354040283529160200191611277565b820191906000526020600020905b81548152906001019060200180831161125a57829003601f168201915b50505050508152505081526020019060010190610e49565b50505050915050919050565b600160003373ffffffffffffffffffffffffffffffffffffffff1673ffffffffffffffffffffffffffffffffffffffff1681526020019081526020016000205481111561131d576040517f08c379a000000000000000000000000000000000000000000000000000000000815260040161131490614a11565b60405180910390fd5b80600160003373ffffffffffffffffffffffffffffffffffffffff1673ffffffffffffffffffffffffffffffffffffffff168152602001908152602001600020600082825461136c9190614759565b925050819055503373ffffffffffffffffffffffffffffffffffffffff166108fc8260055461139b9190614a31565b9081150290604051600060405180830381858888f193505050501580156113c6573d6000803e3d6000fd5b5050565b60006020528060005260406000206000915090508060000160009054906101000a900473ffffffffffffffffffffffffffffffffffffffff169080600101549080600201805461141990614841565b80601f016020809104026020016040519081016040528092919081815260200182805461144590614841565b80156114925780601f1061146757610100808354040283529160200191611492565b820191906000526020600020905b81548152906001019060200180831161147557829003601f168201915b5050505050908060030180546114a790614841565b80601f01602080910402602001604051908101604052809291908181526020018280546114d390614841565b80156115205780601f106114f557610100808354040283529160200191611520565b820191906000526020600020905b81548152906001019060200180831161150357829003601f168201915b50505050509080600401805461153590614841565b80601f016020809104026020016040519081016040528092919081815260200182805461156190614841565b80156115ae5780601f10611583576101008083540402835291602001916115ae565b820191906000526020600020905b81548152906001019060200180831161159157829003601f168201915b5050505050908060060180546115c390614841565b80601f01602080910402602001604051908101604052809291908181526020018280546115ef90614841565b801561163c5780601f106116115761010080835404028352916020019161163c565b820191906000526020600020905b81548152906001019060200180831161161f57829003601f168201915b50505050509080600701805461165190614841565b80601f016020809104026020016040519081016040528092919081815260200182805461167d90614841565b80156116ca5780601f1061169f576101008083540402835291602001916116ca565b820191906000526020600020905b8154815290600101906020018083116116ad57829003601f168201915b5050505050905087565b6000600260009054906101000a900473ffffffffffffffffffffffffffffffffffffffff16905090565b60055481565b6000806004600160048054905061171b9190614759565b8154811061172c5761172b6147e3565b5b9060005260206000209060080201604051806101000160405290816000820160009054906101000a900473ffffffffffffffffffffffffffffffffffffffff1673ffffffffffffffffffffffffffffffffffffffff1673ffffffffffffffffffffffffffffffffffffffff168152602001600182015481526020016002820180546117b690614841565b80601f01602080910402602001604051908101604052809291908181526020018280546117e290614841565b801561182f5780601f106118045761010080835404028352916020019161182f565b820191906000526020600020905b81548152906001019060200180831161181257829003601f168201915b5050505050815260200160038201805461184890614841565b80601f016020809104026020016040519081016040528092919081815260200182805461187490614841565b80156118c15780601f10611896576101008083540402835291602001916118c1565b820191906000526020600020905b8154815290600101906020018083116118a457829003601f168201915b505050505081526020016004820180546118da90614841565b80601f016020809104026020016040519081016040528092919081815260200182805461190690614841565b80156119535780601f1061192857610100808354040283529160200191611953565b820191906000526020600020905b81548152906001019060200180831161193657829003601f168201915b5050505050815260200160058201805480602002602001604051908101604052809291908181526020016000905b82821015611a2d5783829060005260206000200180546119a090614841565b80601f01602080910402602001604051908101604052809291908181526020018280546119cc90614841565b8015611a195780601f106119ee57610100808354040283529160200191611a19565b820191906000526020600020905b8154815290600101906020018083116119fc57829003601f168201915b505050505081526020019060010190611981565b505050508152602001600682018054611a4590614841565b80601f0160208091040260200160405190810160405280929190818152602001828054611a7190614841565b8015611abe5780601f10611a9357610100808354040283529160200191611abe565b820191906000526020600020905b815481529060010190602001808311611aa157829003601f168201915b50505050508152602001600782018054611ad790614841565b80601f0160208091040260200160405190810160405280929190818152602001828054611b0390614841565b8015611b505780601f10611b2557610100808354040283529160200191611b50565b820191906000526020600020905b815481529060010190602001808311611b3357829003601f168201915b5050505050815250509050806020015191505090565b60606000600480549050905060005b818110156122eb576000600182611b8c919061478d565b90505b828110156122d75760048181548110611bab57611baa6147e3565b5b90600052602060002090600802016001015460048381548110611bd157611bd06147e3565b5b90600052602060002090600802016001015410156122c457600060048281548110611bff57611bfe6147e3565b5b9060005260206000209060080201604051806101000160405290816000820160009054906101000a900473ffffffffffffffffffffffffffffffffffffffff1673ffffffffffffffffffffffffffffffffffffffff1673ffffffffffffffffffffffffffffffffffffffff16815260200160018201548152602001600282018054611c8990614841565b80601f0160208091040260200160405190810160405280929190818152602001828054611cb590614841565b8015611d025780601f10611cd757610100808354040283529160200191611d02565b820191906000526020600020905b815481529060010190602001808311611ce557829003601f168201915b50505050508152602001600382018054611d1b90614841565b80601f0160208091040260200160405190810160405280929190818152602001828054611d4790614841565b8015611d945780601f10611d6957610100808354040283529160200191611d94565b820191906000526020600020905b815481529060010190602001808311611d7757829003601f168201915b50505050508152602001600482018054611dad90614841565b80601f0160208091040260200160405190810160405280929190818152602001828054611dd990614841565b8015611e265780601f10611dfb57610100808354040283529160200191611e26565b820191906000526020600020905b815481529060010190602001808311611e0957829003601f168201915b5050505050815260200160058201805480602002602001604051908101604052809291908181526020016000905b82821015611f00578382906000526020600020018054611e7390614841565b80601f0160208091040260200160405190810160405280929190818152602001828054611e9f90614841565b8015611eec5780601f10611ec157610100808354040283529160200191611eec565b820191906000526020600020905b815481529060010190602001808311611ecf57829003601f168201915b505050505081526020019060010190611e54565b505050508152602001600682018054611f1890614841565b80601f0160208091040260200160405190810160405280929190818152602001828054611f4490614841565b8015611f915780601f10611f6657610100808354040283529160200191611f91565b820191906000526020600020905b815481529060010190602001808311611f7457829003601f168201915b50505050508152602001600782018054611faa90614841565b80601f0160208091040260200160405190810160405280929190818152602001828054611fd690614841565b80156120235780601f10611ff857610100808354040283529160200191612023565b820191906000526020600020905b81548152906001019060200180831161200657829003601f168201915b505050505081525050905060048381548110612042576120416147e3565b5b906000526020600020906008020160048381548110612064576120636147e3565b5b90600052602060002090600802016000820160009054906101000a900473ffffffffffffffffffffffffffffffffffffffff168160000160006101000a81548173ffffffffffffffffffffffffffffffffffffffff021916908373ffffffffffffffffffffffffffffffffffffffff1602179055506001820154816001015560028201816002019080546120f790614841565b612102929190613966565b50600382018160030190805461211790614841565b612122929190613966565b50600482018160040190805461213790614841565b612142929190613966565b5060058201816005019080546121599291906139f3565b50600682018160060190805461216e90614841565b612179929190613966565b50600782018160070190805461218e90614841565b612199929190613966565b5090505080600484815481106121b2576121b16147e3565b5b906000526020600020906008020160008201518160000160006101000a81548173ffffffffffffffffffffffffffffffffffffffff021916908373ffffffffffffffffffffffffffffffffffffffff16021790555060208201518160010155604082015181600201908051906020019061222d929190613880565b50606082015181600301908051906020019061224a929190613880565b506080820151816004019080519060200190612267929190613880565b5060a0820151816005019080519060200190612284929190613906565b5060c08201518160060190805190602001906122a1929190613880565b5060e08201518160070190805190602001906122be929190613880565b50905050505b80806122cf90614928565b915050611b8f565b5080806122e390614928565b915050611b75565b506004805480602002602001604051908101604052809291908181526020016000905b828210156127545783829060005260206000209060080201604051806101000160405290816000820160009054906101000a900473ffffffffffffffffffffffffffffffffffffffff1673ffffffffffffffffffffffffffffffffffffffff1673ffffffffffffffffffffffffffffffffffffffff168152602001600182015481526020016002820180546123a290614841565b80601f01602080910402602001604051908101604052809291908181526020018280546123ce90614841565b801561241b5780601f106123f05761010080835404028352916020019161241b565b820191906000526020600020905b8154815290600101906020018083116123fe57829003601f168201915b5050505050815260200160038201805461243490614841565b80601f016020809104026020016040519081016040528092919081815260200182805461246090614841565b80156124ad5780601f10612482576101008083540402835291602001916124ad565b820191906000526020600020905b81548152906001019060200180831161249057829003601f168201915b505050505081526020016004820180546124c690614841565b80601f01602080910402602001604051908101604052809291908181526020018280546124f290614841565b801561253f5780601f106125145761010080835404028352916020019161253f565b820191906000526020600020905b81548152906001019060200180831161252257829003601f168201915b5050505050815260200160058201805480602002602001604051908101604052809291908181526020016000905b8282101561261957838290600052602060002001805461258c90614841565b80601f01602080910402602001604051908101604052809291908181526020018280546125b890614841565b80156126055780601f106125da57610100808354040283529160200191612605565b820191906000526020600020905b8154815290600101906020018083116125e857829003601f168201915b50505050508152602001906001019061256d565b50505050815260200160068201805461263190614841565b80601f016020809104026020016040519081016040528092919081815260200182805461265d90614841565b80156126aa5780601f1061267f576101008083540402835291602001916126aa565b820191906000526020600020905b81548152906001019060200180831161268d57829003601f168201915b505050505081526020016007820180546126c390614841565b80601f01602080910402602001604051908101604052809291908181526020018280546126ef90614841565b801561273c5780601f106127115761010080835404028352916020019161273c565b820191906000526020600020905b81548152906001019060200180831161271f57829003601f168201915b5050505050815250508152602001906001019061230e565b5050505091505090565b6060806060806060806004878154811061277b5761277a6147e3565b5b9060005260206000209060080201600201600488815481106127a05761279f6147e3565b5b9060005260206000209060080201600301600489815481106127c5576127c46147e3565b5b906000526020600020906008020160040160048a815481106127ea576127e96147e3565b5b906000526020600020906008020160050160048b8154811061280f5761280e6147e3565b5b906000526020600020906008020160060160048c81548110612834576128336147e3565b5b906000526020600020906008020160070185805461285190614841565b80601f016020809104026020016040519081016040528092919081815260200182805461287d90614841565b80156128ca5780601f1061289f576101008083540402835291602001916128ca565b820191906000526020600020905b8154815290600101906020018083116128ad57829003601f168201915b505050505095508480546128dd90614841565b80601f016020809104026020016040519081016040528092919081815260200182805461290990614841565b80156129565780601f1061292b57610100808354040283529160200191612956565b820191906000526020600020905b81548152906001019060200180831161293957829003601f168201915b5050505050945083805461296990614841565b80601f016020809104026020016040519081016040528092919081815260200182805461299590614841565b80156129e25780601f106129b7576101008083540402835291602001916129e2565b820191906000526020600020905b8154815290600101906020018083116129c557829003601f168201915b5050505050935082805480602002602001604051908101604052809291908181526020016000905b82821015612ab6578382906000526020600020018054612a2990614841565b80601f0160208091040260200160405190810160405280929190818152602001828054612a5590614841565b8015612aa25780601f10612a7757610100808354040283529160200191612aa2565b820191906000526020600020905b815481529060010190602001808311612a8557829003601f168201915b505050505081526020019060010190612a0a565b505050509250818054612ac890614841565b80601f0160208091040260200160405190810160405280929190818152602001828054612af490614841565b8015612b415780601f10612b1657610100808354040283529160200191612b41565b820191906000526020600020905b815481529060010190602001808311612b2457829003601f168201915b50505050509150808054612b5490614841565b80601f0160208091040260200160405190810160405280929190818152602001828054612b8090614841565b8015612bcd5780601f10612ba257610100808354040283529160200191612bcd565b820191906000526020600020905b815481529060010190602001808311612bb057829003601f168201915b5050505050905095509550955095509550955091939550919395565b6060600060046001600480549050612c019190614759565b81548110612c1257612c116147e3565b5b9060005260206000209060080201604051806101000160405290816000820160009054906101000a900473ffffffffffffffffffffffffffffffffffffffff1673ffffffffffffffffffffffffffffffffffffffff1673ffffffffffffffffffffffffffffffffffffffff16815260200160018201548152602001600282018054612c9c90614841565b80601f0160208091040260200160405190810160405280929190818152602001828054612cc890614841565b8015612d155780601f10612cea57610100808354040283529160200191612d15565b820191906000526020600020905b815481529060010190602001808311612cf857829003601f168201915b50505050508152602001600382018054612d2e90614841565b80601f0160208091040260200160405190810160405280929190818152602001828054612d5a90614841565b8015612da75780601f10612d7c57610100808354040283529160200191612da7565b820191906000526020600020905b815481529060010190602001808311612d8a57829003601f168201915b50505050508152602001600482018054612dc090614841565b80601f0160208091040260200160405190810160405280929190818152602001828054612dec90614841565b8015612e395780601f10612e0e57610100808354040283529160200191612e39565b820191906000526020600020905b815481529060010190602001808311612e1c57829003601f168201915b5050505050815260200160058201805480602002602001604051908101604052809291908181526020016000905b82821015612f13578382906000526020600020018054612e8690614841565b80601f0160208091040260200160405190810160405280929190818152602001828054612eb290614841565b8015612eff5780601f10612ed457610100808354040283529160200191612eff565b820191906000526020600020905b815481529060010190602001808311612ee257829003601f168201915b505050505081526020019060010190612e67565b505050508152602001600682018054612f2b90614841565b80601f0160208091040260200160405190810160405280929190818152602001828054612f5790614841565b8015612fa45780601f10612f7957610100808354040283529160200191612fa4565b820191906000526020600020905b815481529060010190602001808311612f8757829003601f168201915b50505050508152602001600782018054612fbd90614841565b80601f0160208091040260200160405190810160405280929190818152602001828054612fe990614841565b80156130365780601f1061300b57610100808354040283529160200191613036565b820191906000526020600020905b81548152906001019060200180831161301957829003601f168201915b5050505050815250509050806040015191505090565b600260009054906101000a900473ffffffffffffffffffffffffffffffffffffffff1673ffffffffffffffffffffffffffffffffffffffff163373ffffffffffffffffffffffffffffffffffffffff16146130dc576040517f08c379a00000000000000000000000000000000000000000000000000000000081526004016130d390614ad7565b60405180910390fd5b60006130e6611b66565b90506000816000815181106130fe576130fd6147e3565b5b602002602001015190506000816000015190508073ffffffffffffffffffffffffffffffffffffffff166108fc479081150290604051600060405180830381858888f19350505050158015613157573d6000803e3d6000fd5b50613160613777565b505050565b60016020528060005260406000206000915090505481565b60606004805480602002602001604051908101604052809291908181526020016000905b828210156135e75783829060005260206000209060080201604051806101000160405290816000820160009054906101000a900473ffffffffffffffffffffffffffffffffffffffff1673ffffffffffffffffffffffffffffffffffffffff1673ffffffffffffffffffffffffffffffffffffffff1681526020016001820154815260200160028201805461323590614841565b80601f016020809104026020016040519081016040528092919081815260200182805461326190614841565b80156132ae5780601f10613283576101008083540402835291602001916132ae565b820191906000526020600020905b81548152906001019060200180831161329157829003601f168201915b505050505081526020016003820180546132c790614841565b80601f01602080910402602001604051908101604052809291908181526020018280546132f390614841565b80156133405780601f1061331557610100808354040283529160200191613340565b820191906000526020600020905b81548152906001019060200180831161332357829003601f168201915b5050505050815260200160048201805461335990614841565b80601f016020809104026020016040519081016040528092919081815260200182805461338590614841565b80156133d25780601f106133a7576101008083540402835291602001916133d2565b820191906000526020600020905b8154815290600101906020018083116133b557829003601f168201915b5050505050815260200160058201805480602002602001604051908101604052809291908181526020016000905b828210156134ac57838290600052602060002001805461341f90614841565b80601f016020809104026020016040519081016040528092919081815260200182805461344b90614841565b80156134985780601f1061346d57610100808354040283529160200191613498565b820191906000526020600020905b81548152906001019060200180831161347b57829003601f168201915b505050505081526020019060010190613400565b5050505081526020016006820180546134c490614841565b80601f01602080910402602001604051908101604052809291908181526020018280546134f090614841565b801561353d5780601f106135125761010080835404028352916020019161353d565b820191906000526020600020905b81548152906001019060200180831161352057829003601f168201915b5050505050815260200160078201805461355690614841565b80601f016020809104026020016040519081016040528092919081815260200182805461358290614841565b80156135cf5780601f106135a4576101008083540402835291602001916135cf565b820191906000526020600020905b8154815290600101906020018083116135b257829003601f168201915b505050505081525050815260200190600101906131a1565b50505050905090565b600360405180602001604052803373ffffffffffffffffffffffffffffffffffffffff168152509080600181540180825580915050600190039060005260206000200160009091909190915060008201518160000160006101000a81548173ffffffffffffffffffffffffffffffffffffffff021916908373ffffffffffffffffffffffffffffffffffffffff1602179055505050600554816136939190614a31565b3410156136d5576040517f08c379a00000000000000000000000000000000000000000000000000000000081526004016136cc90614b43565b60405180910390fd5b80600160003373ffffffffffffffffffffffffffffffffffffffff1673ffffffffffffffffffffffffffffffffffffffff1681526020019081526020016000206000828254613724919061478d565b9250508190555050565b6000600160008373ffffffffffffffffffffffffffffffffffffffff1673ffffffffffffffffffffffffffffffffffffffff168152602001908152602001600020549050919050565b6000600480549050905060005b818110156137ca576000600482815481106137a2576137a16147e3565b5b90600052602060002090600802016001018190555080806137c290614928565b915050613784565b506000600380549050905060005b8181101561387b576000806000600384815481106137f9576137f86147e3565b5b9060005260206000200160000160009054906101000a900473ffffffffffffffffffffffffffffffffffffffff1673ffffffffffffffffffffffffffffffffffffffff1673ffffffffffffffffffffffffffffffffffffffff16815260200190815260200160002060010181905550808061387390614928565b9150506137d8565b505050565b82805461388c90614841565b90600052602060002090601f0160209004810192826138ae57600085556138f5565b82601f106138c757805160ff19168380011785556138f5565b828001600101855582156138f5579182015b828111156138f45782518255916020019190600101906138d9565b5b5090506139029190613abc565b5090565b828054828255906000526020600020908101928215613955579160200282015b82811115613954578251829080519060200190613944929190613880565b5091602001919060010190613926565b5b5090506139629190613ad9565b5090565b82805461397290614841565b90600052602060002090601f01602090048101928261399457600085556139e2565b82601f106139a557805485556139e2565b828001600101855582156139e257600052602060002091601f016020900482015b828111156139e15782548255916001019190600101906139c6565b5b5090506139ef9190613abc565b5090565b828054828255906000526020600020908101928215613a4a5760005260206000209182015b82811115613a49578282908054613a2e90614841565b613a39929190613966565b5091600101919060010190613a18565b5b509050613a579190613ad9565b5090565b508054613a6790614841565b6000825580601f10613a795750613a98565b601f016020900490600052602060002090810190613a979190613abc565b5b50565b5080546000825590600052602060002090810190613ab99190613ad9565b50565b5b80821115613ad5576000816000905550600101613abd565b5090565b5b80821115613af95760008181613af09190613a5b565b50600101613ada565b5090565b6000604051905090565b600080fd5b600080fd5b600073ffffffffffffffffffffffffffffffffffffffff82169050919050565b6000613b3c82613b11565b9050919050565b613b4c81613b31565b8114613b5757600080fd5b50565b600081359050613b6981613b43565b92915050565b600060208284031215613b8557613b84613b07565b5b6000613b9384828501613b5a565b91505092915050565b6000819050919050565b613baf81613b9c565b82525050565b6000602082019050613bca6000830184613ba6565b92915050565b600080fd5b600080fd5b6000601f19601f8301169050919050565b7f4e487b7100000000000000000000000000000000000000000000000000000000600052604160045260246000fd5b613c2382613bda565b810181811067ffffffffffffffff82111715613c4257613c41613beb565b5b80604052505050565b6000613c55613afd565b9050613c618282613c1a565b919050565b600067ffffffffffffffff821115613c8157613c80613beb565b5b613c8a82613bda565b9050602081019050919050565b82818337600083830152505050565b6000613cb9613cb484613c66565b613c4b565b905082815260208101848484011115613cd557613cd4613bd5565b5b613ce0848285613c97565b509392505050565b600082601f830112613cfd57613cfc613bd0565b5b8135613d0d848260208601613ca6565b91505092915050565b600067ffffffffffffffff821115613d3157613d30613beb565b5b602082029050602081019050919050565b600080fd5b6000613d5a613d5584613d16565b613c4b565b90508083825260208201905060208402830185811115613d7d57613d7c613d42565b5b835b81811015613dc457803567ffffffffffffffff811115613da257613da1613bd0565b5b808601613daf8982613ce8565b85526020850194505050602081019050613d7f565b5050509392505050565b600082601f830112613de357613de2613bd0565b5b8135613df3848260208601613d47565b91505092915050565b60008060008060008060c08789031215613e1957613e18613b07565b5b600087013567ffffffffffffffff811115613e3757613e36613b0c565b5b613e4389828a01613ce8565b965050602087013567ffffffffffffffff811115613e6457613e63613b0c565b5b613e7089828a01613ce8565b955050604087013567ffffffffffffffff811115613e9157613e90613b0c565b5b613e9d89828a01613ce8565b945050606087013567ffffffffffffffff811115613ebe57613ebd613b0c565b5b613eca89828a01613dce565b935050608087013567ffffffffffffffff811115613eeb57613eea613b0c565b5b613ef789828a01613ce8565b92505060a087013567ffffffffffffffff811115613f1857613f17613b0c565b5b613f2489828a01613ce8565b9150509295509295509295565b613f3a81613b9c565b8114613f4557600080fd5b50565b600081359050613f5781613f31565b92915050565b600080600060608486031215613f7657613f75613b07565b5b6000613f8486828701613f48565b935050602084013567ffffffffffffffff811115613fa557613fa4613b0c565b5b613fb186828701613ce8565b9250506040613fc286828701613b5a565b9150509250925092565b600060208284031215613fe257613fe1613b07565b5b6000613ff084828501613f48565b91505092915050565b61400281613b31565b82525050565b600060208201905061401d6000830184613ff9565b92915050565b60006020828403121561403957614038613b07565b5b600082013567ffffffffffffffff81111561405757614056613b0c565b5b61406384828501613ce8565b91505092915050565b600081519050919050565b600082825260208201905092915050565b6000819050602082019050919050565b6140a181613b31565b82525050565b6140b081613b9c565b82525050565b600081519050919050565b600082825260208201905092915050565b60005b838110156140f05780820151818401526020810190506140d5565b838111156140ff576000848401525b50505050565b6000614110826140b6565b61411a81856140c1565b935061412a8185602086016140d2565b61413381613bda565b840191505092915050565b600081519050919050565b600082825260208201905092915050565b6000819050602082019050919050565b60006141768383614105565b905092915050565b6000602082019050919050565b60006141968261413e565b6141a08185614149565b9350836020820285016141b28561415a565b8060005b858110156141ee57848403895281516141cf858261416a565b94506141da8361417e565b925060208a019950506001810190506141b6565b50829750879550505050505092915050565b6000610100830160008301516142196000860182614098565b50602083015161422c60208601826140a7565b50604083015184820360408601526142448282614105565b9150506060830151848203606086015261425e8282614105565b915050608083015184820360808601526142788282614105565b91505060a083015184820360a0860152614292828261418b565b91505060c083015184820360c08601526142ac8282614105565b91505060e083015184820360e08601526142c68282614105565b9150508091505092915050565b60006142df8383614200565b905092915050565b6000602082019050919050565b60006142ff8261406c565b6143098185614077565b93508360208202850161431b85614088565b8060005b85811015614357578484038952815161433885826142d3565b9450614343836142e7565b925060208a0199505060018101905061431f565b50829750879550505050505092915050565b6000602082019050818103600083015261438381846142f4565b905092915050565b600082825260208201905092915050565b60006143a7826140b6565b6143b1818561438b565b93506143c18185602086016140d2565b6143ca81613bda565b840191505092915050565b600060e0820190506143ea600083018a613ff9565b6143f76020830189613ba6565b8181036040830152614409818861439c565b9050818103606083015261441d818761439c565b90508181036080830152614431818661439c565b905081810360a0830152614445818561439c565b905081810360c0830152614459818461439c565b905098975050505050505050565b600082825260208201905092915050565b60006144838261413e565b61448d8185614467565b93508360208202850161449f8561415a565b8060005b858110156144db57848403895281516144bc858261416a565b94506144c78361417e565b925060208a019950506001810190506144a3565b50829750879550505050505092915050565b600060c0820190508181036000830152614507818961439c565b9050818103602083015261451b818861439c565b9050818103604083015261452f818761439c565b905081810360608301526145438186614478565b90508181036080830152614557818561439c565b905081810360a083015261456b818461439c565b9050979650505050505050565b60006020820190508181036000830152614592818461439c565b905092915050565b7f446f67206e616d652063616e206e6f7420626520656d70747921000000000000600082015250565b60006145d0601a8361438b565b91506145db8261459a565b602082019050919050565b600060208201905081810360008301526145ff816145c3565b9050919050565b7f4e6f7420656e6f756768206d6f6e657920746f20637265617465206120646f6760008201527f2070726f66696c65000000000000000000000000000000000000000000000000602082015250565b600061466260288361438b565b915061466d82614606565b604082019050919050565b6000602082019050818103600083015261469181614655565b9050919050565b7f596f752063616e277420766f7465206d6f726520766f746573207468616e207960008201527f6f75206861766521000000000000000000000000000000000000000000000000602082015250565b60006146f460288361438b565b91506146ff82614698565b604082019050919050565b60006020820190508181036000830152614723816146e7565b9050919050565b7f4e487b7100000000000000000000000000000000000000000000000000000000600052601160045260246000fd5b600061476482613b9c565b915061476f83613b9c565b9250828210156147825761478161472a565b5b828203905092915050565b600061479882613b9c565b91506147a383613b9c565b9250827fffffffffffffffffffffffffffffffffffffffffffffffffffffffffffffffff038211156147d8576147d761472a565b5b828201905092915050565b7f4e487b7100000000000000000000000000000000000000000000000000000000600052603260045260246000fd5b7f4e487b7100000000000000000000000000000000000000000000000000000000600052602260045260246000fd5b6000600282049050600182168061485957607f821691505b60208210810361486c5761486b614812565b5b50919050565b600081905092915050565b60008190508160005260206000209050919050565b6000815461489f81614841565b6148a98186614872565b945060018216600081146148c457600181146148d557614908565b60ff19831686528186019350614908565b6148de8561487d565b60005b83811015614900578154818901526001820191506020810190506148e1565b838801955050505b50505092915050565b600061491d8284614892565b915081905092915050565b600061493382613b9c565b91507fffffffffffffffffffffffffffffffffffffffffffffffffffffffffffffffff82036149655761496461472a565b5b600182019050919050565b7f4e487b7100000000000000000000000000000000000000000000000000000000600052603160045260246000fd5b7f7265717565737465642063616e63656c20766f7465732065786365656465642060008201527f74686520746f74616c20766f74657320617661696c61626c6500000000000000602082015250565b60006149fb60398361438b565b9150614a068261499f565b604082019050919050565b60006020820190508181036000830152614a2a816149ee565b9050919050565b6000614a3c82613b9c565b9150614a4783613b9c565b9250817fffffffffffffffffffffffffffffffffffffffffffffffffffffffffffffffff0483118215151615614a8057614a7f61472a565b5b828202905092915050565b7f6f6e6c79207468652061646d696e2063616e20656e6420766f74650000000000600082015250565b6000614ac1601b8361438b565b9150614acc82614a8b565b602082019050919050565b60006020820190508181036000830152614af081614ab4565b9050919050565b7f4e6f7420656e6f756768206d6f6e657920746f20627579206120766f74650000600082015250565b6000614b2d601e8361438b565b9150614b3882614af7565b602082019050919050565b60006020820190508181036000830152614b5c81614b20565b905091905056fea264697066735822122061ecad43d7fce4b1f3bdd66d8f10d48307bcb7e58d5d8335e86a02a3d505ace764736f6c634300080d0033",
  "immutableReferences": {},
  "source": "//SPDX-License-Identifier: MIT\npragma solidity ^0.8.0;\n\ncontract PuppyVote{\n\n    struct User{\n        address userAddress; \n    } \n    \n    struct Dog{\n        address ownerAddress; \n        uint numVote;\n        string puppyName;\n        string gender;\n        string dateOfBirth;\n        string[] tags;\n        string description;\n        string dogPicture;\n    }\n\n    mapping(address => Dog) public adopt;   // a user has a dog\n    mapping(address => uint256) public userVoteBalance;// the number of votes user has confirmed\n    \n    address owner;\n    User[] public users;\n    Dog[] dogs;\n    \n    uint public votePrice;\n\n    constructor() {\n        owner = msg.sender;\n        votePrice = 100000000000000000; // 0.1 ether\n    }\n\n    modifier notEmpty (string memory _input) {\n        require(bytes(_input).length!= 0, \"Dog name can not be empty!\");\n        _;\n    }\n\n    function createDogProfile(string memory _name, string memory _gender, string memory _birthday, string[] memory _tags, string memory _description, string memory _dogPicture) public payable notEmpty (_name){\n        //users.push(User(msg.sender)); \n        //get info from web \n        require(msg.value >= votePrice, \"Not enough money to create a dog profile\"); //transfer to sc addr by default\n        Dog memory newDog = Dog(msg.sender, 0, _name, _gender, _birthday, _tags, _description, _dogPicture);\n        adopt[msg.sender] = newDog;\n        dogs.push(newDog);\n    }\n    function deleteDogProfile(string memory _dogName) public returns (Dog[] memory){\n            uint256 l = dogs.length;\n            for (uint i = 0; i < l; i++){\n                if(dogs[i].ownerAddress == msg.sender && keccak256(bytes(dogs[i].puppyName)) == keccak256(bytes(_dogName))){\n                    dogs[i] = dogs[l - 1];\n                }\n            }\n            dogs.pop();\n            return dogs;\n    }\n    // there should be some input protection in the front end\n    function buyVote(uint256 _buyVoteNum) public payable{\n        users.push(User(msg.sender));\n        require(msg.value >= _buyVoteNum * votePrice, \"Not enough money to buy a vote\"); //transfer to sc addr by default\n        userVoteBalance[msg.sender] += _buyVoteNum;\n        //payable(owner).transfer(_buyVoteNum * votePrice);\n        // addressshg(this): the address of the smart contract\n        //transferMoney(address(this), _buyVoteNum);\n        //bool flag = payable(address(this)).send(100000000000000000);\n        //require(flag == true, \"failure of sending the money\");\n        \n        //payable(address(this)).transfer(votePrice);\n    }\n\n    function cancelOrder(uint256 _cancelVoteNum) public payable{\n        require(_cancelVoteNum <= userVoteBalance[msg.sender], \"requested cancel votes exceeded the total votes available\");\n        userVoteBalance[msg.sender] -= _cancelVoteNum;\n        payable(msg.sender).transfer(votePrice * _cancelVoteNum);\n    }\n\n    // to: get the money, source of pain\n    // function transferMoney(address _to, uint256 _voteNum) public payable returns (bool success) {\n    //     require(msg.value >= _voteNum * votePrice, \"Not enough ether\");\n    //     payable(_to).transfer(_voteNum * votePrice);\n    //     return true;\n    // }\n\n    function vote(uint256 _voteNum, string memory _dogName, address dogOwner) public{\n        require(_voteNum <= userVoteBalance[msg.sender], \"You can't vote more votes than you have!\");\n        userVoteBalance[msg.sender] -= _voteNum;\n        adopt[dogOwner].numVote += _voteNum;//update dog's vote\n        uint256 l = dogs.length;\n        for (uint i = 0; i < l; i++) {\n            if(dogs[i].ownerAddress == dogOwner && keccak256(bytes(dogs[i].puppyName)) == keccak256(bytes(_dogName))) {\n                dogs[i].numVote += _voteNum;\n            }\n        }\n        rank();//update leader board\n    }\n\n    // calculate the winner, and return money to the winner\n    function endVote() public payable{\n        require(msg.sender == owner, \"only the admin can end vote\");\n        Dog[] memory result = rank();\n        // the winning dog\n        Dog memory winningDog = result[0];\n        address winner = winningDog.ownerAddress;\n        payable(winner).transfer(address(this).balance);\n        //payable(owner).transfer(address(this).balance);//transfer money back to owner\n        reset();\n    }\n\n    function rank() public returns (Dog[] memory){\n        uint256 l = dogs.length;\n        for (uint i = 0; i < l; i++) {\n            for (uint j = i + 1; j < l; j++) {\n                if(dogs[i].numVote < dogs[j].numVote){\n                    Dog memory tmp = dogs[j];\n                    dogs[j] = dogs[i];\n                    dogs[i] = tmp;\n                }\n            }\n        }\n        return dogs;\n    }\n\n    function reset() public {\n        uint256 l = dogs.length;\n        for (uint i = 0; i < l; i++) {\n            dogs[i].numVote=0;//reset to zero\n        }\n        uint256 len = users.length;\n\n        for (uint i = 0; i < len; i++) {\n            adopt[users[i].userAddress].numVote=0;//reset to zero\n        }\n    }\n    \n    function getDogs() public view returns (Dog[] memory) {\n        return dogs;\n    }\n\n    function getDogByIndex(uint index) public view returns(string memory, string memory, string memory, string[] memory, string memory, string memory) {\n        return (dogs[index].puppyName, dogs[index].gender, dogs[index].dateOfBirth, dogs[index].tags, dogs[index].description, dogs[index].dogPicture);\n    }\n\n    function getLastDogName() public view returns (string memory) {\n        Dog memory dog = dogs[dogs.length-1];\n        return dog.puppyName;\n    }\n\n    function getLastDogVote() public view returns (uint256) {\n        Dog memory dog = dogs[dogs.length-1];\n        return dog.numVote;\n    }\n\n    function getUserVote(address addr) public view returns (uint256 ) {\n        return userVoteBalance[addr];\n    }\n\n    function getAdoptDogVote(address addr) public view returns (uint256 ) {\n        return adopt[addr].numVote;\n    }\n\n       //get balance\n    function getBalance() public view returns (uint) {\n        return address(this).balance;\n    }\n\n    function getAdmin() public view returns (address admin) {\n        return owner;\n    }\n}\n",
  "sourcePath": "/Users/hannahwong/Desktop/0408/571G_Project/my-app/src/contracts/PuppyVote.sol",
  "compiler": {
    "name": "solc",
    "version": "0.8.13+commit.abaa5c0e.Emscripten.clang"
  },
  "schemaVersion": "3.4.6",
  "updatedAt": "2022-04-08T23:39:47.902Z",
  "devdoc": {
    "kind": "dev",
    "methods": {},
    "version": 1
  },
  "userdoc": {
    "kind": "user",
    "methods": {},
    "version": 1
  }
}