{
  "contractName": "PuppyVote",
  "abi": [
    {
      "inputs": [],
      "stateMutability": "nonpayable",
      "type": "constructor"
    },
    {
      "inputs": [
        {
          "internalType": "address",
          "name": "",
          "type": "address"
        }
      ],
      "name": "adopt",
      "outputs": [
        {
          "internalType": "address",
          "name": "ownerAddress",
          "type": "address"
        },
        {
          "internalType": "uint256",
          "name": "numVote",
          "type": "uint256"
        },
        {
          "internalType": "string",
          "name": "puppyName",
          "type": "string"
        },
        {
          "internalType": "string",
          "name": "gender",
          "type": "string"
        },
        {
          "internalType": "string",
          "name": "dateOfBirth",
          "type": "string"
        },
        {
          "internalType": "string",
          "name": "description",
          "type": "string"
        },
        {
          "internalType": "string",
          "name": "dogPicture",
          "type": "string"
        }
      ],
      "stateMutability": "view",
      "type": "function",
      "constant": true
    },
    {
      "inputs": [
        {
          "internalType": "address",
          "name": "",
          "type": "address"
        }
      ],
      "name": "userVoteBalance",
      "outputs": [
        {
          "internalType": "uint256",
          "name": "",
          "type": "uint256"
        }
      ],
      "stateMutability": "view",
      "type": "function",
      "constant": true
    },
    {
      "inputs": [
        {
          "internalType": "uint256",
          "name": "",
          "type": "uint256"
        }
      ],
      "name": "users",
      "outputs": [
        {
          "internalType": "address",
          "name": "userAddress",
          "type": "address"
        }
      ],
      "stateMutability": "view",
      "type": "function",
      "constant": true
    },
    {
      "inputs": [],
      "name": "votePrice",
      "outputs": [
        {
          "internalType": "uint256",
          "name": "",
          "type": "uint256"
        }
      ],
      "stateMutability": "view",
      "type": "function",
      "constant": true
    },
    {
      "inputs": [
        {
          "internalType": "string",
          "name": "_name",
          "type": "string"
        },
        {
          "internalType": "string",
          "name": "_gender",
          "type": "string"
        },
        {
          "internalType": "string",
          "name": "_birthday",
          "type": "string"
        },
        {
          "internalType": "string[]",
          "name": "_tags",
          "type": "string[]"
        },
        {
          "internalType": "string",
          "name": "_description",
          "type": "string"
        },
        {
          "internalType": "string",
          "name": "_dogPicture",
          "type": "string"
        }
      ],
      "name": "createDogProfile",
      "outputs": [],
      "stateMutability": "payable",
      "type": "function",
      "payable": true
    },
    {
      "inputs": [
        {
          "internalType": "uint256",
          "name": "_buyVoteNum",
          "type": "uint256"
        }
      ],
      "name": "buyVote",
      "outputs": [],
      "stateMutability": "payable",
      "type": "function",
      "payable": true
    },
    {
      "inputs": [
        {
          "internalType": "uint256",
          "name": "_cancelVoteNum",
          "type": "uint256"
        }
      ],
      "name": "cancelOrder",
      "outputs": [],
      "stateMutability": "payable",
      "type": "function",
      "payable": true
    },
    {
      "inputs": [
        {
          "internalType": "uint256",
          "name": "_voteNum",
          "type": "uint256"
        },
        {
          "internalType": "string",
          "name": "_dogName",
          "type": "string"
        },
        {
          "internalType": "address",
          "name": "dogOwner",
          "type": "address"
        }
      ],
      "name": "vote",
      "outputs": [],
      "stateMutability": "nonpayable",
      "type": "function"
    },
    {
      "inputs": [],
      "name": "endVote",
      "outputs": [],
      "stateMutability": "payable",
      "type": "function",
      "payable": true
    },
    {
      "inputs": [],
      "name": "rank",
      "outputs": [
        {
          "components": [
            {
              "internalType": "address",
              "name": "ownerAddress",
              "type": "address"
            },
            {
              "internalType": "uint256",
              "name": "numVote",
              "type": "uint256"
            },
            {
              "internalType": "string",
              "name": "puppyName",
              "type": "string"
            },
            {
              "internalType": "string",
              "name": "gender",
              "type": "string"
            },
            {
              "internalType": "string",
              "name": "dateOfBirth",
              "type": "string"
            },
            {
              "internalType": "string[]",
              "name": "tags",
              "type": "string[]"
            },
            {
              "internalType": "string",
              "name": "description",
              "type": "string"
            },
            {
              "internalType": "string",
              "name": "dogPicture",
              "type": "string"
            }
          ],
          "internalType": "struct PuppyVote.Dog[]",
          "name": "",
          "type": "tuple[]"
        }
      ],
      "stateMutability": "nonpayable",
      "type": "function"
    },
    {
      "inputs": [],
      "name": "reset",
      "outputs": [],
      "stateMutability": "nonpayable",
      "type": "function"
    },
    {
      "inputs": [],
      "name": "getDogs",
      "outputs": [
        {
          "components": [
            {
              "internalType": "address",
              "name": "ownerAddress",
              "type": "address"
            },
            {
              "internalType": "uint256",
              "name": "numVote",
              "type": "uint256"
            },
            {
              "internalType": "string",
              "name": "puppyName",
              "type": "string"
            },
            {
              "internalType": "string",
              "name": "gender",
              "type": "string"
            },
            {
              "internalType": "string",
              "name": "dateOfBirth",
              "type": "string"
            },
            {
              "internalType": "string[]",
              "name": "tags",
              "type": "string[]"
            },
            {
              "internalType": "string",
              "name": "description",
              "type": "string"
            },
            {
              "internalType": "string",
              "name": "dogPicture",
              "type": "string"
            }
          ],
          "internalType": "struct PuppyVote.Dog[]",
          "name": "",
          "type": "tuple[]"
        }
      ],
      "stateMutability": "view",
      "type": "function",
      "constant": true
    },
    {
      "inputs": [
        {
          "internalType": "uint256",
          "name": "index",
          "type": "uint256"
        }
      ],
      "name": "getDogByIndex",
      "outputs": [
        {
          "internalType": "string",
          "name": "",
          "type": "string"
        },
        {
          "internalType": "string",
          "name": "",
          "type": "string"
        },
        {
          "internalType": "string",
          "name": "",
          "type": "string"
        },
        {
          "internalType": "string[]",
          "name": "",
          "type": "string[]"
        },
        {
          "internalType": "string",
          "name": "",
          "type": "string"
        },
        {
          "internalType": "string",
          "name": "",
          "type": "string"
        }
      ],
      "stateMutability": "view",
      "type": "function",
      "constant": true
    },
    {
      "inputs": [],
      "name": "getLastDogName",
      "outputs": [
        {
          "internalType": "string",
          "name": "",
          "type": "string"
        }
      ],
      "stateMutability": "view",
      "type": "function",
      "constant": true
    },
    {
      "inputs": [],
      "name": "getLastDogVote",
      "outputs": [
        {
          "internalType": "uint256",
          "name": "",
          "type": "uint256"
        }
      ],
      "stateMutability": "view",
      "type": "function",
      "constant": true
    },
    {
      "inputs": [
        {
          "internalType": "address",
          "name": "addr",
          "type": "address"
        }
      ],
      "name": "getUserVote",
      "outputs": [
        {
          "internalType": "uint256",
          "name": "",
          "type": "uint256"
        }
      ],
      "stateMutability": "view",
      "type": "function",
      "constant": true
    },
    {
      "inputs": [
        {
          "internalType": "address",
          "name": "addr",
          "type": "address"
        }
      ],
      "name": "getAdoptDogVote",
      "outputs": [
        {
          "internalType": "uint256",
          "name": "",
          "type": "uint256"
        }
      ],
      "stateMutability": "view",
      "type": "function",
      "constant": true
    },
    {
      "inputs": [],
      "name": "getBalance",
      "outputs": [
        {
          "internalType": "uint256",
          "name": "",
          "type": "uint256"
        }
      ],
      "stateMutability": "view",
      "type": "function",
      "constant": true
    }
  ],
  "bytecode": "0x608060405234801561001057600080fd5b5033600260006101000a81548173ffffffffffffffffffffffffffffffffffffffff021916908373ffffffffffffffffffffffffffffffffffffffff16021790555067016345785d8a00006005819055506142bf806100706000396000f3fe6080604052600436106101095760003560e01c8063934209ce11610095578063c8b1467a11610064578063c8b1467a1461034f578063cb80ed271461038c578063d1a3a634146103b7578063d4923d4e146103d3578063d826f88f1461041057610109565b8063934209ce146102ad5780639d08ccb0146102d8578063aa9460e31461031a578063b92239461461034557610109565b8063365b98b2116100dc578063365b98b2146101bb578063514fcac7146101f8578063616fca9b14610214578063860c851a1461025757806391da91c21461028257610109565b806310c6be2b1461010e57806312065fe01461014b578063266dc65f14610176578063337f611e14610192575b600080fd5b34801561011a57600080fd5b506101356004803603810190610130919061330d565b610427565b6040516101429190613353565b60405180910390f35b34801561015757600080fd5b50610160610472565b60405161016d9190613353565b60405180910390f35b610190600480360381019061018b919061359a565b61047a565b005b34801561019e57600080fd5b506101b960048036038101906101b491906136fb565b6107d1565b005b3480156101c757600080fd5b506101e260048036038101906101dd919061376a565b610a3a565b6040516101ef91906137a6565b60405180910390f35b610212600480360381019061020d919061376a565b610a84565b005b34801561022057600080fd5b5061023b6004803603810190610236919061330d565b610bb3565b60405161024e9796959493929190613849565b60405180910390f35b34801561026357600080fd5b5061026c610ebd565b6040516102799190613353565b60405180910390f35b34801561028e57600080fd5b50610297610ec3565b6040516102a49190613353565b60405180910390f35b3480156102b957600080fd5b506102c2611325565b6040516102cf9190613b9a565b60405180910390f35b3480156102e457600080fd5b506102ff60048036038101906102fa919061376a565b611f1d565b60405161031196959493929190613c42565b60405180910390f35b34801561032657600080fd5b5061032f6123a8565b60405161033c9190613ccd565b60405180910390f35b61034d61280b565b005b34801561035b57600080fd5b506103766004803603810190610371919061330d565b612924565b6040516103839190613353565b60405180910390f35b34801561039857600080fd5b506103a161293c565b6040516103ae9190613b9a565b60405180910390f35b6103d160048036038101906103cc919061376a565b612daf565b005b3480156103df57600080fd5b506103fa60048036038101906103f5919061330d565b612eed565b6040516104079190613353565b60405180910390f35b34801561041c57600080fd5b50610425612f36565b005b60008060008373ffffffffffffffffffffffffffffffffffffffff1673ffffffffffffffffffffffffffffffffffffffff168152602001908152602001600020600101549050919050565b600047905090565b8560008151036104bf576040517f08c379a00000000000000000000000000000000000000000000000000000000081526004016104b690613d3b565b60405180910390fd5b600554341015610504576040517f08c379a00000000000000000000000000000000000000000000000000000000081526004016104fb90613dcd565b60405180910390fd5b60006040518061010001604052803373ffffffffffffffffffffffffffffffffffffffff16815260200160008152602001898152602001888152602001878152602001868152602001858152602001848152509050806000803373ffffffffffffffffffffffffffffffffffffffff1673ffffffffffffffffffffffffffffffffffffffff16815260200190815260200160002060008201518160000160006101000a81548173ffffffffffffffffffffffffffffffffffffffff021916908373ffffffffffffffffffffffffffffffffffffffff16021790555060208201518160010155604082015181600201908051906020019061060592919061303f565b50606082015181600301908051906020019061062292919061303f565b50608082015181600401908051906020019061063f92919061303f565b5060a082015181600501908051906020019061065c9291906130c5565b5060c082015181600601908051906020019061067992919061303f565b5060e082015181600701908051906020019061069692919061303f565b50905050600481908060018154018082558091505060019003906000526020600020906008020160009091909190915060008201518160000160006101000a81548173ffffffffffffffffffffffffffffffffffffffff021916908373ffffffffffffffffffffffffffffffffffffffff16021790555060208201518160010155604082015181600201908051906020019061073392919061303f565b50606082015181600301908051906020019061075092919061303f565b50608082015181600401908051906020019061076d92919061303f565b5060a082015181600501908051906020019061078a9291906130c5565b5060c08201518160060190805190602001906107a792919061303f565b5060e08201518160070190805190602001906107c492919061303f565b5050505050505050505050565b600160003373ffffffffffffffffffffffffffffffffffffffff1673ffffffffffffffffffffffffffffffffffffffff16815260200190815260200160002054831115610853576040517f08c379a000000000000000000000000000000000000000000000000000000000815260040161084a90613e5f565b60405180910390fd5b82600160003373ffffffffffffffffffffffffffffffffffffffff1673ffffffffffffffffffffffffffffffffffffffff16815260200190815260200160002060008282546108a29190613eae565b92505081905550826000808373ffffffffffffffffffffffffffffffffffffffff1673ffffffffffffffffffffffffffffffffffffffff16815260200190815260200160002060010160008282546108fa9190613ee2565b925050819055506000600480549050905060005b81811015610a2a578273ffffffffffffffffffffffffffffffffffffffff166004828154811061094157610940613f38565b5b906000526020600020906008020160000160009054906101000a900473ffffffffffffffffffffffffffffffffffffffff1673ffffffffffffffffffffffffffffffffffffffff161480156109d557508380519060200120600482815481106109ad576109ac613f38565b5b90600052602060002090600802016002016040516109cb9190614066565b6040518091039020145b15610a175784600482815481106109ef576109ee613f38565b5b90600052602060002090600802016001016000828254610a0f9190613ee2565b925050819055505b8080610a229061407d565b91505061090e565b50610a33611325565b5050505050565b60038181548110610a4a57600080fd5b906000526020600020016000915090508060000160009054906101000a900473ffffffffffffffffffffffffffffffffffffffff16905081565b600160003373ffffffffffffffffffffffffffffffffffffffff1673ffffffffffffffffffffffffffffffffffffffff16815260200190815260200160002054811115610b06576040517f08c379a0000000000000000000000000000000000000000000000000000000008152600401610afd90614137565b60405180910390fd5b80600160003373ffffffffffffffffffffffffffffffffffffffff1673ffffffffffffffffffffffffffffffffffffffff1681526020019081526020016000206000828254610b559190613eae565b925050819055503373ffffffffffffffffffffffffffffffffffffffff166108fc82600554610b849190614157565b9081150290604051600060405180830381858888f19350505050158015610baf573d6000803e3d6000fd5b5050565b60006020528060005260406000206000915090508060000160009054906101000a900473ffffffffffffffffffffffffffffffffffffffff1690806001015490806002018054610c0290613f96565b80601f0160208091040260200160405190810160405280929190818152602001828054610c2e90613f96565b8015610c7b5780601f10610c5057610100808354040283529160200191610c7b565b820191906000526020600020905b815481529060010190602001808311610c5e57829003601f168201915b505050505090806003018054610c9090613f96565b80601f0160208091040260200160405190810160405280929190818152602001828054610cbc90613f96565b8015610d095780601f10610cde57610100808354040283529160200191610d09565b820191906000526020600020905b815481529060010190602001808311610cec57829003601f168201915b505050505090806004018054610d1e90613f96565b80601f0160208091040260200160405190810160405280929190818152602001828054610d4a90613f96565b8015610d975780601f10610d6c57610100808354040283529160200191610d97565b820191906000526020600020905b815481529060010190602001808311610d7a57829003601f168201915b505050505090806006018054610dac90613f96565b80601f0160208091040260200160405190810160405280929190818152602001828054610dd890613f96565b8015610e255780601f10610dfa57610100808354040283529160200191610e25565b820191906000526020600020905b815481529060010190602001808311610e0857829003601f168201915b505050505090806007018054610e3a90613f96565b80601f0160208091040260200160405190810160405280929190818152602001828054610e6690613f96565b8015610eb35780601f10610e8857610100808354040283529160200191610eb3565b820191906000526020600020905b815481529060010190602001808311610e9657829003601f168201915b5050505050905087565b60055481565b60008060046001600480549050610eda9190613eae565b81548110610eeb57610eea613f38565b5b9060005260206000209060080201604051806101000160405290816000820160009054906101000a900473ffffffffffffffffffffffffffffffffffffffff1673ffffffffffffffffffffffffffffffffffffffff1673ffffffffffffffffffffffffffffffffffffffff16815260200160018201548152602001600282018054610f7590613f96565b80601f0160208091040260200160405190810160405280929190818152602001828054610fa190613f96565b8015610fee5780601f10610fc357610100808354040283529160200191610fee565b820191906000526020600020905b815481529060010190602001808311610fd157829003601f168201915b5050505050815260200160038201805461100790613f96565b80601f016020809104026020016040519081016040528092919081815260200182805461103390613f96565b80156110805780601f1061105557610100808354040283529160200191611080565b820191906000526020600020905b81548152906001019060200180831161106357829003601f168201915b5050505050815260200160048201805461109990613f96565b80601f01602080910402602001604051908101604052809291908181526020018280546110c590613f96565b80156111125780601f106110e757610100808354040283529160200191611112565b820191906000526020600020905b8154815290600101906020018083116110f557829003601f168201915b5050505050815260200160058201805480602002602001604051908101604052809291908181526020016000905b828210156111ec57838290600052602060002001805461115f90613f96565b80601f016020809104026020016040519081016040528092919081815260200182805461118b90613f96565b80156111d85780601f106111ad576101008083540402835291602001916111d8565b820191906000526020600020905b8154815290600101906020018083116111bb57829003601f168201915b505050505081526020019060010190611140565b50505050815260200160068201805461120490613f96565b80601f016020809104026020016040519081016040528092919081815260200182805461123090613f96565b801561127d5780601f106112525761010080835404028352916020019161127d565b820191906000526020600020905b81548152906001019060200180831161126057829003601f168201915b5050505050815260200160078201805461129690613f96565b80601f01602080910402602001604051908101604052809291908181526020018280546112c290613f96565b801561130f5780601f106112e45761010080835404028352916020019161130f565b820191906000526020600020905b8154815290600101906020018083116112f257829003601f168201915b5050505050815250509050806020015191505090565b60606000600480549050905060005b81811015611aaa57600060018261134b9190613ee2565b90505b82811015611a96576004818154811061136a57611369613f38565b5b906000526020600020906008020160010154600483815481106113905761138f613f38565b5b9060005260206000209060080201600101541015611a83576000600482815481106113be576113bd613f38565b5b9060005260206000209060080201604051806101000160405290816000820160009054906101000a900473ffffffffffffffffffffffffffffffffffffffff1673ffffffffffffffffffffffffffffffffffffffff1673ffffffffffffffffffffffffffffffffffffffff1681526020016001820154815260200160028201805461144890613f96565b80601f016020809104026020016040519081016040528092919081815260200182805461147490613f96565b80156114c15780601f10611496576101008083540402835291602001916114c1565b820191906000526020600020905b8154815290600101906020018083116114a457829003601f168201915b505050505081526020016003820180546114da90613f96565b80601f016020809104026020016040519081016040528092919081815260200182805461150690613f96565b80156115535780601f1061152857610100808354040283529160200191611553565b820191906000526020600020905b81548152906001019060200180831161153657829003601f168201915b5050505050815260200160048201805461156c90613f96565b80601f016020809104026020016040519081016040528092919081815260200182805461159890613f96565b80156115e55780601f106115ba576101008083540402835291602001916115e5565b820191906000526020600020905b8154815290600101906020018083116115c857829003601f168201915b5050505050815260200160058201805480602002602001604051908101604052809291908181526020016000905b828210156116bf57838290600052602060002001805461163290613f96565b80601f016020809104026020016040519081016040528092919081815260200182805461165e90613f96565b80156116ab5780601f10611680576101008083540402835291602001916116ab565b820191906000526020600020905b81548152906001019060200180831161168e57829003601f168201915b505050505081526020019060010190611613565b5050505081526020016006820180546116d790613f96565b80601f016020809104026020016040519081016040528092919081815260200182805461170390613f96565b80156117505780601f1061172557610100808354040283529160200191611750565b820191906000526020600020905b81548152906001019060200180831161173357829003601f168201915b5050505050815260200160078201805461176990613f96565b80601f016020809104026020016040519081016040528092919081815260200182805461179590613f96565b80156117e25780601f106117b7576101008083540402835291602001916117e2565b820191906000526020600020905b8154815290600101906020018083116117c557829003601f168201915b50505050508152505090506004838154811061180157611800613f38565b5b90600052602060002090600802016004838154811061182357611822613f38565b5b90600052602060002090600802016000820160009054906101000a900473ffffffffffffffffffffffffffffffffffffffff168160000160006101000a81548173ffffffffffffffffffffffffffffffffffffffff021916908373ffffffffffffffffffffffffffffffffffffffff1602179055506001820154816001015560028201816002019080546118b690613f96565b6118c1929190613125565b5060038201816003019080546118d690613f96565b6118e1929190613125565b5060048201816004019080546118f690613f96565b611901929190613125565b5060058201816005019080546119189291906131b2565b50600682018160060190805461192d90613f96565b611938929190613125565b50600782018160070190805461194d90613f96565b611958929190613125565b50905050806004848154811061197157611970613f38565b5b906000526020600020906008020160008201518160000160006101000a81548173ffffffffffffffffffffffffffffffffffffffff021916908373ffffffffffffffffffffffffffffffffffffffff1602179055506020820151816001015560408201518160020190805190602001906119ec92919061303f565b506060820151816003019080519060200190611a0992919061303f565b506080820151816004019080519060200190611a2692919061303f565b5060a0820151816005019080519060200190611a439291906130c5565b5060c0820151816006019080519060200190611a6092919061303f565b5060e0820151816007019080519060200190611a7d92919061303f565b50905050505b8080611a8e9061407d565b91505061134e565b508080611aa29061407d565b915050611334565b506004805480602002602001604051908101604052809291908181526020016000905b82821015611f135783829060005260206000209060080201604051806101000160405290816000820160009054906101000a900473ffffffffffffffffffffffffffffffffffffffff1673ffffffffffffffffffffffffffffffffffffffff1673ffffffffffffffffffffffffffffffffffffffff16815260200160018201548152602001600282018054611b6190613f96565b80601f0160208091040260200160405190810160405280929190818152602001828054611b8d90613f96565b8015611bda5780601f10611baf57610100808354040283529160200191611bda565b820191906000526020600020905b815481529060010190602001808311611bbd57829003601f168201915b50505050508152602001600382018054611bf390613f96565b80601f0160208091040260200160405190810160405280929190818152602001828054611c1f90613f96565b8015611c6c5780601f10611c4157610100808354040283529160200191611c6c565b820191906000526020600020905b815481529060010190602001808311611c4f57829003601f168201915b50505050508152602001600482018054611c8590613f96565b80601f0160208091040260200160405190810160405280929190818152602001828054611cb190613f96565b8015611cfe5780601f10611cd357610100808354040283529160200191611cfe565b820191906000526020600020905b815481529060010190602001808311611ce157829003601f168201915b5050505050815260200160058201805480602002602001604051908101604052809291908181526020016000905b82821015611dd8578382906000526020600020018054611d4b90613f96565b80601f0160208091040260200160405190810160405280929190818152602001828054611d7790613f96565b8015611dc45780601f10611d9957610100808354040283529160200191611dc4565b820191906000526020600020905b815481529060010190602001808311611da757829003601f168201915b505050505081526020019060010190611d2c565b505050508152602001600682018054611df090613f96565b80601f0160208091040260200160405190810160405280929190818152602001828054611e1c90613f96565b8015611e695780601f10611e3e57610100808354040283529160200191611e69565b820191906000526020600020905b815481529060010190602001808311611e4c57829003601f168201915b50505050508152602001600782018054611e8290613f96565b80601f0160208091040260200160405190810160405280929190818152602001828054611eae90613f96565b8015611efb5780601f10611ed057610100808354040283529160200191611efb565b820191906000526020600020905b815481529060010190602001808311611ede57829003601f168201915b50505050508152505081526020019060010190611acd565b5050505091505090565b60608060608060608060048781548110611f3a57611f39613f38565b5b906000526020600020906008020160020160048881548110611f5f57611f5e613f38565b5b906000526020600020906008020160030160048981548110611f8457611f83613f38565b5b906000526020600020906008020160040160048a81548110611fa957611fa8613f38565b5b906000526020600020906008020160050160048b81548110611fce57611fcd613f38565b5b906000526020600020906008020160060160048c81548110611ff357611ff2613f38565b5b906000526020600020906008020160070185805461201090613f96565b80601f016020809104026020016040519081016040528092919081815260200182805461203c90613f96565b80156120895780601f1061205e57610100808354040283529160200191612089565b820191906000526020600020905b81548152906001019060200180831161206c57829003601f168201915b5050505050955084805461209c90613f96565b80601f01602080910402602001604051908101604052809291908181526020018280546120c890613f96565b80156121155780601f106120ea57610100808354040283529160200191612115565b820191906000526020600020905b8154815290600101906020018083116120f857829003601f168201915b5050505050945083805461212890613f96565b80601f016020809104026020016040519081016040528092919081815260200182805461215490613f96565b80156121a15780601f10612176576101008083540402835291602001916121a1565b820191906000526020600020905b81548152906001019060200180831161218457829003601f168201915b5050505050935082805480602002602001604051908101604052809291908181526020016000905b828210156122755783829060005260206000200180546121e890613f96565b80601f016020809104026020016040519081016040528092919081815260200182805461221490613f96565b80156122615780601f1061223657610100808354040283529160200191612261565b820191906000526020600020905b81548152906001019060200180831161224457829003601f168201915b5050505050815260200190600101906121c9565b50505050925081805461228790613f96565b80601f01602080910402602001604051908101604052809291908181526020018280546122b390613f96565b80156123005780601f106122d557610100808354040283529160200191612300565b820191906000526020600020905b8154815290600101906020018083116122e357829003601f168201915b5050505050915080805461231390613f96565b80601f016020809104026020016040519081016040528092919081815260200182805461233f90613f96565b801561238c5780601f106123615761010080835404028352916020019161238c565b820191906000526020600020905b81548152906001019060200180831161236f57829003601f168201915b5050505050905095509550955095509550955091939550919395565b60606000600460016004805490506123c09190613eae565b815481106123d1576123d0613f38565b5b9060005260206000209060080201604051806101000160405290816000820160009054906101000a900473ffffffffffffffffffffffffffffffffffffffff1673ffffffffffffffffffffffffffffffffffffffff1673ffffffffffffffffffffffffffffffffffffffff1681526020016001820154815260200160028201805461245b90613f96565b80601f016020809104026020016040519081016040528092919081815260200182805461248790613f96565b80156124d45780601f106124a9576101008083540402835291602001916124d4565b820191906000526020600020905b8154815290600101906020018083116124b757829003601f168201915b505050505081526020016003820180546124ed90613f96565b80601f016020809104026020016040519081016040528092919081815260200182805461251990613f96565b80156125665780601f1061253b57610100808354040283529160200191612566565b820191906000526020600020905b81548152906001019060200180831161254957829003601f168201915b5050505050815260200160048201805461257f90613f96565b80601f01602080910402602001604051908101604052809291908181526020018280546125ab90613f96565b80156125f85780601f106125cd576101008083540402835291602001916125f8565b820191906000526020600020905b8154815290600101906020018083116125db57829003601f168201915b5050505050815260200160058201805480602002602001604051908101604052809291908181526020016000905b828210156126d257838290600052602060002001805461264590613f96565b80601f016020809104026020016040519081016040528092919081815260200182805461267190613f96565b80156126be5780601f10612693576101008083540402835291602001916126be565b820191906000526020600020905b8154815290600101906020018083116126a157829003601f168201915b505050505081526020019060010190612626565b5050505081526020016006820180546126ea90613f96565b80601f016020809104026020016040519081016040528092919081815260200182805461271690613f96565b80156127635780601f1061273857610100808354040283529160200191612763565b820191906000526020600020905b81548152906001019060200180831161274657829003601f168201915b5050505050815260200160078201805461277c90613f96565b80601f01602080910402602001604051908101604052809291908181526020018280546127a890613f96565b80156127f55780601f106127ca576101008083540402835291602001916127f5565b820191906000526020600020905b8154815290600101906020018083116127d857829003601f168201915b5050505050815250509050806040015191505090565b600260009054906101000a900473ffffffffffffffffffffffffffffffffffffffff1673ffffffffffffffffffffffffffffffffffffffff163373ffffffffffffffffffffffffffffffffffffffff161461289b576040517f08c379a0000000000000000000000000000000000000000000000000000000008152600401612892906141fd565b60405180910390fd5b60006128a5611325565b90506000816000815181106128bd576128bc613f38565b5b602002602001015190506000816000015190508073ffffffffffffffffffffffffffffffffffffffff166108fc479081150290604051600060405180830381858888f19350505050158015612916573d6000803e3d6000fd5b5061291f612f36565b505050565b60016020528060005260406000206000915090505481565b60606004805480602002602001604051908101604052809291908181526020016000905b82821015612da65783829060005260206000209060080201604051806101000160405290816000820160009054906101000a900473ffffffffffffffffffffffffffffffffffffffff1673ffffffffffffffffffffffffffffffffffffffff1673ffffffffffffffffffffffffffffffffffffffff168152602001600182015481526020016002820180546129f490613f96565b80601f0160208091040260200160405190810160405280929190818152602001828054612a2090613f96565b8015612a6d5780601f10612a4257610100808354040283529160200191612a6d565b820191906000526020600020905b815481529060010190602001808311612a5057829003601f168201915b50505050508152602001600382018054612a8690613f96565b80601f0160208091040260200160405190810160405280929190818152602001828054612ab290613f96565b8015612aff5780601f10612ad457610100808354040283529160200191612aff565b820191906000526020600020905b815481529060010190602001808311612ae257829003601f168201915b50505050508152602001600482018054612b1890613f96565b80601f0160208091040260200160405190810160405280929190818152602001828054612b4490613f96565b8015612b915780601f10612b6657610100808354040283529160200191612b91565b820191906000526020600020905b815481529060010190602001808311612b7457829003601f168201915b5050505050815260200160058201805480602002602001604051908101604052809291908181526020016000905b82821015612c6b578382906000526020600020018054612bde90613f96565b80601f0160208091040260200160405190810160405280929190818152602001828054612c0a90613f96565b8015612c575780601f10612c2c57610100808354040283529160200191612c57565b820191906000526020600020905b815481529060010190602001808311612c3a57829003601f168201915b505050505081526020019060010190612bbf565b505050508152602001600682018054612c8390613f96565b80601f0160208091040260200160405190810160405280929190818152602001828054612caf90613f96565b8015612cfc5780601f10612cd157610100808354040283529160200191612cfc565b820191906000526020600020905b815481529060010190602001808311612cdf57829003601f168201915b50505050508152602001600782018054612d1590613f96565b80601f0160208091040260200160405190810160405280929190818152602001828054612d4190613f96565b8015612d8e5780601f10612d6357610100808354040283529160200191612d8e565b820191906000526020600020905b815481529060010190602001808311612d7157829003601f168201915b50505050508152505081526020019060010190612960565b50505050905090565b600360405180602001604052803373ffffffffffffffffffffffffffffffffffffffff168152509080600181540180825580915050600190039060005260206000200160009091909190915060008201518160000160006101000a81548173ffffffffffffffffffffffffffffffffffffffff021916908373ffffffffffffffffffffffffffffffffffffffff160217905550505060055481612e529190614157565b341015612e94576040517f08c379a0000000000000000000000000000000000000000000000000000000008152600401612e8b90614269565b60405180910390fd5b80600160003373ffffffffffffffffffffffffffffffffffffffff1673ffffffffffffffffffffffffffffffffffffffff1681526020019081526020016000206000828254612ee39190613ee2565b9250508190555050565b6000600160008373ffffffffffffffffffffffffffffffffffffffff1673ffffffffffffffffffffffffffffffffffffffff168152602001908152602001600020549050919050565b6000600480549050905060005b81811015612f8957600060048281548110612f6157612f60613f38565b5b9060005260206000209060080201600101819055508080612f819061407d565b915050612f43565b506000600380549050905060005b8181101561303a57600080600060038481548110612fb857612fb7613f38565b5b9060005260206000200160000160009054906101000a900473ffffffffffffffffffffffffffffffffffffffff1673ffffffffffffffffffffffffffffffffffffffff1673ffffffffffffffffffffffffffffffffffffffff1681526020019081526020016000206001018190555080806130329061407d565b915050612f97565b505050565b82805461304b90613f96565b90600052602060002090601f01602090048101928261306d57600085556130b4565b82601f1061308657805160ff19168380011785556130b4565b828001600101855582156130b4579182015b828111156130b3578251825591602001919060010190613098565b5b5090506130c1919061321a565b5090565b828054828255906000526020600020908101928215613114579160200282015b8281111561311357825182908051906020019061310392919061303f565b50916020019190600101906130e5565b5b5090506131219190613237565b5090565b82805461313190613f96565b90600052602060002090601f01602090048101928261315357600085556131a1565b82601f1061316457805485556131a1565b828001600101855582156131a157600052602060002091601f016020900482015b828111156131a0578254825591600101919060010190613185565b5b5090506131ae919061321a565b5090565b8280548282559060005260206000209081019282156132095760005260206000209182015b828111156132085782829080546131ed90613f96565b6131f8929190613125565b50916001019190600101906131d7565b5b5090506132169190613237565b5090565b5b8082111561323357600081600090555060010161321b565b5090565b5b80821115613257576000818161324e919061325b565b50600101613238565b5090565b50805461326790613f96565b6000825580601f106132795750613298565b601f016020900490600052602060002090810190613297919061321a565b5b50565b6000604051905090565b600080fd5b600080fd5b600073ffffffffffffffffffffffffffffffffffffffff82169050919050565b60006132da826132af565b9050919050565b6132ea816132cf565b81146132f557600080fd5b50565b600081359050613307816132e1565b92915050565b600060208284031215613323576133226132a5565b5b6000613331848285016132f8565b91505092915050565b6000819050919050565b61334d8161333a565b82525050565b60006020820190506133686000830184613344565b92915050565b600080fd5b600080fd5b6000601f19601f8301169050919050565b7f4e487b7100000000000000000000000000000000000000000000000000000000600052604160045260246000fd5b6133c182613378565b810181811067ffffffffffffffff821117156133e0576133df613389565b5b80604052505050565b60006133f361329b565b90506133ff82826133b8565b919050565b600067ffffffffffffffff82111561341f5761341e613389565b5b61342882613378565b9050602081019050919050565b82818337600083830152505050565b600061345761345284613404565b6133e9565b90508281526020810184848401111561347357613472613373565b5b61347e848285613435565b509392505050565b600082601f83011261349b5761349a61336e565b5b81356134ab848260208601613444565b91505092915050565b600067ffffffffffffffff8211156134cf576134ce613389565b5b602082029050602081019050919050565b600080fd5b60006134f86134f3846134b4565b6133e9565b9050808382526020820190506020840283018581111561351b5761351a6134e0565b5b835b8181101561356257803567ffffffffffffffff8111156135405761353f61336e565b5b80860161354d8982613486565b8552602085019450505060208101905061351d565b5050509392505050565b600082601f8301126135815761358061336e565b5b81356135918482602086016134e5565b91505092915050565b60008060008060008060c087890312156135b7576135b66132a5565b5b600087013567ffffffffffffffff8111156135d5576135d46132aa565b5b6135e189828a01613486565b965050602087013567ffffffffffffffff811115613602576136016132aa565b5b61360e89828a01613486565b955050604087013567ffffffffffffffff81111561362f5761362e6132aa565b5b61363b89828a01613486565b945050606087013567ffffffffffffffff81111561365c5761365b6132aa565b5b61366889828a0161356c565b935050608087013567ffffffffffffffff811115613689576136886132aa565b5b61369589828a01613486565b92505060a087013567ffffffffffffffff8111156136b6576136b56132aa565b5b6136c289828a01613486565b9150509295509295509295565b6136d88161333a565b81146136e357600080fd5b50565b6000813590506136f5816136cf565b92915050565b600080600060608486031215613714576137136132a5565b5b6000613722868287016136e6565b935050602084013567ffffffffffffffff811115613743576137426132aa565b5b61374f86828701613486565b9250506040613760868287016132f8565b9150509250925092565b6000602082840312156137805761377f6132a5565b5b600061378e848285016136e6565b91505092915050565b6137a0816132cf565b82525050565b60006020820190506137bb6000830184613797565b92915050565b600081519050919050565b600082825260208201905092915050565b60005b838110156137fb5780820151818401526020810190506137e0565b8381111561380a576000848401525b50505050565b600061381b826137c1565b61382581856137cc565b93506138358185602086016137dd565b61383e81613378565b840191505092915050565b600060e08201905061385e600083018a613797565b61386b6020830189613344565b818103604083015261387d8188613810565b905081810360608301526138918187613810565b905081810360808301526138a58186613810565b905081810360a08301526138b98185613810565b905081810360c08301526138cd8184613810565b905098975050505050505050565b600081519050919050565b600082825260208201905092915050565b6000819050602082019050919050565b613910816132cf565b82525050565b61391f8161333a565b82525050565b600082825260208201905092915050565b6000613941826137c1565b61394b8185613925565b935061395b8185602086016137dd565b61396481613378565b840191505092915050565b600081519050919050565b600082825260208201905092915050565b6000819050602082019050919050565b60006139a78383613936565b905092915050565b6000602082019050919050565b60006139c78261396f565b6139d1818561397a565b9350836020820285016139e38561398b565b8060005b85811015613a1f5784840389528151613a00858261399b565b9450613a0b836139af565b925060208a019950506001810190506139e7565b50829750879550505050505092915050565b600061010083016000830151613a4a6000860182613907565b506020830151613a5d6020860182613916565b5060408301518482036040860152613a758282613936565b91505060608301518482036060860152613a8f8282613936565b91505060808301518482036080860152613aa98282613936565b91505060a083015184820360a0860152613ac382826139bc565b91505060c083015184820360c0860152613add8282613936565b91505060e083015184820360e0860152613af78282613936565b9150508091505092915050565b6000613b108383613a31565b905092915050565b6000602082019050919050565b6000613b30826138db565b613b3a81856138e6565b935083602082028501613b4c856138f7565b8060005b85811015613b885784840389528151613b698582613b04565b9450613b7483613b18565b925060208a01995050600181019050613b50565b50829750879550505050505092915050565b60006020820190508181036000830152613bb48184613b25565b905092915050565b600082825260208201905092915050565b6000613bd88261396f565b613be28185613bbc565b935083602082028501613bf48561398b565b8060005b85811015613c305784840389528151613c11858261399b565b9450613c1c836139af565b925060208a01995050600181019050613bf8565b50829750879550505050505092915050565b600060c0820190508181036000830152613c5c8189613810565b90508181036020830152613c708188613810565b90508181036040830152613c848187613810565b90508181036060830152613c988186613bcd565b90508181036080830152613cac8185613810565b905081810360a0830152613cc08184613810565b9050979650505050505050565b60006020820190508181036000830152613ce78184613810565b905092915050565b7f446f67206e616d652063616e206e6f7420626520656d70747921000000000000600082015250565b6000613d25601a836137cc565b9150613d3082613cef565b602082019050919050565b60006020820190508181036000830152613d5481613d18565b9050919050565b7f4e6f7420656e6f756768206d6f6e657920746f20637265617465206120646f6760008201527f2070726f66696c65000000000000000000000000000000000000000000000000602082015250565b6000613db76028836137cc565b9150613dc282613d5b565b604082019050919050565b60006020820190508181036000830152613de681613daa565b9050919050565b7f596f752063616e277420766f7465206d6f726520766f746573207468616e207960008201527f6f75206861766521000000000000000000000000000000000000000000000000602082015250565b6000613e496028836137cc565b9150613e5482613ded565b604082019050919050565b60006020820190508181036000830152613e7881613e3c565b9050919050565b7f4e487b7100000000000000000000000000000000000000000000000000000000600052601160045260246000fd5b6000613eb98261333a565b9150613ec48361333a565b925082821015613ed757613ed6613e7f565b5b828203905092915050565b6000613eed8261333a565b9150613ef88361333a565b9250827fffffffffffffffffffffffffffffffffffffffffffffffffffffffffffffffff03821115613f2d57613f2c613e7f565b5b828201905092915050565b7f4e487b7100000000000000000000000000000000000000000000000000000000600052603260045260246000fd5b7f4e487b7100000000000000000000000000000000000000000000000000000000600052602260045260246000fd5b60006002820490506001821680613fae57607f821691505b602082108103613fc157613fc0613f67565b5b50919050565b600081905092915050565b60008190508160005260206000209050919050565b60008154613ff481613f96565b613ffe8186613fc7565b94506001821660008114614019576001811461402a5761405d565b60ff1983168652818601935061405d565b61403385613fd2565b60005b8381101561405557815481890152600182019150602081019050614036565b838801955050505b50505092915050565b60006140728284613fe7565b915081905092915050565b60006140888261333a565b91507fffffffffffffffffffffffffffffffffffffffffffffffffffffffffffffffff82036140ba576140b9613e7f565b5b600182019050919050565b7f7265717565737465642063616e63656c20766f7465732065786365656465642060008201527f74686520746f74616c20766f74657320617661696c61626c6500000000000000602082015250565b60006141216039836137cc565b915061412c826140c5565b604082019050919050565b6000602082019050818103600083015261415081614114565b9050919050565b60006141628261333a565b915061416d8361333a565b9250817fffffffffffffffffffffffffffffffffffffffffffffffffffffffffffffffff04831182151516156141a6576141a5613e7f565b5b828202905092915050565b7f6f6e6c79207468652061646d696e2063616e20656e6420766f74650000000000600082015250565b60006141e7601b836137cc565b91506141f2826141b1565b602082019050919050565b60006020820190508181036000830152614216816141da565b9050919050565b7f4e6f7420656e6f756768206d6f6e657920746f20627579206120766f74650000600082015250565b6000614253601e836137cc565b915061425e8261421d565b602082019050919050565b6000602082019050818103600083015261428281614246565b905091905056fea2646970667358221220c0dd92f3a873d19d771f484c98bb63122a7325839b4c8fc5c935a9c9343c545d64736f6c634300080d0033",
  "immutableReferences": {},
  "source": "//SPDX-License-Identifier: MIT\npragma solidity ^0.8.0;\n\ncontract PuppyVote{\n\n    struct User{\n        address userAddress; \n    } \n    \n    struct Dog{\n        address ownerAddress; \n        uint numVote;\n        string puppyName;\n        string gender;\n        string dateOfBirth;\n        string[] tags;\n        string description;\n        string dogPicture;\n    }\n\n    mapping(address => Dog) public adopt;   // a user has a dog\n    mapping(address => uint256) public userVoteBalance;// the number of votes user has confirmed\n    \n    address owner;\n    User[] public users;\n    Dog[] dogs;\n    \n    uint public votePrice;\n\n    constructor() {\n        owner = msg.sender;\n        votePrice = 100000000000000000; // 0.1 ether\n    }\n\n    modifier notEmpty (string memory _input) {\n        require(bytes(_input).length!= 0, \"Dog name can not be empty!\");\n        _;\n    }\n\n    function createDogProfile(string memory _name, string memory _gender, string memory _birthday, string[] memory _tags, string memory _description, string memory _dogPicture) public payable notEmpty (_name){\n        //users.push(User(msg.sender)); \n        //get info from web \n        require(msg.value >= votePrice, \"Not enough money to create a dog profile\"); //transfer to sc addr by default\n        Dog memory newDog = Dog(msg.sender, 0, _name, _gender, _birthday, _tags, _description, _dogPicture);\n        adopt[msg.sender] = newDog;\n        dogs.push(newDog);\n    }\n    \n    // there should be some input protection in the front end\n    function buyVote(uint256 _buyVoteNum) public payable{\n        users.push(User(msg.sender));\n        require(msg.value >= _buyVoteNum * votePrice, \"Not enough money to buy a vote\"); //transfer to sc addr by default\n        userVoteBalance[msg.sender] += _buyVoteNum;\n        //payable(owner).transfer(_buyVoteNum * votePrice);\n        // addressshg(this): the address of the smart contract\n        //transferMoney(address(this), _buyVoteNum);\n        //bool flag = payable(address(this)).send(100000000000000000);\n        //require(flag == true, \"failure of sending the money\");\n        \n        //payable(address(this)).transfer(votePrice);\n    }\n\n    function cancelOrder(uint256 _cancelVoteNum) public payable{\n        require(_cancelVoteNum <= userVoteBalance[msg.sender], \"requested cancel votes exceeded the total votes available\");\n        userVoteBalance[msg.sender] -= _cancelVoteNum;\n        payable(msg.sender).transfer(votePrice * _cancelVoteNum);\n    }\n\n    // to: get the money, source of pain\n    // function transferMoney(address _to, uint256 _voteNum) public payable returns (bool success) {\n    //     require(msg.value >= _voteNum * votePrice, \"Not enough ether\");\n    //     payable(_to).transfer(_voteNum * votePrice);\n    //     return true;\n    // }\n\n    function vote(uint256 _voteNum, string memory _dogName, address dogOwner) public{\n        require(_voteNum <= userVoteBalance[msg.sender], \"You can't vote more votes than you have!\");\n        userVoteBalance[msg.sender] -= _voteNum;\n        adopt[dogOwner].numVote += _voteNum;//update dog's vote\n        uint256 l = dogs.length;\n        for (uint i = 0; i < l; i++) {\n            if(dogs[i].ownerAddress == dogOwner && keccak256(bytes(dogs[i].puppyName)) == keccak256(bytes(_dogName))) {\n                dogs[i].numVote += _voteNum;\n            }\n        }\n        rank();//update leader board\n    }\n\n    // calculate the winner, and return money to the winner\n    function endVote() public payable{\n        require(msg.sender == owner, \"only the admin can end vote\");\n        Dog[] memory result = rank();\n        // the winning dog\n        Dog memory winningDog = result[0];\n        address winner = winningDog.ownerAddress;\n        payable(winner).transfer(address(this).balance);\n        //payable(owner).transfer(address(this).balance);//transfer money back to owner\n        reset();\n    }\n\n    function rank() public returns (Dog[] memory){\n        uint256 l = dogs.length;\n        for (uint i = 0; i < l; i++) {\n            for (uint j = i + 1; j < l; j++) {\n                if(dogs[i].numVote < dogs[j].numVote){\n                    Dog memory tmp = dogs[j];\n                    dogs[j] = dogs[i];\n                    dogs[i] = tmp;\n                }\n            }\n        }\n        return dogs;\n    }\n\n    function reset() public {\n        uint256 l = dogs.length;\n        for (uint i = 0; i < l; i++) {\n            dogs[i].numVote=0;//reset to zero\n        }\n        uint256 len = users.length;\n\n        for (uint i = 0; i < len; i++) {\n            adopt[users[i].userAddress].numVote=0;//reset to zero\n        }\n    }\n    \n    function getDogs() public view returns (Dog[] memory) {\n        return dogs;\n    }\n\n    function getDogByIndex(uint index) public view returns(string memory, string memory, string memory, string[] memory, string memory, string memory) {\n        return (dogs[index].puppyName, dogs[index].gender, dogs[index].dateOfBirth, dogs[index].tags, dogs[index].description, dogs[index].dogPicture);\n    }\n\n    function getLastDogName() public view returns (string memory) {\n        Dog memory dog = dogs[dogs.length-1];\n        return dog.puppyName;\n    }\n\n    function getLastDogVote() public view returns (uint256) {\n        Dog memory dog = dogs[dogs.length-1];\n        return dog.numVote;\n    }\n\n    function getUserVote(address addr) public view returns (uint256 ) {\n        return userVoteBalance[addr];\n    }\n\n    function getAdoptDogVote(address addr) public view returns (uint256 ) {\n        return adopt[addr].numVote;\n    }\n\n       //get balance\n    function getBalance() public view returns (uint) {\n        return address(this).balance;\n    }\n}\n",
  "sourcePath": "/Users/miley/Desktop/571G/571G_Project/my-app/src/contracts/PuppyVote.sol",
  "compiler": {
    "name": "solc",
    "version": "0.8.13+commit.abaa5c0e.Emscripten.clang"
  },
  "schemaVersion": "3.4.6",
  "updatedAt": "2022-04-05T19:43:52.461Z",
  "networkType": "ethereum",
  "devdoc": {
    "kind": "dev",
    "methods": {},
    "version": 1
  },
  "userdoc": {
    "kind": "user",
    "methods": {},
    "version": 1
  }
}